:0200000470107A
:1000000053544D32000000000000000000000000CA
:1000100000000000000000000000000000000000E0
:1000200000000000000000000000000000000000D0
:1000300000000000000000000000000000000000C0
:1000400000000000000000000000000000000000B0
:1000500000000000000000000000000000000000A0
:1000600000000000BD68460300030200C0B60700A0
:10007000097A023400000000FFFFFFFF00000000CB
:100080000000000000000080A0010000000000004F
:100090000000000000000000000000000000000060
:1000A0005354FFFFA00100006238309BC11D17149C
:1000B0005647F9AF7DF77A1D24ADEFD17F9B17A589
:1000C000F79A616FC5CAB7B47B49F619FF4C6E1435
:1000D000773A8EC41F826CAC0C70F1A6CC1E94D5FE
:1000E000ED65EE312674C2713EA79D85E1F861D7BA
:1000F0000ECC157F739D5497F07B4597C7E2791816
:100100001588F70513003A0A36531D7C46D5664616
:1001100099ADFECD0CD711D9B40E419A5DBD329B7D
:100120006FEE5A431B5D7157AFE073252DAEC1458D
:10013000CFC60A7A65CD687AB7114591F130951826
:100140000DEE565BD5A88742178E318A5FCB2F17ED
:10015000CEF1A31FCCF23B64AC6D4EE02E05D2A8CD
:10016000E495D637CFCADE5B0D19FBD080F7A0CF60
:1001700028500E8399B3EDE30BC0122CFE29EE4EEE
:1001800048A4C6CA480C30795347E4857DEA006329
:10019000711787EA99AABE80406AF2586CA6B053DC
:1001A00085B1465EA3CB476F1430A4EF9A63E7583E
:1001B0005EAA9FB74FBBECA1412D1CD60B099E51E7
:1001C000390E32620A65F6EC8A1D68818FE5662277
:1001D0001333C039B113D15810BB1106DEE1409C76
:1001E0005D7E8E770703D923A1F1DC85F05C68CEB4
:1001F00085D041C9FFC42605AE505BB031FC5B061B
:10020000A9EC68E81F71F857BFAD84395FB810E3F7
:10021000BA5278C802FAF2691AAB46A3D22074F334
:10022000F9A9E6FEB3AEA4CB0C8B5BEBE45A160542
:100230007D519620017857E21E7787840251B6439C
:1002400000000000000000000000000000000000AE
:10025000000000000000000000000000000000009E
:10026000000000000000000000000000000000008E
:10027000000000000000000000000000000000007E
:10028000000000000000000000000000000000006E
:10029000000000000000000000000000000000005E
:1002A000000000000000000000000000000000004E
:1002B000000000000000000000000000000000003E
:1002C000000000000000000000000000000000002E
:1002D000000000000000000000000000000000001E
:1002E000000000000000000000000000000000000E
:1002F00000000000000000000000000000000000FE
:1003000000000000000000000000000000000000ED
:1003100000000000000000000000000000000000DD
:1003200000000000000000000000000000000000CD
:1003300000000000000000000000000000000000BD
:1003400000000000000000000000000000000000AD
:10035000000000000000000000000000000000009D
:10036000000000000000000000000000000000008D
:10037000000000000000000000000000000000007D
:10038000000000000000000000000000000000006D
:10039000000000000000000000000000000000005D
:1003A000000000000000000000000000000000004D
:1003B000000000000000000000000000000000003D
:1003C000000000000000000000000000000000002D
:1003D000000000000000000000000000000000001D
:1003E000000000000000000000000000000000000D
:1003F00000000000000000000000000000000000FD
:1004000000001B34097A0234193B0034657A023447
:100410001B3B00341D3B0034657A02341F3B003423
:10042000000000000000000000000000F1C00134E6
:10043000213B00340000000081C00134B1BD013413
:10044000657A023400000000657A0234657A02346D
:10045000657A0234657A0234657A0234657A023448
:10046000657A023400000000657A0234657A02344D
:10047000657A0234DD250034657A0234000000001C
:10048000657A023400000000657A0234657A02342D
:10049000657A0234657A0234657A0234657A023408
:1004A000657A0234657A0234657A0234657A0234F8
:1004B000657A0234657A0234657A0234657A0234E8
:1004C000657A0234657A0234657A0234657A0234D8
:1004D000657A0234657A0234657A0234657A0234C8
:1004E000657A023400000000657A0234657A0234CD
:1004F000657A0234657A0234657A0234233B00342B
:10050000313B00340000000000000000000000004B
:10051000657A0234D9420134657A0234657A02344C
:10052000657A0234657A0234657A0234657A023477
:10053000DD340034657A023489C40134657A0234CA
:10054000657A0234657A0234657A0234657A023457
:10055000657A0234657A0234657A0234657A023447
:10056000657A0234657A0234657A0234657A023437
:10057000657A0234657A0234657A0234657A023427
:10058000657A0234657A0234657A0234657A023417
:10059000657A0234657A0234657A0234657A023407
:1005A000657A0234657A0234657A0234657A0234F7
:1005B000657A0234657A0234657A0234657A0234E7
:1005C000657A0234657A0234657A0234657A0234D7
:1005D000657A0234657A0234657A0234657A0234C7
:1005E000657A0234657A0234657A0234657A0234B7
:1005F000657A0234657A0234657A0234657A0234A7
:10060000657A0234657A0234657A0234657A023496
:10061000657A0234657A0234657A0234657A023486
:10062000657A0234657A0234657A0234657A023476
:10063000657A0234657A0234657A0234657A023466
:10064000657A0234657A0234657A0234657A023456
:10065000657A0234657A0234657A0234657A023446
:10066000657A0234657A0234657A0234657A023436
:10067000657A0234657A0234657A0234657A023426
:10068000657A0234657A0234657A0234657A023416
:10069000657A0234657A0234657A0234657A023406
:1006A000657A0234657A0234657A0234657A0234F6
:1006B000657A0234657A0234657A0234657A0234E6
:1006C000657A0234657A0234657A0234657A0234D6
:1006D000657A0234657A0234657A0234657A0234C6
:1006E000657A0234657A0234657A0234657A0234B6
:1006F000657A0234657A0234657A0234657A0234A6
:10070000657A02343F3B0034657A0234657A0234FC
:10071000657A0234657A0234657A0234657A023485
:10072000657A0234657A0234657A0234657A023475
:10073000657A0234657A0234657A0234657A023465
:1007400000000000657A0234657A0234000000007F
:1007500010B5054C237833B9044B13B10448AFF3FB
:1007600000800123237010BD00B907340000000091
:1007700080C8023408B5034B1BB103490348AFF3EB
:10078000008008BD0000000004B9073480C80234AE
:10079000034613F8012B002AFBD1181A01387047C1
:1007A00090EDAD5A30B52DED108B90EDA87BB5EEE8
:1007B000C05A89B08DED007BF1EE10FA90EDA47B6C
:1007C000044691ED014A91ED002A91ED02FB91ED75
:1007D00004EB90ED123B90EDAACB90ED16BB8DEDA6
:1007E000047B90EDA66B09DCD0F8C832D648984758
:1007F0004FF0FF3009B0BDEC108B30BDB8EE444B6C
:100800009FEDC37BB8EE422B24EE077BB4EEC27B98
:10081000F1EE10FA0FDD90ED1C7B9FEDBF1B37EE64
:10082000011B9FEDBF7BB4EEC71BF1EE10FA37FE44
:10083000017B80ED1C7B9FEDBC7B24EE074BB4EE6F
:10084000C24BF1EE10FA10D594ED1C7B9FEDB24B2C
:1008500037EE447B9FEDB64BB4EEC47BF1EE10FA5D
:1008600058BFB0EE474B84ED1C4B94F85050B7EE98
:10087000C55A012D64D19FEDB07B3FEE4E4B84EE07
:1008800007DB3FEE0E4B84EE07ABB0EECD7BB4EE54
:10089000C75BF1EE10FAB0EECA4B3CDBB4EEC45BC2
:1008A000F1EE10FA37DB002384F8783083EE0C9BEE
:1008B000BCEEC99BB8EE499B29EE0C9B0022FCEED6
:1008C000C95BB0EE498BCDED035A84F86020002B54
:1008D00000F08C80F7EECB0BB7EEC70B8DED066BFF
:1008E0002BF06AFEB2EE047BB7EEC00AB0EECE5B30
:1008F00020EE070BB0EECF7BB4EEC57BF1EE10FA25
:100900009DED066B34DDB5EEC0FBF1EE10FA34D58B
:1009100039EE400B33E0B4EEC45BF1EE10FA25D5AE
:100920008AEE0D4B94EDAE5AB0EEC44BB7EEC55AFD
:10093000B4EEC54BF1EE10FAB4BF01230023B5E7C6
:10094000B0EECF7BB0EECE4BB4EE474BF1EE10FAEB
:1009500034FE077BB4EEC57B9FED79ABF1EE10FA68
:10096000B0EE4ADB8CBF012300239FE701239DE704
:10097000B5EEC0EBF1EE10FACAD539EE000B94EDEE
:100980003C7BB4EEC07BF1EE10FA03D5B0EE46BB73
:10099000B0EE470B94ED3A7BB4EEC07BF1EE10FA6B
:1009A00003DDB0EE46BBB0EE470B80EE0C8BBCEE29
:1009B000C88BB8EE488B012D2CEE088B16D1B4F8FD
:1009C000E030022B5FD8FCEEC97BB8EE677B04EB0E
:1009D000C30282ED207B82ED268B04EB03120133F0
:1009E00082ED2CDB82ED2EABA4F8E03094F8783069
:1009F0004BBB102204F1880104F180008DED066BE1
:100A000028F02EF9102204F1A00104F1980028F03A
:100A100027F9D4E9302384ED249BC4E92C23D4E9BD
:100A2000322384ED2A8BC4E92E23D4E934239DEDAF
:100A3000066BC4E93023D4E9362384ED34DB84ED3E
:100A400036ABC4E93223FCEEC87B17EE903A94ED46
:100A50001A7B039AB5EEC07B93421CBF012384F836
:100A60006030F1EE10FA71DD012384F860309DED05
:100A7000007BB4EEC7BBF1EE10FA79D59DED047B97
:100A80003BEE076B66E094ED2A7B94EDAF5A38EEAF
:100A9000477BB7EEC55AB0EEC77BB4EEC57BF1EE2F
:100AA00010FA2CDB94ED287B38EE477BB0EEC77B49
:100AB000B4EEC75BF1EE10FA21DD94ED320B94ED4C
:100AC000307B3AEE400B3DEE477B20EE000BA7EE6D
:100AD000070B8DED066B2BF037FD94EDB07AB7EE7A
:100AE000C77AB4EEC70BF1EE10FA9DED066B06D592
:100AF000FCEEC97B84F87850B8EE678B76E794F803
:100B00007830012B04BF002384F878306EE700BFF3
:100B10009A9999999999A93F7B14AE47E17A843FB4
:100B2000343333333333C33F333333333333C33F5C
:100B3000111111111111B13FCD3B7F669EA0F63FFF
:100B40000000000000000000A8AB073494F86030FB
:100B5000002B8CD188EE0C7BBCEEC77BB8EE477BBC
:100B600027EE0C7B84ED166B84ED127B012041E6B1
:100B70009DED006BEEE790ED1A6BB5EEC06B90ED5E
:100B8000124BF1EE10FA90EDAA5BB0EE467BDFBFA0
:100B900084EE057BBCEEC77BB8EE477B27EE057B7A
:100BA000B7EEC77B90ED3C5BB7EEC74AB4EEC54BE2
:100BB000F1EE10FAC8BFB7EEC57B90ED3A5BB7EE29
:100BC000C74AB4EEC54BF1EE10FA48BFB7EEC57B8D
:100BD000B7EEC75AD0F8743230B580ED125B93EDA2
:100BE000005AD0EDAC7AB4EEC75AF1EE675AF1EE86
:100BF00010FA4FF00001B0F8F83075FEA77A013B0B
:100C00008AB2934205D8442202FB030303F5907392
:100C100011E000EB8204D4ED445A77EEA55AF4EECD
:100C2000C75AF1EE10FA01F10101E9DB442303FB9D
:100C3000020202F59073B5EEC06BF1EE10FAC0F847
:100C4000743205DC93ED007AB7EEC77A80ED127B43
:100C50005A6803F1380142609A6803F12404826003
:100C6000DA68C2601A69026100F138025D690C330A
:100C70004561DD680C30C5601D69A342056151F80E
:100C8000045B42F8045BF1D1012030BD10B504468D
:100C900090B070B10023084C40212370C4F8C80202
:100CA000064B6846064A2BF01BFC6846D4F8C8324F
:100CB0009847204610B010BD20B9073470B30734F0
:100CC000E8AB0734002814BF01204FF0FF30704715
:100CD00080ED000A30B50C6844604C6884608C6814
:100CE000C460C96802F12404016100F1380115688B
:100CF0000C32456152F8085C0C30C56052F8045C57
:100D0000A242056153F8045B41F8045BEFD130BDAA
:100D10002DE9F04F2DED068B0E46B0EE409BB0EE68
:100D2000418B1D460446C7B0002800F08F819FED1F
:100D3000CCAB80ED12AB0020CF494FF00008C4E9E6
:100D40001601C4E9A601C4E9AA01CC49DFF8609301
:100D5000C4F8B0124FF07E51C4F8B4124FF07C5179
:100D6000C4E91A890FF20039D9E90089C4E91C895C
:100D7000C4E9A4894FF00008C4F8B812C049DFF8EC
:100D80003493C4F8BC124FF07F510023C4E9A88902
:100D900001274FF00008C4F8C012711EDFF8189345
:100DA00088B20428C4E9A0890FF2C429D9E90089CE
:100DB00084F86030C4E9A289A4F8E03084F878307F
:100DC000A4F8787214D905234FF48071AD4A06A8AF
:100DD0002BF086FBD4F8C83206A8984784F85070E8
:100DE000204647B0BDEC068BBDE8F04FFFF7C3BE11
:100DF00095ED007AB7EEC77AB4EEC70BF1EE10FAB4
:100E000012DDD4F8C832A048984795ED007AB7EEC5
:100E1000C77A8DED009B8DED027B9C4A4FF480716B
:100E200006A82BF05DFBD5E74FF0440C0CFB0658F1
:100E300018ED117AB7EEC77AB4EEC71BF1EE10FACF
:100E400041D5D4F8C8329248984798ED007AB7EE69
:100E5000C77A8DED008B8DED027B8E4ADEE70CFBB1
:100E600008F705EB070944372F4499ED007AD7EDD1
:100E7000007AB4EEE77AF1EE10FA08F1010A00F117
:100E8000010021DBD4F8C8328348984797ED007AF7
:100E9000B7EEC77A8DED047BCDF808A099ED007A06
:100EA000B7EEC77A43468DED007B7C4A4FF48071E4
:100EB00006A82BF015FBD4F8C83206A898470123E2
:100EC00084F850308CE718461FFA80F84145C6D8A0
:100ED00000234FF0440CB01E9FB2B94239D884EDC4
:100EE0003A9B84ED3C8B0020A4F8F86083B29942D1
:100EF00000F1010000F28B800027B84604F1FC0AE3
:100F000004F5907905EB070B09EB070044225946DD
:100F10001BF084F9DBF8003008F101084AF8043BC3
:100F20001FFA88F39E4207F14407EBD8731E9BB269
:100F3000002E03F1010314BF1A460122C4F8749273
:100F400004F5B271013A6AD1012384F8503023705C
:100F500046E702EB8709B842D9ED007A4FEA8708E5
:100F600007F1010A1ED908F10408904498ED007AAF
:100F7000B4EEE77AF1EE10FA14D8D4F8C832484843
:100F8000984798ED007AB7EEC77A8DED047BCDF8DF
:100F900008A099ED007AB7EEC77A3B468DED007B4D
:100FA000404A83E70CFB07F805EB080A9AED007A44
:100FB000B4EEE77AF1EE10FA08F14408A84408DA32
:100FC00098ED007AB4EEE77AF1EE10FA03F101033E
:100FD00082D8D4F8C8323448984798ED007AB7EEF2
:100FE000C77A8DED047B9AED007AB7EEC77A8DED66
:100FF000027B99ED007AB7EEC77A3B468DED007B18
:101000004FF48071294A06A82BF06AFA53E702EBE5
:1010100083073F6804EB8303C3F8107166E7D4F8D5
:10102000743291ED006A93ED007AB7EEC66AB7EEBE
:10103000C77A36EE4A6B37EE4A7BB4EEC76BF1EEF9
:1010400010FA48BFC4F8741244317BE74FF0FF3008
:1010500047B0BDEC068BBDE8F08F00BFAFF300805A
:10106000000000000088B3409A9999999999B93F76
:101070000000000000A06E400000F03F0000484269
:1010800000002F43F8AB07343CAC0734C3AC073443
:1010900021AD0734A9AD073406AE07346AAE073474
:1010A000C2AE073431AF07349BAF0734F2AF073419
:1010B0000000F0BF000008400000244030B50546A5
:1010C00014468DB052B9D0F8C8321D489847D5F8AB
:1010D000C8321C48984720460DB030BD93ED042B14
:1010E00093ED021B93ED000B0AAA08A906A800F0D5
:1010F0002FF8DDE90823CDE90223DDE90A23CDE954
:101100000423012398420446CDE90033DFD1694628
:101110002846FFF745FB0128044603D0D5F8C8321E
:101120000948D7E795F86030012BD4D12846FFF75E
:1011300022FD01280446CED0D5F8C8320348C9E7BD
:1011400078B00734D9B0073402B1073436B1073468
:10115000B5EEC00BF1EE10FA1FB509D4B5EEC01B09
:10116000F1EE10FA04D4B5EEC02BF1EE10FA0DD565
:101170008DED022B8DED001B53EC102B444827F016
:10118000EFFB4FF0FF3005B05DF804FB9FED327BC5
:10119000B4EEC70BF1EE10FA09DCB4EEC71BF1EEAA
:1011A00010FA04DCB4EEC72BF1EE10FA07DD8DED7A
:1011B000022B8DED001B53EC102B3648DFE728B1D6
:1011C00089B1B2B93449354B084607E071B13349AA
:1011D0003148002A304A314B18BF13460246304886
:1011E00027F0BEFBCDE72C492C48F2E72B490846F7
:1011F000EFE79FED1B7B9FED1C6B21EE077BB3EEB2
:10120000005BA0EE067B9FED1A6BA2EE057BA7EEBE
:10121000065B9FED197B80ED005B27EE417BBBEE0B
:101220000A5BA0EE057B9FED165BA2EE057B27EE29
:10123000067B81ED007B9FED147B27EE411BB2EE18
:10124000047BA0EE051BA2EE471B21EE061B01202E
:1012500082ED001B97E700BF0000000000E06F4038
:101260000000000000A06340000000000080474034
:10127000000000000000703F0000000000805540AA
:101280000000000000005C400000000000805940A9
:101290006BB10734A9B10734613C06345F3C0634B6
:1012A000E9B10734000000002DE9F0419846436D94
:1012B0000F460646069923B9C8F800700A60BDE8D3
:1012C000F081214D5B00B5FBF3F59542F4D2B2FB02
:1012D000F5F407EE902A04FB0554B8EE677A07EEA2
:1012E000904ADFED1A6AF8EE677A67EEA67AB4EEF6
:1012F000E77AF1EE10FADFD5621B0A60013207EEE1
:10130000902AF8EE677A87EE270AB7EEC00A29F02E
:101310007BFD9FED0B7B20EE070BBCEEC00B10EEB0
:10132000103A3B441F46C8F80030F36CBB4294BFF0
:10133000C8F80030C8F80070C1E700BFAFF3008004
:10134000000000000088D34040420F003333733F59
:1013500007EE901A9FED287AF8EE677A70B587EE5F
:10136000871A2DED028B08EE102AB7EEC11AB2EEE5
:10137000040B05461C46069E29F02EFEB8EE488B4F
:1013800028EE000BFCEEC07B17EE902A696CB8EEDD
:10139000677A914216D900232360C6ED007A6B6C00
:1013A000DFED166A07EE903AF8EE677A67EEA67AF6
:1013B000B4EE677AF1EE10FAC8BF1A463260BDEC9F
:1013C000028B70BD07EE901AF8EE677A87EE270A57
:1013D0003160B7EEC00A29F017FD9FED057B20EEC6
:1013E000070BBCEEC00B84ED000AE8E7AFF300800A
:1013F000000000000088D34000409C4648E17A3F4E
:1014000010B5044690B060B10023074C4021237012
:10141000A065064B6846064A2BF062F86846A36D45
:101420009847204610B010BDF0BB073476B30734A0
:1014300033B20734002814BF01204FF0FF3070474B
:1014400038220A23C0E9042364222D237821C0E92D
:10145000062340F2DC5330B5C0E9081341F2707442
:1014600042F6E063C0E90A430BA5D5E90045052330
:1014700048F2E80103650023C0E910310121C0E909
:101480000C4507A5D5E90045C0E91212C0E90E4593
:10149000436530BDAFF3008000000040E17A943F27
:1014A000000000E04D62703F10B5044620B1FFF728
:1014B000C7FF0120207010BD4FF0FF30FBE72DE982
:1014C000F04F15469B46044687B0002800F0238164
:1014D0000378012B1AD102230370D4F85480B8F199
:1014E000000F17D0904B4FEA4802B3FBF2F3A66C03
:1014F0008E4211D2626CAA420ED9B5FBF3F203FB05
:1015000012534BB1C4E90156012006E1022BE4D08D
:10151000002002E10123EAE70DF114092A4604AB99
:101520002046CDF800900391FFF712FFDDE9047229
:10153000D4F810C0B6EE005B07EE90CAB8EE676A4A
:1015400007EE90BAB8EEE77BB7EEC66A37EE057BDA
:1015500086EE070B236DB7EEC00B9B45039948D26F
:10156000F0EE007AB4EEE70AF1EE10FA41D4616CC5
:10157000B7EE007A8A4220D2012A134638BF0123EF
:1015800007EE903AF8EEE77A67EE807AFDEEE77ABA
:1015900017EE903A8B42C1BF07EE901AB8EEE76A99
:1015A00007EE902AF8EE676AC3BFC6EE267A0B46AE
:1015B00080EE270AB0EE470A6360B4EEC70AF1EE88
:1015C00010FAA1DDB7EEC00A29F01EFCB3EE047BD1
:1015D00020EE070B9FED527B20EE070BBDEEC00BFC
:1015E00010EE103AE26C3B449342D4BFA360A26079
:1015F0008AE7ACEB0B0383EAE37EAEEBE37E039377
:10160000E3699E4559D8D4F824E00398A36943437D
:10161000606900EB0C0ADA45DFF814A155D207EE39
:1016200090EA9FED427AF8EEE77A67EE877A07EE66
:10163000103AF1EE676AB8EEC77AB4EEE67AF1EEE8
:1016400010FA04D5FDEEE77A17EE903A5B42002BD4
:1016500050D0BE4244D1616C8A4201D3002B3FDAA4
:10166000039807EE902A02FB000006EE900A002B7A
:10167000B8EEE77BB8EEE66B2FDA94ED0E5BA5EEE5
:10168000067BBDEEC77B17EE102A236CA7609A423B
:10169000B8BF1A468A42D4BF626061602046CDF866
:1016A000009004ABD4E90121FFF7FEFD049B059DEA
:1016B000A3606560CAF8608026E7236A9E452CBF58
:1016C000D4F82CE0D4F828E09FE7ACEB000CDC4524
:1016D00010DD7345A8BF7346B9E794ED0C5BCEE708
:1016E0001F44BE4203DCE66CBE42A8BF3E46C4E9CE
:1016F0000126D3E7DAF8603098450AD02A4620461A
:10170000CDF8009004ABB8F1000FCDD1FFF720FE6B
:10171000CCE7A160CDE74FF0FF3007B0BDE8F08F18
:101720000000000000408F4040420F009A99593F4E
:10173000F0BB073481F0004102E000BF83F00043BA
:1017400030B54FEA41044FEA430594EA050F08BF5C
:1017500090EA020F1FBF54EA000C55EA020C7FEA20
:10176000645C7FEA655C00F0E2804FEA5454D4EB9D
:101770005555B8BF6D420CDD2C4480EA020281EA67
:10178000030382EA000083EA010180EA020281EA9F
:101790000303362D88BF30BD11F0004F4FEA0131F1
:1017A0004FF4801C4CEA113102D0404261EB410100
:1017B00013F0004F4FEA03334CEA133302D0524286
:1017C00063EB430394EA050F00F0A780A4F1010442
:1017D000D5F1200E0DDB02FA0EFC22FA05F280187C
:1017E00041F1000103FA0EF2801843FA05F3594162
:1017F0000EE0A5F120050EF1200E012A03FA0EFCE1
:1018000028BF4CF0020C43FA05F3C01851EBE3710A
:1018100001F0004507D54FF0000EDCF1000C7EEB27
:1018200000006EEB0101B1F5801F1BD3B1F5001F65
:101830000CD349085FEA30004FEA3C0C04F1010484
:101840004FEA445212F5800F80F09A80BCF1004FAD
:1018500008BF5FEA500C50F1000041EB045141EA2F
:10186000050130BD5FEA4C0C404141EB0101013CF8
:1018700028BFB1F5801FE9D291F0000F04BF0146E7
:101880000020B1FA81F308BF2033A3F10B03B3F1B9
:1018900020020CDA0C3208DD02F1140CC2F10C0249
:1018A00001FA0CF021FA02F10CE002F11402D8BFA7
:1018B000C2F1200C01FA02F120FA0CFCDCBF41EA73
:1018C0000C019040E41AA2BF01EB0451294330BD42
:1018D0006FEA04041F3C1CDA0C340EDC04F114041F
:1018E000C4F1200220FA04F001FA02F340EA0300F6
:1018F00021FA04F345EA030130BDC4F10C04C4F13C
:10190000200220FA02F001FA04F340EA030029461B
:1019100030BD21FA04F0294630BD94F0000F83F465
:10192000801306BF81F480110134013D4EE77FEA48
:10193000645C18BF7FEA655C29D094EA050F08BF94
:1019400090EA020F05D054EA000C04BF1946104675
:1019500030BD91EA030F1EBF0021002030BD5FEAB9
:10196000545C05D14000494128BF41F0004130BDE1
:1019700014F580043CBF01F5801130BD01F0004535
:1019800045F0FE4141F470014FF0000030BD7FEAA8
:10199000645C1ABF194610467FEA655C1CBF0B46A3
:1019A000024650EA013406BF52EA033591EA030FBA
:1019B00041F4002130BD00BF90F0000F04BF0021B2
:1019C000704730B54FF4806404F132044FF00005E5
:1019D0004FF0000150E700BF90F0000F04BF00215E
:1019E000704730B54FF4806404F1320410F00045C4
:1019F00048BF40424FF000013EE700BF42004FEABF
:101A0000E2014FEA31014FEA02701FBF12F07F433B
:101A100093F07F4F81F06051704732F07F4208BFF2
:101A2000704793F07F4F04BF41F40021704730B5F9
:101A30004FF4607401F0004521F000411CE700BF45
:101A400050EA010208BF704730B54FF000050AE0C8
:101A500050EA010208BF704730B511F0004502D5C9
:101A6000404261EB41014FF4806404F132045FEACB
:101A7000915C3FF4D8AE4FF003025FEADC0C18BF74
:101A800003325FEADC0C18BF033202EBDC02C2F166
:101A9000200300FA03FC20FA02F001FA03FE40EAF8
:101AA0000E0021FA02F11444BDE600BF80F00040B0
:101AB00002E000BF81F0004142001FBF5FEA410326
:101AC00092EA030F7FEA226C7FEA236C6AD04FEA26
:101AD0001262D2EB1363C1BFD2184140484041406B
:101AE000B8BF5B42192B88BF704710F0004F40F41D
:101AF000000020F07F4018BF404211F0004F41F439
:101B0000000121F07F4118BF494292EA030F3FD004
:101B1000A2F1010241FA03FC10EB0C00C3F1200317
:101B200001FA03F100F0004302D5494260EB4000A6
:101B3000B0F5000F13D3B0F1807F06D340084FEA11
:101B4000310102F10102FE2A51D2B1F1004F40EB06
:101B5000C25008BF20F0010040EA0300704749006E
:101B600040EB0000013A28BFB0F5000FEDD2B0FA0B
:101B700080FCACF1080CB2EB0C0200FA0CF0AABF2E
:101B800000EBC25052421843BCBFD04018437047CC
:101B900092F0000F81F4000106BF80F400000132D2
:101BA000013BB5E74FEA41037FEA226C18BF7FEAA9
:101BB000236C21D092EA030F04D092F0000F08BFEB
:101BC0000846704790EA010F1CBF0020704712F0D2
:101BD0007F4F04D1400028BF40F00040704712F111
:101BE00000723CBF00F50000704700F0004343F076
:101BF000FE4040F4000070477FEA226216BF0846AC
:101C00007FEA23630146420206BF5FEA412390EA6E
:101C1000010F40F4800070474FF0000304E000BF64
:101C200010F0004348BF40425FEA000C08BF704715
:101C300043F0964301464FF000001CE050EA0102D9
:101C400008BF70474FF000030AE000BF50EA0102EE
:101C500008BF704711F0004302D5404261EB4101DB
:101C60005FEA010C02BF84460146002043F0B64300
:101C700008BFA3F18053A3F50003BCFA8CF2083A25
:101C8000A3EBC25310DB01FA02FC634400FA02FC2E
:101C9000C2F12002BCF1004F20FA02F243EB020035
:101CA00008BF20F00100704702F1200201FA02FC97
:101CB000C2F1200250EA4C0021FA02F243EB02008A
:101CC00008BF20EADC7070477BB972B90029BEBF3B
:101CD00000204FF0004106E008BF00281CBF6FF055
:101CE00000414FF0FF3000F0C9B9ADF1080C6DE9CB
:101CF00004CE002909DB002B1ADB00F04DF8DDF8DB
:101D000004E0DDE9022304B07047404261EB410189
:101D1000002B1BDB00F040F8DDF804E0DDE90223D6
:101D200004B0404261EB4101524263EB4303704710
:101D3000524263EB430300F02FF8DDF804E0DDE9E5
:101D4000022304B0404261EB41017047524263EB11
:101D5000430300F021F8DDF804E0DDE9022304B0DC
:101D6000524263EB4303704753B94AB9002908BF95
:101D700000281CBF4FF0FF314FF0FF3000F07EB95C
:101D8000ADF1080C6DE904CE00F006F8DDF804E0D2
:101D9000DDE9022304B070472DE9F04F099D0C46A0
:101DA000002B4DD18A420F4684469646B2FA82F302
:101DB00060D94BB102FA03FEC3F120029F4000FA42
:101DC00003FC20FA02F217434FEA1E461FFA8EF474
:101DD0004FEA1C42B7FBF6F106FB117701FB04F05A
:101DE00042EA0742904208D91EEB020201F1FF3796
:101DF00002D2904200F22D813946121A1FFA8CFC51
:101E0000B2FBF6F006FB102200FB04F44CEA024C95
:101E1000644508D91EEB0C0C00F1FF3202D2644578
:101E200000F21A81104640EA0140ACEB040C00219C
:101E300025B12CFA03F30022C5E90032BDE8F08F8A
:101E40008B4205D90DB1C5E9000100210846F5E72F
:101E5000B3FA83F100294DD1A342C0F0F280904241
:101E600080F0EF80064623460846002DE6D0C5E9FF
:101E70000063E3E7002B40F0A2808A1A4FEA1E4776
:101E80001FFA8EF60121B2FBF7F407FB14204FEA8C
:101E90001C4242EA004206FB04F090420FD91EEBBE
:101EA000020204F1FF382CBF4FF001094FF0000986
:101EB000904203D9B9F1000F00F0C8804446121ACD
:101EC0001FFA8CFCB2FBF7F007FB102200FB06F6B2
:101ED0004CEA024C664508D91EEB0C0C00F1FF32AF
:101EE00002D2664500F2BB801046ACEB060C40EA1D
:101EF00004409DE7C1F120068B4004FA01FE22FA5E
:101F000006F720FA06FCF4408A401F434EEA0C0311
:101F100000FA01FE4FEA17484FEA13491FFA87FCFF
:101F2000B4FBF8F008FB104449EA044400FB0CF948
:101F3000A1450ED93C1900F1FF3A2CBF4FF0010B1F
:101F40004FF0000BA14503D9BBF1000F00F09380C7
:101F50005046A4EB09041FFA83F9B4FBF8F308FB1D
:101F6000134403FB0CFC49EA0444A44506D93C197C
:101F700003F1FF3801D2A4457AD8434643EA004032
:101F8000A4EB0C04A0FB02984445CC46434602D384
:101F900006D1CE4504D20138B9EB020C68EB070339
:101FA0005DB1BEEB0C0264EB030404FA06F622FA00
:101FB00001F3CC401E43C5E9006400213EE702FA6C
:101FC00003FEC3F1200104FA03F200FA03FCCC4043
:101FD0004FEA1E4720FA01F11FFA8EF6B4FBF7F024
:101FE0000A4307FB1044110C41EA044100FB06F4CC
:101FF0008C420ED91EEB010100F1FF382CBF4FF0CF
:1020000001094FF000098C4202D9B9F1000F2CD020
:102010004046091B92B2B1FBF7F407FB141142EAE8
:10202000014204FB06F1914207D91EEB020204F1C2
:10203000FF3801D2914215D84446521A44EA004171
:1020400021E7861A64EB030301200EE7023C724489
:1020500035E702397244D0E6F4440238E3E6F4444A
:10206000023842E7023C7244E7E702387144D0E7A5
:10207000023B3C4482E702383C446AE7704700BFB9
:10208000044B82B0C3F84C0AD3F84C320193019B45
:1020900002B0704700800256044B82B0C3F8600A59
:1020A000D3F860320193019B02B070470080025662
:1020B00030B5ADF51B7D40220021684626F0EAFDD3
:1020C0009822002110A826F0E5FD4FF4C8720021E7
:1020D00036A826F0DFFD01200FF03AFF012002F0C4
:1020E0001DF800231922CDE91D3208220225CDE971
:1020F0002323CDE92932E12201247D21CDE91A53A0
:10210000CDE92153CDE92B321093032310A8CDE95B
:102110001F44CDE92514CDE92745CDE92D451C9572
:102120002F9307F037F800B1FEE74FF440337F22DA
:10213000CDE900234FF0407302934FF08053CDE977
:102140000C344FF00053CDE90E344FF48013CDE939
:102150000804CDE90A05CDE90330CDE90500079073
:10216000684607F019FC00B1FEE7084B00226193B6
:102170004FF44003CDE93623054B36A8629307F0B0
:10218000D3FF00B1FEE70DF51B7D30BD1400000349
:10219000140400032DE9F0479AB002F029FB02ABCA
:1021A000014601AA4FF0FF3002F02AFB0024DDE9CE
:1021B000011220B2013402F08FFAC32CF7D1FFF7DD
:1021C00077FF19F0A9FD10239C4C0226C4F86C3A45
:1021D000D4F86C224FF001080492049AC4F85C3AD7
:1021E000D4F85C3296480393039B6023159307232E
:1021F00015A91993CDE91668189605F00DFB4FF453
:10220000E133904890494FF00C09C0E900130023D6
:10221000C0E90439C0E9023383614FF40043C3616C
:102220000DF094FF054600B1FEE74FF00040DFF8E7
:1022300050A2FFF731FFC4F8200ACAF82002404636
:10224000FFF71EFF3046FFF71BFF0420FFF718FFC4
:102250000820FFF715FF4FF48053C4F8543AD4F820
:10226000543215A80593059B784BCDE91655159367
:1022700006F030FC764B15A8159306F02BFC754B39
:1022800015A8159306F026FC734B15A8159306F0B8
:1022900021FC01F013FC3046FFF7FEFEC4F8206A73
:1022A000CAF8206212F0CEF912F0D6F9284610F0E2
:1022B000B1FB284610F0D2FC40F2011369462846D3
:1022C000ADF8003010F060FA284610F0CBF928463F
:1022D0000FF07CFE30B140F26D11604B604A6148F6
:1022E00025F0C2FB40460FF071FE074620B14FF4C7
:1022F000B8715A4B5A4AF2E74FF400730325C4F8F9
:10230000583AD4F858324046149315A9149B1596A0
:10231000169506F007FB15A9082006F003FB15A982
:10232000092006F0FFFA484615A906F0FBFA15A9A0
:10233000042006F0F7FA29464B4806F047FB2946E9
:102340004A4806F043FB2946494806F03FFB294628
:10235000484806F03BFB2946474806F037FB29462C
:10236000464806F033FB4FF48063C4F8583AD4F87B
:1023700058221592159AC4F8183ACAF818324FF034
:10238000FF33C4F8843AD4F884221392139AC4F821
:102390008C3AD4F88C221292129AC4F8903AD4F85B
:1023A00090221192119AC4F8943AD4F8942210927F
:1023B000109AC4F8983AD4F898220F920F9AC4F859
:1023C0009C3AD4F89C220E920E9AC4F8A03AD4F803
:1023D000A0220D920D9AC4F8A43AD4F8A4220C922B
:1023E0000C9AC4F8A83AD4F8A8220B920B9AC4F815
:1023F000AC3AD4F8AC220A920A9AC4F8B43AD4F8A7
:10240000B4220992099AC4F8B83AD4F8B8220892CA
:10241000089AC4F8BC3AD4F8BC220792079AC4F8C8
:10242000883AD4F888320693069B00F015FE3846A9
:1024300018F056FC1AB0BDE8F08700BF00800256C5
:1024400000100256B4CC0734001000520031025282
:1024500080310252003202528032025292D1023452
:10246000F2D10234A8D102340A0000300500003055
:102470001C0000201D00002001000030180000108A
:1024800000900256484A70B513688AB043F400536E
:102490001360464B1A6A22F440321A621A6A22F01A
:1024A00040721A6202F057F84FF4806305A8ADF845
:1024B000143002F001FA3E4B002207933D4B06A870
:1024C000089301238DF81A20ADF81830099302F013
:1024D000EDF9042002F0D8F9374B5A6912F40032B2
:1024E00011D1BFF34F8FBFF36F8FC3F85022BFF3EB
:1024F0004F8FBFF36F8F5A6942F400325A61BFF3B6
:102500004F8FBFF36F8F284A136843F480531360D3
:10251000A2F57342536913F4803328D1C2F8843092
:10252000BFF34F8F43F6E074D2F88030C3F3C90095
:10253000C3F34E335B0100F1010E01464EF001E0A2
:1025400003EA040646EA8175C2F8605201390FF0C9
:1025500007C8203B13F1200FEDD1BFF34F8F536914
:1025600043F480335361BFF34F8FBFF36F8F134B2F
:102570004FF480620293124B1249019301231248D7
:102580000093002318F060FB30B940F23D110F4B6F
:102590000F4A104825F068FA18F0FCFB4FF4A071C0
:1025A0000D4B0B4AF5E700BF00E001E0008002564A
:1025B00000001B34E3801F3400ED00E054CC0734EE
:1025C00054BC0734B3D1023495210034B8D102345D
:1025D00002D20234A8D1023474320634FEE700B5C8
:1025E000E5B04FF4C8720021684626F053FB002383
:1025F0001022CDE900234FF400134FF080513293A5
:1026000003236846CDE9221307F08EFD48B9002365
:102610000822CDE90023282324906846259307F05B
:1026200083FD65B05DF804FB07B5194B02689A425B
:1026300006D040F2A711174B174A184825F014FA94
:102640004FF48022164BC3F85C2AD3F85C32019316
:10265000019B06F0ADFB134AD36B5B03FCD506F080
:1026600087FB4FF08060FFF717FD0F4B4FF00060C6
:102670001A6822F070021A601A6842F020021A608A
:10268000FFF70AFDB12003B05DF804EB02F082B859
:1026900000000458C4D10234E2D10234A8D102347B
:1026A000008002560048025600FC035808B54FF45B
:1026B0008060FFF7E5FC4FF08040FFF7EDFC044B36
:1026C000C3F8200A03F58053C3F8200208BD00BFF9
:1026D0000080025600BEFEE70120024B18600FF09A
:1026E00055BC00BFD02E083410B5494204460068DE
:1026F00017F0F8FF70B1D4F8B43004EB8302D2F8CD
:10270000AC00D4F8A820013393FBF2F102FB1133A3
:10271000C4F8B43010BD000010B5094C4FF0FF31C3
:10272000206817F0DFFF012806D040F2BD21054BDD
:10273000054A064825F098F901F01EFBEEE700BFB8
:10274000A4CD073410D20234D1D402341ED20234C4
:1027500070B51A4E04460D4630684FF0FF3117F041
:10276000C1FF012805D0DC21154B164A164825F07B
:102770007BF9D4E90201281841EBE5712560656811
:10278000C4E9020101356560FFF758FA07EE905A77
:1027900006EE900AF8EEE77A002386EEA77A1A464C
:1027A00084ED047A1946306817F090FD012803D0B3
:1027B000E421034B034AD9E770BD00BFD05C0C3461
:1027C00010D2023492D402341ED202342DE9F047E2
:1027D0008AB00E4604469246994601F0DFFA6FF041
:1027E0002802134D2B8802FB030801F0D7FA074695
:1027F00001F0E8FA94ED047AB7EEC77A8DED087B24
:1028000022680346CDE905A20A4A31460492129A8B
:10281000284601320392084A02926A8809FB02F2B2
:10282000CDE900823A4600F0F7FF0AB0BDE8F08734
:10283000DC5C0C344D30063428D202340022024BCA
:1028400001201A600FF0B2BBD02E083408B5064B39
:102850001A6832B940F2D121044B054A054825F0E7
:1028600003F900221A6008BDCC2E083443D202348A
:102870004DD402341ED2023410B54FF0FF3104465D
:10288000406D17F02FFF012806D040F22F110A4BA0
:102890000A4A0B4825F0E8F8D4F8B83004EB830274
:1028A000D2F8AC00D4F8A820013393FBF2F102FB7C
:1028B0001133C4F8B83010BD10D20234B2D402348F
:1028C0001ED2023438B50D4602210446021D0846C8
:1028D00017F0DCFC206050B10021022004F1580206
:1028E00017F0D4FC606528B9206817F0FBFF4FF0A3
:1028F000FF300DE00223C4F8A8302B684BB1C4F8B8
:10290000AC306B682BB10020C4E92D00C4F8B030A6
:1029100038BD4FF48271024B024A034825F0A4F8F7
:1029200051D2023441D402341ED20234002313B5F2
:102930000446019319F022FB0346B0B1606D01A972
:1029400017F0E4FD012806D04FF49F710D4B0E4A9D
:102950000E4825F089F8019B2BB14FF0E0234FF092
:102960008052C3F8042D02B010BD02460146606DCE
:1029700017F0ACFC0128F6D04FF4A171014B024ACC
:10298000E6E700BF10D2023463D402341ED2023410
:10299000036870B5002BBCBF002303600B680546BD
:1029A000002BBCBF00230B6006680C4601F0F6F953
:1029B000864203DB01F0F2F901382860256801F056
:1029C00001FA854203DB01F0FDF90138206070BD9A
:1029D00008B500231A46194617F078FC012806D0DE
:1029E0004FF49371024B034A034825F03DF808BDAC
:1029F00010D2023482D402341ED202342DE9F84FB0
:102A000001F08AF9044601F083F9D4E90223A3F521
:102A1000B753183B9342D0E9025606D040F27F11DB
:102A20003C4B3D4A3D4825F01FF801F075FB002165
:102A30003B48FFF759FE20B940F28511394B364A21
:102A4000F0E7002101F084F9DFF8D480364FDFF899
:102A5000F490761B01F060FB4046FFF70DFF8346C4
:102A600020B940F29111314B2B4ADBE70121384666
:102A7000FFF73AFE824620B940F293112C4B264ACA
:102A8000D0E701F049FB044601F046FB324605461B
:102A90005946002001F0B0F80AF01F0E0EF5B75E9F
:102AA00053460EF1180EBFF34F8F0EF1FF3E4FEA63
:102AB0005E1E0EF1010E4EF001E0C9F85C322033CB
:102AC0000FF005C8BFF34F8FBFF36F8F41F2F8626D
:102AD0005146002001F0AAF820B140F29D11154B9B
:102AE0000D4A9FE7144811F007F801F015FB411B50
:102AF0001248FFF72DFED8F80000FFF769FF3846AF
:102B0000FFF714FF01F008FB011B0D48FFF720FE43
:102B1000A0E700BF5CD2023474D402341ED2023467
:102B2000A0590C347DD20234E02A0C3489D202340C
:102B300098D20234A6D202348CB30734085C0C3429
:102B4000F05B0C3400ED00E02DE9F04F2DED088B2B
:102B5000CFB016A812F07EF89FED57AA9FED549BB8
:102B60005648FFF789FE044630B940F2A121544B84
:102B7000544A554824F078FF01F0CEFA079001F04E
:102B8000CBFA002305461493012116AB14AA0FA813
:102B90000F9412F079F8064620B140F2A9214B4B70
:102BA000484AE6E701F0B8FA494C411B04F1200716
:102BB000484804F13805FFF7CBFD0FCF0FC597E864
:102BC000030085E8030001F0FBFA0546C4E90806A6
:102BD00018F0D8FD2D1A63EB0303C4E90A5301F082
:102BE0009BFAA36C226E20639B1AB3F57A7F0DD2F9
:102BF000394BD3F80080394BB8F1000F0ED1C3F830
:102C000000802E4B1868FFF7E3FEA9E7902204F13D
:102C1000380104F1500026F023F8E9E71B68002B87
:102C200032D02F4B1D68003D18BF01254FF46112B3
:102C30002C4B2D4C1B6820AF02FB034401F06CFAB7
:102C4000DFF8BCC00890BCE80F000FC7BCE80F005D
:102C50000FC79CE8030087E8030001F0B3F8DFF832
:102C60009C90224FB9F802304FF0FF3190FBF3FAFD
:102C70003868AAF10403099317F034FD012805D040
:102C8000EC211B4B1B4A74E70125CFE790221A4920
:102C90002AA819F0C3FA002338681A46194617F013
:102CA00015FB012800F0C380F121114B114A60E7A8
:102CB00000000000000059400000C842E02A0C3427
:102CC00098D20234C3D402341ED20234C5D20234A4
:102CD000105B0C34385C0C34D02E083450CD0734E3
:102CE000C82E0834BCB3073400980491D05C0C346F
:102CF00010D20234A3D40234F05B0C34D45C0C3414
:102D000020C902341823149F03FB0677D7ED00AACD
:102D100097ED018A01F042F808EE900A01F052F8AE
:102D200007EE900AF8EEE77A67EE887AF8EEE88A1E
:102D3000FDEEE77A97ED02BA17EE90BA68EEAA8A2E
:102D4000D7ED03AA01F02AF808EE100A01F03AF8CC
:102D5000B8EEC88A07EE900A28EE0B8AF8EEE77AFA
:102D6000BDEEC87AFDEEE88A67EEAA7A17EE103A51
:102D700018EE902AFDEEE77A013303EBD3735B1074
:102D80005B429A18109217EE902A013202EBD2722F
:102D90005210524202EB0B01119118EE901AABEB5C
:102DA0000202CB1A10A811A912931392FFF7F0FD9B
:102DB00013A912A8FFF7ECFDDDE9102B129B97ED8C
:102DC000048A9B1A1BB20A93139B0D92A3EB0B036D
:102DD0001BB20C9300F0E2FF0B9000F0F3FF0D9A92
:102DE0000C9B17B24FF0FF3202930A9B0FFA8BFB3A
:102DF0000B99CDE900B303923B460246204600F012
:102E000051FC00F0CBFF0A9000F0DCFF28EE0A7ABC
:102E1000B7EEC77A7B4A0346CDE901B28DED047B5C
:102E2000214648460A9A009700F0F6FC0136159BA9
:102E30009E42FFF667AF309E00F0B0FF814600F083
:102E4000C1FF07EE906AB8EE677B8DED047B10261C
:102E50006D4A6E4F02927A88099903464A4301925D
:102E60004A46DFF8F09138462146009600F0D4FC3F
:102E7000D9E91C32D9E91601C01A61EB0201FEF74B
:102E8000DFFDD9E91A3241EC180BD9E91401C01A57
:102E900061EB0201FEF7D4FD28EE098B41EC160B25
:102EA00088EE067BB7EEC78B00F078FF814600F016
:102EB00089FFB7EEC88A8DED048B554AAAF1030A43
:102EC00002927A8821460AFB02F20346CDE90062AB
:102ED00038464A4600F0A0FC159B092B28BF092361
:102EE0001F4600F05BFF814600F06CFF4021CDE9FA
:102EF0000266CDE900114EAB03EB8703024649465B
:102F0000204653F8B83C00F07BFC00200FF0E8F8B6
:102F100001284049404A06D10B6823B91368B3FA27
:102F200083F35B091360136808605BB30027042612
:102F300001232146394A2AA80097FFF747FC0223BC
:102F40002146374A30A80096FFF740FC032321466C
:102F5000344A36A80097FFF739FC33462146324AF7
:102F60003CA80096FFF732FC052321462F4A42A8D1
:102F70000096FFF72BFC062321462D4A009648A811
:102F8000FFF724FC01F0C8F8089BC11A2948FFF795
:102F9000DFFB01F0C1F82B4606464FF47F32204696
:102FA000254900F0E7FC041E244D06DD244B1B6878
:102FB00013B301234FF0FF342B6001F0ADF8811BF8
:102FC0002048FFF7C5FB002C09DD01231C4E2146DC
:102FD0001D48336023F04EFD08B100233360002309
:102FE0002B601A4BC3F8008001F096F8079BC11ABA
:102FF0001748FFF7ADFB04E622460F49124819F0C7
:103000000DF9DAE7E7D20234F0D20234D45C0C34A2
:1030100007D302344CCD073448CD07341FD30234D4
:1030200031D302343FD3023451D302345FD302345C
:103030006DD30234505C0C3400001B34C82E0834AD
:10304000CC2E0834685C0C34E02E083450CD0734A4
:10305000205C0C34105B0C3470B5002492B0182244
:1030600000210CA825F016FE7848CDE909440B9400
:1030700025F0DEFC764A2146D2F8FC30204643F0AB
:103080008073C2F8FC300EF0CDFF014630B140F243
:10309000E521704B704A714824F0E6FCE02270484C
:1030A000704C25F0F7FD94E8030005AB83E80300BE
:1030B00019466D48FFF706FC20B140F2EB216B4B3F
:1030C000654AE8E707ABD4E9020183E80300194643
:1030D0006748FFF7F7FB20B140F2ED21634B5E4AF2
:1030E000D9E76449644800F00DFA20B140F2F121BB
:1030F0005E4B594ACFE76149614800F003FA044644
:1031000020B140F2F321594B534AC4E701255D4BEE
:103110001E26C3F8785AD3F878320493049B0DF036
:1031200005F900F0D9FE00F039FE099000F04AFEE2
:103130000A9009A80B9600F09FFB00F02FFE0C9060
:1031400000F040FE0523504ACDE90F354F4BCDE945
:103150000D0613604E4B0CA953604E4B4E489360C6
:1031600023F0F0FB214628464C4A17F08FF84C4BD1
:10317000186020B940F20F314A4B374A8BE721469D
:103180002846494A17F082F8484B186020B940F2A7
:103190001131474B304A7EE72846464917F038F947
:1031A000454B186020B940F21331444B2A4A72E76C
:1031B0002846434917F02CF9424B186020B940F2D9
:1031C0001531414B244A66E72146404800F0ACFDEA
:1031D0003F4B4FF4006202933E4B3F4901931D2346
:1031E0003E480093234617F02FFD20B940F21D31D1
:1031F0003B4B194A4FE73B4B4FF4006202933A4B6B
:103200003A4901931A233A480093002317F01CFD12
:1032100020B94FF44871324B0F4A3CE7354B4FF41D
:1032200000620293344B354901931E2334480093C6
:10323000002317F009FD20B940F22331284B064A3C
:1032400029E700200EF0A2FE12B070BD7BD302343D
:1032500000ED00E092D10234E0D402341ED20234F8
:10326000105B0C3448C90234A0590C348CD302349E
:10327000E02A0C34DC5C0C34CCB30734D45C0C3462
:10328000D4B3073400800256D42E0834D926003433
:103290003D2800344D2800340000045854CD073434
:1032A000A4CD073495D30234645A0C34B45A0C3488
:1032B0009DD30234B85A0C34085B0C34A7D30234C3
:1032C000805C0C34D05C0C34B2D30234009804918E
:1032D000682E0834680E0834C1D30234FD29003446
:1032E000B8D10234080E083408EE0734C4D30234CF
:1032F000492B0034A8ED0734A8CD0734C7D30234D6
:103300001927003401282DE9F04105462BD103236C
:10331000DFF8A480214FD8F800603C680136013402
:1033200096FBF3F294FBF3F302EB420203EB43034D
:10333000E41AB61A11F0AEFE4FF46112184B29468A
:1033400002FB0433002203F0E1FC30B14FF4A7711B
:10335000144B154A154824F087FBC8F800603C6000
:103360000020BDE8F0810228FAD100211048FFF7C3
:10337000BBF904460028F3D011F08CFE234600224E
:10338000294603F0C3FC20B140F25D11054B094A08
:10339000E0E70748FFF7CAFAE2E700BF5C5A0C34DF
:1033A00000980491CBD3023427D402341ED20234C5
:1033B000A0590C3408D40234BCB30734012807B533
:1033C00010D100230193094B01A9186817F09EF84A
:1033D000012807D1019B2BB14FF0E0234FF0805221
:1033E000C3F8042D002003B05DF804FBA4CD07341E
:1033F000094B10B54FF0FF310446186817F072F909
:10340000012806D040F23F31044B054A054824F01C
:103410002BFB054B1C6010BD085B0C3410D2023432
:10342000FCD302341ED20234605A0C3408B5002397
:1034300007481A461946006816F048FF012806D0CA
:1034400040F24931034B044A044824F00DFB08BD07
:10345000085B0C3410D20234EED302341ED2023494
:1034600008B5084B4FF0FF31186817F03BF90128F9
:1034700006D040F25131044B044A054824F0F4FAD6
:1034800008BD00BFB45A0C3410D20234E5D3023464
:103490001ED20234002307B501930C4B01A9186812
:1034A00017F034F8012806D040F25A31084B094A87
:1034B000094824F0D9FA019B2BB14FF0E0234FF0DB
:1034C0008052C3F8042D03B05DF804FBB45A0C34E9
:1034D00010D20234D9D302341ED20234014B186800
:1034E00004F060B8605A0C3408B52521024B034A39
:1034F000034824F0B9FA00BF743206343D55053450
:10350000205505342DE9F04F8588C78804464FF4CF
:10351000BE7007FB05F887B000FB08F00E4624F0EC
:10352000DDFA0346706000285AD04FF0000C5F208F
:103530004FF0010B2268358077800192E2880735D1
:103540000292ED104FEA8802049207FB05F2A6886A
:103550000592F41D24F0070EB200E40803920EF168
:10356000FF3E99464FF00008019A02EB0C05029AC3
:10357000904508D3049A01381344059A9444F0D135
:1035800007B0BDE8F08F2978012C0A4604D0022C40
:1035900010D12A8852BA92B20027BE4206F1010128
:1035A00008BF012101390CD1039A08F101089144A7
:1035B0002544DCE76A78090441EA0221AA780A4333
:1035C000EAE7AEEB070A0BFA0AFA1AEA020F14BF8F
:1035D0004FF0FF3A4FF0804A49F827A00137E1E762
:1035E0004FF0FF30CCE70000F0B59DB00D4614461B
:1035F00000216022064604A81F4625F04BFB4FF42D
:103600004033224A02A8CDE902232B1B0593FFF782
:10361000EFFE02A803F024FE28B16E211C4B1D4AC8
:103620001D4824F021FA012102A804F045F818B140
:103630007121174B174AF3E73C2001F0ABF8174B09
:1036400024990A93164B00970B93DDE9222303FB81
:10365000052202A8234606EB820203F08BFE18B176
:1036600078210B4B0B4ADBE7FFF7FAFE3C2001F019
:10367000A5F802A803F05EFF18B17F21044B054AAC
:10368000CEE7FFF7D3FE1DB0F0BD00BF001002581B
:10369000CBD30234515505342055053471380034EC
:1036A000E93400342DE9FF470546DDE90C7ADDE910
:1036B0000E980E461C4652460093CDE90178012330
:1036C000FFF792FF07EB0903013BCDE900435246A8
:1036D000314628460123CDF80880FFF785FF4B4689
:1036E0003146284600940122CDE90178FFF77CFF9E
:1036F0004B460122314628465444013CCDE90D7821
:103700000C9404B0BDE8F047FFF76EBF2DE9F0411F
:103710009CB01D460F4604460021164604A86022B0
:1037200025F0B8FA4FF400332F4A02A8A7EB05089A
:10373000CDE90223CDF81480FFF75AFE02A803F06A
:103740008FFD28B13A21294B294A2A4824F08CF9C7
:10375000FF230121CDE90C80CDE91000CDE915034F
:10376000CDE91300CDE917000E9002A80F9303F0E6
:10377000A3FF014618B14B211C4B1D4AE5E702A8E7
:1037800003F09AFF18B14D21184B194ADDE71A4B87
:103790003C200A93194B0B93DDE9233202FB0733DC
:1037A00004EB830400F0F6FF229B2246CDE9005390
:1037B0003146234602A803F017FE18B154210B4BE3
:1037C0000B4AC2E7FFF74CFE3C2000F0F7FF02A8CF
:1037D00003F0B0FE18B15B21044B054AB5E7FFF7D3
:1037E00025FE1CB0BDE8F08100100258CBD3023496
:1037F0002B5505342055053471380034E934003434
:1038000070B41A46DDE90556DDE90334CDE9045606
:10381000039470BCFFF77ABF00232DE9F04397B003
:103820008DF85430044621AB884691464021209AB9
:1038300005A81E9F049325F071F905AD15F8016BDD
:1038400016B917B0BDE8F08360882388203E03FBDB
:1038500000F2724361681F9E0090CDE9017601EB92
:10386000820240464946FFF751FF23881F44E5E79F
:1038700008B5FFF70FFE08BDF0B507460125332652
:10388000DDB0342200210BA825F004FABB68354CCA
:103890005A1E22613A6821460C927A680BA8CDE93B
:1038A0000D238DF82D508DF82E600F95129518F080
:1038B00061FE28B1D3212C4B2C4A2D4824F0D4F89A
:1038C0006946206819F099FB18B1D721264B274A81
:1038D000F3E70B23694620688DF8103019F0ACFA35
:1038E00018B1DA21204B214AE7E7206827A919F00F
:1038F00078F818B1DE211C4B1C4ADEE7206827A9A6
:10390000299518F06FFE18B1E121174B174AD4E73B
:10391000206818A919F040FA18B1E521124B134A92
:10392000CBE7D7E900314B430C21BA68CDE91855F4
:1039300053434B431E21192593FBF1F30A211A909F
:10394000CDE91B511F90229018A920681D96219245
:103950001E9319F01BF918B1F221034B034AACE78F
:103960005DB0F0BDE85C0C34635505349155053409
:10397000755505342DE9F04F3B4C81469846D4E906
:1039800000030D46174699B0002B6BD1CDE91011FD
:1039900012920CA903AA19F07FFB00285DD1049EA6
:1039A00005EB060C1CF007031DD0C3F1080ABAF1A1
:1039B000060FC3F1100338BF9A46BB1B53454CD3C7
:1039C0000123A8558CF803302C238CF801008CF8C7
:1039D00002008CF80430FF21AAF105020CF1050069
:1039E00025F058F953461E44012363600021D4E9B1
:1039F00002AB3544BF1BCDE90D11CDE9105522694D
:103A0000CDF830901297B8F1000F09D1013250462D
:103A10005946D317FEF7A8F91A4314BF0121002114
:103A200001230F930323ADF854300023CDE9003375
:103A30008DF84C10206803AA0CA9CDE9163319F0B3
:103A400065FC012809D1D4E902320498013342F11E
:103A50000002C4E90232304401E04FF0FF3019B0F7
:103A6000BDE8F08F0026C1E7E85C0C3424F03EB8D6
:103A700008B524F017F830B94FF48D71024B034AA2
:103A8000034823F0F1FF08BD8355053487550534FD
:103A900075550534074830B50368074D5C18AC42CE
:103AA00097BF04604FF0FF300020C2E9003198BF9B
:103AB000936030BDC0B307340058ED911FB5154B6E
:103AC0007C2101AA02A802930BF00AFF0346E0B989
:103AD000019A02F4C031B1F5C03F17D042F4C032B0
:103AE0007C2102A801920BF017FF68B97C2101AA82
:103AF00002A80BF0F5FE30B9019B03F4C033B3F517
:103B0000C03F03D0FEE7FEE7FEE7FEE705B05DF845
:103B100004FB00BF009000567047FEE7FEE7FEE79B
:103B2000FEE708B511F0B6FABDE8084001F06CBC3C
:103B300008B511F0AFFABDE8084001F02FBB22F044
:103B400097BF00000149024810F098BD806D2034F5
:103B5000C067203430B5254CAFB02068D22500F5C1
:103B6000B85100F5B75010F089FDB422002101A82A
:103B700025F090F840F2BE5107222A231E20CDE9FD
:103B80000615CDE90222CDE90D228DF804300A9107
:103B90000123119178224FF45271CDE90403CDE94C
:103BA0000803CDE90F03CDE91212042041F2F862B7
:103BB000CDE9140222680E4D16920E4A01A82192F8
:103BC00010328DF830308DF85C301C938DF88830D1
:103BD00027932C928DF8B4300B9510F005FC2068DB
:103BE00000F5B85110F074FD2FB030BD60120D34E7
:103BF000C0672034B0A9E07040B911F01F0007D1B0
:103C0000B2F5133F06D3044B196070470320704789
:103C1000012070470220704764120D3410B9024B26
:103C2000186870470020704764120D3448B911F0CD
:103C30001F0008D141F2F7639A4206D9044B19607C
:103C4000704703207047012070470220704700BF73
:103C500060120D3410B9024B18687047002070478D
:103C600060120D340022104B13B51A600FF0D6FE0F
:103C70000E490F4810F0FAFC0FF0E8FE42F65653DA
:103C80000B490C4801AA019310F04AFC044640B1CC
:103C9000084810F08FFC084B04491860044810F0E5
:103CA00017FD204602B010BD005D0C3460120D34CB
:103CB000085D0C3450620534045D0C3413B50FF00C
:103CC000ADFE0C490C4810F0D1FC0FF0BFFE0B4BC1
:103CD0000B4800930B4B00221B680749006810F04B
:103CE0007DFC044618B10349034810F0F1FC20465E
:103CF00002B010BD60120D34085D0C34005D0C3450
:103D0000045D0C3464120D3400487047E4610534DE
:103D1000004870477461053400487047DC60053422
:103D200000487047D45A05340A4608B501460120B8
:103D300011F076FA28B1C621024B034A034823F05A
:103D400093FE08BDE8170634E0180634FE17063463
:103D50000A4608B50146022011F062FA28B1CE21C8
:103D6000024B034A034823F07FFE08BDE8170634E0
:103D7000CF180634FE17063408B511F05FFB28B1E2
:103D8000D621034B034A044823F06EFE08BD00BF52
:103D9000E8170634C1180634FE17063408B5054B7B
:103DA000186828B9DB21044B044A054823F05CFE5F
:103DB00008BD00BF70120D340C180634B01806345C
:103DC000FE17063408B5054B186828B9E221044BE4
:103DD000044A054823F048FE08BD00BF6C120D34AC
:103DE000171806349E180634FE17063407EE901A8C
:103DF00070B52DED068B1446F8EEE78A0D460646A3
:103E0000FFF7CCFF07EE900AF8EEE79A07EE904A2C
:103E1000B8EEE78AFFF7D6FF07EE900AF8EEE77AEA
:103E200088EEA9AA88EE279AB4EE49AAF1EE10FA14
:103E3000F7EE007A48BFB0EE4A9AB4EEE79AF1EE98
:103E400010FA05DA50211F4B1F4A204823F00CFEC0
:103E5000DFED1F7AB4EEE79AF1EE10FA03D45121A8
:103E60001C4B194AF1E769EE897AF4EEE78AF1EE24
:103E700010FACCBFFCEEE78AFCEEE88AC6ED008AB9
:103E8000FFF7A0FF07EE900AF8EEE77A67EE897A6F
:103E9000B4EEE78AF1EE10FA18EE903ACCBFBCEE21
:103EA000E78ABCEEC88A0135ED1A18EE103A0134E3
:103EB000E41A6D08640886ED018ABDEC068BB560D6
:103EC000F46070BD231806341E190634FE1706343C
:103ED000000080422E1806342DE9F04395B00DF114
:103EE000070011F0C9F928B1AC21784B784A79481C
:103EF00023F0BAFD9DF80730012B07D0022B10D01C
:103F0000002B3FD04421744B744AF0E74FF42261F8
:103F10004FF4F36202234FF4A0674FF43474184651
:103F200009E04FF448714FF4167201234FF42077E3
:103F30004FF4F0740320DFF8DC81694EC8F80030DC
:103F4000684B694D1F60694B31601C60684B2A608B
:103F500053F82010674824F003FD33681E200393B4
:103F60002B6804930023CDE905030793D8F80030AC
:103F700003A8089311F00CFA044658B1B721534B2B
:103F8000534AB4E74FF48C614FF4347201230F4667
:103F90001446C4E7039B04273360049B2B6011F095
:103FA00079F840F22F210F23CDE90C440224CDE90A
:103FB0000E1309A90546CDE909440B9700F0F0FF5F
:103FC00018B18F214C4B4D4A91E705234FF40C72E9
:103FD000099340F27F230F9009A92846CDE90B747D
:103FE000CDE90D2300F0DCFF054618B19821424BC6
:103FF000424A7CE7FFF7D2FEDDE903890646FFF778
:10400000E1FE864203DA5F213D4B3E4A6FE70996A7
:10401000FFF7D8FE03264A464146CDE90A0410A818
:10402000CDE90D550C970F96FFF7E0FE012002AA8F
:1040300009A911F033F818B16A212F4B314A56E71C
:104040000C9A099B5343029A934203D06B212E4B47
:104050002C4A4CE70125DDE90312E023CDE90B06EC
:10406000CDE90D5010A8CDE909330F96FFF7BEFE3C
:10407000204602AA09A911F011F818B17D211E4BA2
:10408000224A34E70C9A099B5343029A934203D085
:104090007E211D4B1D4A2AE710F0FCFF4FF46042C1
:1040A0002946044602F0C2FE18B1A021124B184A5C
:1040B0001DE72946204602F011FF18B1A2210E4B40
:1040C000134A14E715B0BDE8F08300BFE8170634C3
:1040D0006C190634FE170634743206345A19063445
:1040E00078120D3470120D3474120D346C120D34BC
:1040F000A419063439180634CBD3023448190634CF
:104100004618063431190634601806340C19063482
:10411000F618063468120D3416F094BE08B5EFF3A5
:1041200005832BB12721044B044A054823F09CFC4E
:10413000BDE8084016F0E8BF74320634D3190634DF
:10414000B419063400207047042213B5154B164CE1
:10415000C3F8642AD3F864320193019B134B2360A4
:104160004FF0FF33E36005F0B3FE114BB0FBF3F00B
:1041700000230138606020462361A3600DF0B0FD8C
:1041800028B13E210B4B0C4A0C4823F06DFC204615
:104190000DF0E4FB18B14121064B074AF4E702B0E9
:1041A00010BD00BF008002563C250D3400080050B1
:1041B000A0860100CBD30234C7190634B4190634E3
:1041C000014B1B68586A70473C250D34034B036054
:1041D000034B0B604FF4806313607047DC240D3495
:1041E000DC140D34034B0360034B0B60802313601E
:1041F000704700BF7C140D347C120D34444B454A8B
:1042000070B501209A60022500224349434E01F512
:104210008054C1F8180AC4F81802C4F85802C3F848
:10422000D820C3F8DC20C3F8E020C3F8D800C3F8D6
:10423000DC20C3F8E020C3F8D8500325C3F8DC2005
:10424000C3F8E020C3F8D8500425C3F8DC20C3F835
:10425000E020C3F8D8500525C3F8DC20C3F8E020DF
:10426000C3F8D8500625C3F8DC20C3F8E020C3F813
:10427000D8500725C3F8DC20C3F8E020C3F8D85095
:10428000C3F8DC20C3F8E020C1F8780AD1F878221E
:104290009A683261224AD56B45F48055D563D56B57
:1042A00045F01005D563D26BD1F8742242F4004278
:1042B000C1F87422D1F8782242F01002C1F87822B5
:1042C000D1F87822D1F8782222F01002C1F87822B1
:1042D0004FF44052C1F8202AC4F820224022C1F8ED
:1042E000240AC4F82402C4F86402C4F85C223269C7
:1042F000C4F87802D3F8882042F47002C3F888200A
:10430000084AD2F8883043F47003C2F8883070BD90
:1043100000ED00E0000400340080025600800056EA
:104320000048025600ED02E07A4BF0B51A6A02F43A
:104330004012B2F5001F00F0CF8008D8002A39D013
:10434000B2F5801F3CD00022734B1A60F0BDB2F56D
:10435000401FF8D1D3F8C42002F04052B2F1805F80
:1043600036D0B2F1005F44D0002A52D1D3F8802079
:1043700012F0006502F0E04140F0B780D3F884000D
:10438000D3F88830C2F30B2620F07F400D46B5F1FC
:10439000005FC3F3C264C2F30551C3F3026300F0CC
:1043A000928000F29B80002D47D0B5F1805F7AD0DB
:1043B000002249E09B6C594AC3F3C113DA40C3E7BA
:1043C0005B6C574A13F4007F564B08BF1A46BBE795
:1043D000D3F8902012F0006502F0E04140F08580B3
:1043E000D3F89400C2F30B26D3F8983020F07F4026
:1043F000CCE7D3F8A02012F0006502F0E04174D1C0
:10440000D3F8A400C2F30B26D3F8A83020F07F40E5
:10441000BCE7D3F8B02012F0006502F0E04164D1AF
:10442000D3F8B400C2F30B26D3F8B83020F07F40A5
:10443000ACE70B460C4608460E46364A976C374AA0
:10444000C7F3C117FA402DBB07EE900A07EE106ABA
:10445000FAEEC47AB8EEC77A37EE877A07EE902A7A
:10446000F8EEE77A67EE277A07EE101AB8EEC77A09
:10447000C7EE876A07EE904AB8EEE77A07EE903A01
:10448000F8EEE77A27EE277AC6EE877AFCEEE77A2F
:1044900017EE902A1F4BD3F8C430C3F30743013300
:1044A000B2FBF3F250E700251A4A1E4F526C12F489
:1044B000007F1B4A08BF3A46C5E700231C46184642
:1044C0001E461946F0E70025174ABCE700231C46A4
:1044D00018461E461946F7E7134A35E7B5F1405F1F
:1044E0007FF466AF0025114AADE7B1F1005FEDD072
:1044F00006D800299DD0B1F1805FDED00022C9E747
:10450000B1F1405FFAD100231C4618461E461946F9
:10451000E9E700BF00800256C4B307340090D0031F
:104520000024F40000093D00006CDC020080BB00A8
:104530006DED81CF00B5FFF7F7FE054B5DF804EB9D
:1045400018689FEC100A9FE80E90FDEC81CF74472D
:10455000C4B30734704710B5032000F09FF8FFF78D
:10456000E3FE0F20FFF7EEFD044618B9FFF7F2FF58
:10457000204610BD0124FBE7014B5869704700BF7E
:1045800000900056014B9869704700BF009000569C
:10459000014BD869704700BF0090005638B54B7882
:1045A00005460F2B0C4604D940F2D1212948FEF7CD
:1045B00091F82378012B04D940F2D2212548FEF747
:1045C00089F86378AB602B6923F001032B61637B6F
:1045D000012B04D940F2DB211E48FEF77BF8A37BB8
:1045E000012B04D94FF437711A48FEF773F8237B77
:1045F000032B04D940F2DD211648FEF76BF8E37B6C
:104600009A1E012A05D923B140F2DE211148FEF796
:1046100061F8A378072B04D940F2DF210D48FEF79B
:1046200059F86368627B23F01F031343E27B43EA7C
:10463000C203227B43EA4203EB60A368227823F0A3
:104640001F031343A27B43EA0213A27843EA420307
:104650002B6138BDDD19063438B50B780446072BBD
:104660000D4604D940F2F3210B48FEF733F8FF2141
:104670002B78032B92BF04F1300004F13400043B8B
:104680000268DB00994022EA0102697801FA03F32B
:104690001343036038BD00BFDD190634C31E042B6D
:1046A00010B5044603D9E6210948FEF713F8094975
:1046B0002302CA6803F4E06322F4E0621204120CDD
:1046C000134343F0BF6343F40033CB6010BD00BF1E
:1046D000DD19063400ED00E010F10C0F2DE9F0417A
:1046E00005460C46174601DB031D03D1FF21264872
:1046F000FDF7F0FF254BDE68C6F30226022E06D832
:1047000057B14FF481712048FDF7E4FF04E0012325
:10471000F21E9340BB42F4D90F2CC6F1070804D80F
:10472000012303FA08F3A34204D840F20311164808
:10473000FDF7D0FFB8F1040F06F1040328BF4FF0D6
:1047400004084FF0FF32062BA6F1030698BF00269F
:1047500002FA08F824EA0803B24027EA0207B34045
:10476000002D43EA0703ACBF05F16045084A4FEA54
:104770000313DBB2ABBF05F5614505F00F0585F806
:1047800000335355BDE8F081DD19063400ED00E03B
:1047900014ED00E0002808DB01234109054A00F080
:1047A0001F00834042F82130704740F21511024843
:1047B000FDF790BF00E100E0DD19063400280DDBB5
:1047C00001220949430900F01F008240203341F8CB
:1047D0002320BFF34F8FBFF36F8F70474FF4937158
:1047E0000248FDF777BF00BF00E100E0DD190634A5
:1047F000024BD868C0F30220704700BF00ED00E014
:1048000010F10C0FF8B504460D4617461E4601DBA5
:10481000031D04D14FF4BC711948FDF75BFFEB1E7B
:10482000042B04D940F279111548FDF753FF002CF1
:10483000ACBF04F16044134B05F00701C1F107025E
:10484000ABBF04F5614404F00F0494F800331B5D22
:10485000081D042A28BF04220628A1F103014FF0F5
:10486000FF3098BF00211B0900FA02F223FA01F47D
:10487000884024EA020223EA00033A603360F8BD6C
:10488000DD19063414ED00E0BFF35F8F064B40F0F6
:104890000100C3F894005A6A42F480325A62BFF3AE
:1048A0004F8FBFF36F8F704700ED00E00146014866
:1048B000FFF774BE90ED00E001460148FFF7CCBE63
:1048C00090ED00E0F8B51446036871BBD3F80424FA
:1048D00022F4C01242EAC442C3F80424234B022C3F
:1048E0001A6838D0032C39D0012C3AD142F040025A
:1048F0001A60FFF711FC4FF4003607461B4DA64027
:10490000FFF70AFCC01BB0F57A7F2DD8D5F89030A0
:1049100036EA0303F4D14FF488530020D5F8802001
:10492000A3401343C5F88030F8BD0129D3F804280B
:1049300006D122F4C01242EAC442C3F80428CDE7EB
:10494000520341BFD3F8042C22F4C01242EAC442FD
:10495000C3F8042CC2E742F48062C9E742F4804203
:10496000C6E742F00402C3E70120DDE7006000581B
:10497000012930B54FF00205046810D18571D4F8D3
:1049800000190B43C4F80039C4F8C429D4F8F03333
:1049900043F4060343F02003C4F8F03330BD084469
:1049A0004571D4F8001D0B43C4F8003DC4F8C42D74
:1049B000D4F8F03343F00643ECE770B415461E46D6
:1049C00099B9022301684371D1F800253243C1F837
:1049D0000025C1F8C455D1F8F03370BC43F4064348
:1049E00043F02003C1F8F033704770BCFFF7C0BF3D
:1049F000022383710368D3F8042842F00042C3F80D
:104A00000428D3F8002942F00802C3F800297047AF
:104A100069B90368D3F8042442F00042C3F80424BF
:104A2000D3F8002542F00802C3F800257047012999
:104A300001D1FFF7DDBF0368D3F8042C42F0004238
:104A4000C3F8042CD3F8002D42F00802C3F8002D5F
:104A500070470000184B10B55A69C9B242F4803251
:104A60005A611A6942F001021A615A6942F48032AD
:104A70005A6100221A615A615C695C611C6944F0E8
:104A800001041C611A615C6944F480345C611C6936
:104A900044F001041C615C69044344F480345C61AB
:104AA0001A615A61586901435961196941F001015C
:104AB00019611A6110BD00BF0070005810B504469E
:104AC000D8B103680E4A934208D002F17042934273
:104AD00004D04FF4A7710B48FDF7FCFD237913B9FF
:104AE000204610F0D7FC03230020237101236071BE
:104AF000A071E071A060237110BD0120FCE700BF30
:104B000000200058251A06342DE9F0410546FEB074
:104B10000C464FF4FC726846544917F07FFB1DB9F0
:104B200001207EB0BDE8F081002CF9D02B68504AFE
:104B3000934208D002F17042934204D040F28B219C
:104B40004C48FDF7C7FD2368B3F5807F07D0B3F568
:104B5000007F04D04FF423714648FDF7BBFD636826
:104B6000013B012B04D940F28D214248FDF7B2FDF3
:104B7000A3683E2B04D940F28E213E48FDF7AAFDE2
:104B80003D4B1A6822F001021A60616801291AD1AE
:104B9000226842F404121A671A6842F001021A608D
:104BA000D3F8802042F0B04242F40412C3F88020CF
:104BB0002268B2F5807FD3F8842054D1012908D12E
:104BC00042F01F0207E00229AAD1226842F49012A3
:104BD000E1E742F4F8520026284DC3F884202B6800
:104BE000254F23F002032B607E602B69012043F0E8
:104BF00001032B61FFF792FA2E61D4F80880AB68AD
:104C00005DF8382023F4FE4343EA022343F02803EF
:104C1000AB60382108201602FFF71CFF1121E420A9
:104C2000FFF718FF0DEBC803D3F80480E3204FEA29
:104C3000182146F48036FFF70DFF46F02806E320E2
:104C40005FFA88F1FFF706FFAE6023680020B3F536
:104C5000807F0CBF07230F237B602B6843F0020388
:104C60002B6068605DE742F4F852A9E758C9023446
:104C700000200058251A06340060005800700058C3
:104C800070B50D461446064608B9012070BD002ACD
:104C9000FBD00368524A934208D002F1704293421B
:104CA00004D04FF444714F48FDF714FD022D04D990
:104CB00040F211314B48FDF70DFD236833F44033CA
:104CC00004D040F212314748FDF704FD022D23685D
:104CD0001ED033F4403304D040F216314148FDF782
:104CE000F9FC2368B3F5803F02D0B3F5003F0FD144
:104CF000A368222B0CD0183B152B04D83A4A22FA71
:104D000003F3DA0704D440F21B313648FDF7E2FC26
:104D10002368B3F5403F0FD06368222B0CD0183BBB
:104D2000152B04D8304A22FA03F3DB0704D440F2EF
:104D300021312C48FDF7CEFC3379013B012B2ED8D5
:104D40002268B2F5403F45D0B2F5003F2BD1002D8F
:104D50009BD113466168B2F5803F43EA0103316895
:104D600002D0B2F5003F04D1022D2BD0A26843EA55
:104D70000223EDB931681D4AD1F8040402401A43F8
:104D8000C1F804243368D3F8042122F48042C3F824
:104D90000421D3F8042242F00102C3F804220223C2
:104DA0000020337172E7022D14BF13460023D1E7B0
:104DB000012D07D1D1F804080C4A02401A43C1F86A
:104DC0000428DFE7D1F8042C22F03F021343C1F896
:104DD000043CD7E7002D7FF458AF1346CAE700BF65
:104DE00000200058251A0634C31B3C00C0C0FCFF3D
:104DF000032970B506460D46144604D94FF4727166
:104E00001548FDF767FC062C04D940F2C931124859
:104E1000FDF760FCF6B1032D08D8DFE805F00209C4
:104E20000F150E4B240244F001041C61002070BDDC
:104E30000A4B240244F001041C62F7E7074B2402EA
:104E400044F001041C63F1E7044B240244F0010424
:104E50001C64EBE70120EAE7251A063400600058DD
:104E6000F8B50D461446064608B90120F8BD002ADB
:104E7000FBD00368474A934208D002F17042934244
:104E800004D040F202414448FDF724FC022D04D92D
:104E900040F203414048FDF71DFC2368032B04D971
:104EA00040F204413C48FDF715FCBDB97119487941
:104EB0003379C0B2022BDAB2D7D110F0FB00D4D1D3
:104EC0004A713368276815BBD3F8002522F0030226
:104ED0003A43C3F8002501234B71C7E7A368092BA8
:104EE00004D940F207412C48FDF7F4FB63681A0728
:104EF00002D1B3F5004F04D34FF481612648FDF78A
:104F0000E9FB022DD2D1A368062BCFD9ADE7012D45
:104F1000D4E9014626D1D3F80029204D22F003021E
:104F20003A43C3F80029D3F8C02922F00F023243D4
:104F3000C3F8C029D3F8CC292A402243C3F8CC298E
:104F4000F21F012A06D8D3F8DC292A402243C3F8ED
:104F5000DC29C0E7092EBED1D3F8DC292A4042EA79
:104F60005402F4E7D3F8002D22F003023A43C3F8C9
:104F7000002DD3F8C02D22F00F023243C3F8C02D0C
:104F8000D3F8CC2D22F4FF4222F07F022243C3F853
:104F9000CC2DA0E700200058251A06340080FFFF22
:104FA00070B50C46054608B9012070BD0029FBD03C
:104FB0000B68013B042B04D940F23E415248FDF7F7
:104FC00089FB6369B3F5806F04D340F23F414E48DB
:104FD000FDF780FB2369B3F5806F04D34FF488613C
:104FE0004948FDF777FBE3680F2B04D940F24141B4
:104FF0004548FDF76FFB6368072B04D940F2424137
:105000004148FDF767FBA368042B04D940F24341F4
:105010003D48FDF75FFBA3690F2B04D940F24441E3
:105020003948FDF757FB2B79002BBDD02A68536810
:1050300043F001035360FFF76FF80646FFF76CF883
:10504000801BB0F57A7FAFD82B689A68D207F5D568
:1050500062681A602268013A042A11D8DFE802F077
:10506000031C2A384600D4E9022142EA01221A62CE
:10507000A26912045A62D4E9042142EA01429A6206
:105080005A68002022F001025A60D3F8F02342F05F
:105090002002C3F8F02388E7D4E9022142EA012282
:1050A0001A63A26912045A63D4E9042142EA014254
:1050B0009A63E5E7D4E9022142EA01221A64A2696F
:1050C00012045A64D4E9042142EA01429A64D7E7FF
:1050D000D4E9022142EA01221A65A26912045A6542
:1050E000D4E9042142EA01429A65C9E7D4E90221E0
:1050F00042EA01221A66A26912045A66D4E904211E
:1051000042EA01429A66BBE7251A06342DE9F041CE
:10511000022904460D4616461F46DDF8188004D9BC
:105120004FF4C2611A48FDF7D5FA032E04D940F2B4
:1051300011611748FDF7CEFA38F0040304D040F2AD
:1051400012611348FDF7C6FA1CB901263046BDE8C6
:10515000F0813A07F9D123686219D3F80432527901
:10516000012AF2D1DB07F0D5324629462046FFF767
:10517000A9FB06460028E8D12946204643463A4680
:10518000FFF71BFC29462046FFF742FCDEE700BF85
:10519000251A06347047704770477047036870B52A
:1051A000D3F8F86304467204D3F8F05312D56904B7
:1051B00010D5D3F8F023002122F48042C3F8F02365
:1051C000826842F0040282604FF48042C3F8FC23FC
:1051D000FFF7E1FF72050AD56B0508D54FF4806231
:1051E000236800212046C3F8FC2310F033F9B005F2
:1051F00016D5A90514D52368D3F80025520707D57D
:10520000D3F8F02322F40642C3F8F023012262719E
:105210004FF4007200212046C3F8FC2310F02AF955
:10522000F3050AD5E80508D54FF4807223680021FC
:105230002046C3F8FC23FFF7ADFF310416D52A043E
:1052400014D523680021D3F8F023204622F400422D
:10525000C3F8F023A26842F00802A2604FF40042B3
:10526000C3F8FC2304236371FFF796FFF3030AD509
:10527000E80308D54FF48032236801212046C3F8A3
:10528000FC23FFF787FF71030AD56A0308D54FF4A3
:105290008022236801212046C3F8FC2310F0DAF8AD
:1052A000B30316D5A80314D52368D3F800295107F2
:1052B00007D5D3F8F02322F40602C3F8F023012225
:1052C000A2714FF4003201212046C3F8FC2310F0F4
:1052D000D1F8320216D52B0214D523680121D3F858
:1052E000F023204622F40002C3F8F023A26842F023
:1052F0001002A2604FF40002C3F8FC230423A37140
:10530000FFF74AFFF0010AD5E90108D54FF0807296
:10531000236802212046C3F8FC23FFF73BFF7201FC
:105320000AD56B0108D54FF0806223680221204620
:10533000C3F8FC2310F08EF8B00116D5A90114D5DE
:105340002368D3F8002D520707D5D3F8F02322F0B5
:105350000642C3F8F0230122E2714FF000720221ED
:105360002046C3F8FC2310F085F8002E16DA002D35
:1053700014DA23680221D3F8F023204622F00042F9
:10538000C3F8F023A26842F02002A2604FF000426E
:10539000C3F8FC230423E371FFF7FEFE700614D567
:1053A000690612D523682046D3F8F02322F0400284
:1053B000C3F8F023A26842F00202A2604022C3F8C0
:1053C000FC2304232371FFF7E8FEB20614D5AB06D5
:1053D00012D523682046D3F8F02322F02002C3F828
:1053E000F023A26842F00102A2602022C3F8FC234D
:1053F00004232371FFF7D1FE70BD704770477047DB
:105400007047704770477047B54B2DE9F041D3F8AE
:1054100090600446B202D3F89480D3F88050D3F859
:1054200084700DD5A9020BD5D3F8802022F4001288
:10543000C3F880204FF40012C3F80021FFF7DEFF0D
:10544000320715D52B0713D523680321D3F8003570
:10545000204613F0040FA24B1EBFD3F8802022F089
:105460000802C3F880200822C3F80021FFF7CBFF11
:10547000700715D5690713D523680221D3F80035C5
:10548000204613F0040F964B1EBFD3F8802022F065
:105490000402C3F880200422C3F80021FFF7B3FF01
:1054A000B20715D5AB0713D523680121D3F8003512
:1054B000204613F0040F8A4B1EBFD3F8802022F041
:1054C0000202C3F880200222C3F80021FFF79BFFED
:1054D000F00715D5E90713D523680021D3F8003567
:1054E000204613F0040F7E4B1EBFD3F8802022F01D
:1054F0000102C3F880200122C3F80021FFF783FFD7
:10550000320416D52B0414D523680321D3F80035B3
:10551000204613F0040F724B1EBFD3F8802022F4F4
:105520000042C3F880204FF40042C3F80021FFF787
:1055300067FF700416D5690414D523680221D3F8D7
:105540000035204613F0040F654B1EBFD3F88020B2
:1055500022F48042C3F880204FF48042C3F8002137
:10556000FFF74EFFB20416D5AB0414D52368012112
:10557000D3F80035204613F0040F594B1EBFD3F863
:10558000802022F40052C3F880204FF40052C3F868
:105590000021FFF735FFF00416D5E90414D5236880
:1055A0000021D3F80035204613F0040F4C4B1EBFEA
:1055B000D3F8802022F48052C3F880204FF4805228
:1055C000C3F80021FFF71CFF320516D52B0514D5B3
:1055D00023680321D3F80035204613F0040F404B15
:1055E0001EBFD3F8802022F40062C3F880204FF45D
:1055F0000062C3F80021FFF704FF700516D56905A6
:1056000014D523680221D3F80035204613F0040F87
:10561000334B1EBFD3F8802022F48062C3F8802071
:105620004FF48062C3F80021FFF7EBFEB20516D5F8
:10563000AB0514D523680121D3F80035204613F0BB
:10564000040F274B1EBFD3F8802022F40072C3F84A
:1056500080204FF40072C3F80021FFF7D2FEF0055E
:1056600016D5E90514D523680021D3F80035204666
:1056700013F0040F1A4B1EBFD3F8802022F480725F
:10568000C3F880204FF48072C3F80021FFF7B9FE01
:10569000320615D52B0613D523680321D3F8003520
:1056A000204613F0040F0E4B1EBFD3F8802022F0CB
:1056B0008002C3F880208022C3F80021FFF7A2FEF9
:1056C000700619D5690617D523680221D3F800356D
:1056D000204613F0040F024B18BFD3F8802001E0DE
:1056E000006000581CBF22F04002C3F88020402216
:1056F000C3F80021FFF786FEB20615D5AB0613D519
:1057000023680121D3F80035204613F0040FB94B6C
:105710001EBFD3F8802022F02002C3F88020202270
:10572000C3F80021FFF76EFEF00615D5E90613D584
:1057300023680021D3F80035204613F0040FAD4B49
:105740001EBFD3F8802022F01002C3F88020102260
:10575000C3F80021FFF756FE720013D56B0011D578
:10576000A44B2046D3F8802022F08042C3F880204A
:105770004FF08042C3F80021A36843F48073A36014
:10578000FFF70BFDB00013D5A90011D5994B2046AA
:10579000D3F8802022F00052C3F880204FF000524E
:1057A000C3F80021A36843F40073A360FFF7F5FC7E
:1057B000F20013D5EB0011D58E4B2046D3F8802094
:1057C00022F08052C3F880204FF08052C3F80021AD
:1057D000A36843F48063A360FFF7DFFC300113D5B7
:1057E000290111D5834B2046D3F8802022F0006296
:1057F000C3F880204FF00062C3F80021A36843F48F
:105800000063A360FFF7C9FC720113D56B0111D5CA
:10581000784B2046D3F8802022F08062C3F88020A5
:105820004FF08062C3F80021A36843F48053A36063
:10583000FFF7B3FCB00113D5A90111D56D4B20467C
:10584000D3F8802022F00072C3F880204FF000725D
:10585000C3F80021A36843F40053A360FFF79DFC45
:10586000F20113D5EB0111D5624B2046D3F880200D
:1058700022F08072C3F880204FF08072C3F80021BC
:10588000A36843F48043A360FFF787FC18F0010F7F
:1058900014D0F80712D50121564B2046D3F88020AA
:1058A00022F00102C3F88020C3F80411A36843F476
:1058B0000023A36004232371FFF79FFD18F0020F5C
:1058C00015D0B90713D54B4B0121D3F880202046C2
:1058D00022F00202C3F880200222C3F80421A36848
:1058E00043F48023A36004232371FFF786FD18F09F
:1058F000040F13D07A0711D53E4B0121D3F8802035
:10590000204622F00402C3F880200422C3F80421B8
:10591000A36843F40033A360FFF76FFD18F0080F8E
:1059200013D03B0711D5334B0121D3F880202046FB
:1059300022F00802C3F880200822C3F80421A368DB
:1059400043F48033A360FFF758FD18F0100F13D015
:10595000F80611D5274B0121D3F88020204622F0EC
:105960001002C3F880201022C3F80421A36843F476
:105970000043A360FFF741FD18F4807F16D0F905BE
:1059800014D51C4B0221D3F88020204622F48072CB
:10599000C3F880204FF48072C3F80421A36843F455
:1059A0000023A36004232371FFF727FD18F4007F71
:1059B00016D0BA0514D50F4B0221D3F8802020460B
:1059C00022F40072C3F880204FF40072C3F804215F
:1059D000A36843F48023A36004232371FFF70DFD24
:1059E00018F4806F17D07B0515D5024B0221D3F830
:1059F000802001E000600058204622F48062C3F855
:105A000080204FF48062C3F80421A36843F400337C
:105A1000A360FFF7F2FC18F4006F14D0380512D51C
:105A20001F4B0221D3F88020204622F40062C3F8E5
:105A300080204FF40062C3F80421A36843F480334C
:105A4000A360FFF7DAFC18F4805F14D0F90412D5D4
:105A5000134B0221D3F88020204622F48052C3F851
:105A600080204FF48052C3F80421A36843F400431C
:105A7000A360FFF7C2FCF2030FD5EB030DD5084B73
:105A80002046D3F8802022F48032C3F880204FF4DF
:105A90008032C3F80021FFF7B2FCBDE8F08100BFFF
:105AA0000060005870B50E461446054608B901203E
:105AB00070BD002AFBD0022904D940F6EF614A48A4
:105AC000FCF708FE236933F0804304D04FF46F6184
:105AD0004548FCF7FFFD6368B3F5805F04D340F6EB
:105AE000F1614148FCF7F6FD40F6FE72E368013BC8
:105AF000934204D940F6F2613B48FCF7EBFD40F6D7
:105B0000FE72A368013B934204D940F6F361364824
:105B1000FCF7E0FD2368B3F5805F04D340F6F46141
:105B20003148FCF7D7FD2B79022BC0D13EBB2A6848
:105B30002E4BD2F804110B40B3F5804FB7D0D4E907
:105B40000003D2F8041543EA004301F0F0210B43AF
:105B5000C2F80435D2F80815D4E9033021F09F418A
:105B6000034321F4FE01A06821F47F6143EA00436E
:105B700021F00F010B43C2F80835002098E7012EF1
:105B800017D1D4E900032A6843EA0043D2F8041984
:105B900001F0F0210B43C2F80439D2F80819D4E916
:105BA000020301F0F02143EA00430B43C2F8083935
:105BB000E3E7022E7FF47BAFD4E900032A6843EACF
:105BC0000043D2F8041D01F0F0210B43C2F8043D5C
:105BD000D2F8081DD4E9020301F0F02143EA0043A2
:105BE0000B43C2F8083DC8E7251A06340040FF0001
:105BF000022938B505460C4604D940F63F711A48CB
:105C0000FCF768FD6DB32B79022B2AD17CB92B6888
:105C1000164AD3F804110A40B2F5804F21D0D3F8C8
:105C2000082542F00042C3F80825002038BD012CA9
:105C30000DD12B682046D3F82028B2F5004FF5D0BF
:105C4000D3F8082942F00042C3F80829EDE7022CF6
:105C500007D12A68D2F8083D43F00043C2F8083D56
:105C6000E3E70120E2E700BF251A06340040FF0009
:105C7000022908B506D940F67E711048FCF72AFDC6
:105C800001200AE00028FBD0036839B9D3F80825C1
:105C900022F00042C3F80825002008BD01290BBFEF
:105CA000D3F80829D3F8082D22F0004222F0004250
:105CB0000CBFC3F80829C3F8082DEDE7251A0634F0
:105CC000022970B505460E46144604D941F2520128
:105CD0001848FCF7FFFC226852B1182A03D8164B6B
:105CE000D340DA0704D441F253011248FCF7F2FC26
:105CF000626852B1062A03D85423D340DB0704D488
:105D000041F254010B48FCF7E5FC8DB12B79022BD5
:105D10000ED1012E0CD1D4E90030034300202968B4
:105D2000D1F8302822F01E021343C1F8303870BD7C
:105D30000120FCE7251A063400010101022908B5FB
:105D400006D941F27A010948FCF7C4FC012008BDDC
:105D50000028FBD00129F9D102680020D2F83038A0
:105D600043F00103C2F83038F1E700BF251A0634CA
:105D700070B50E461446054608B9012070BD0229CB
:105D800004D941F2BC011E48FCF7A4FC226852B1C0
:105D9000182A03D81B4BD340DA0704D441F2BD01C3
:105DA0001748FCF797FC626852B1062A03D85423BF
:105DB000D340DB0704D441F2BE011148FCF78AFC52
:105DC0002B79022BD9D1012E0CD1D4E900302968CE
:105DD0000343D1F80C2922F01E021343C1F80C39F9
:105DE0000020CBE7022EC8D1D4E900302968034354
:105DF000D1F80C2D22F01E021343C1F80C3DEFE741
:105E0000251A06340001010108B530B1022906D96E
:105E100041F2E9010C48FCF75DFC012009E0012991
:105E200008D10268D2F80C3943F00103C2F80C39EA
:105E3000002008BD0229F0D10268D2F80C3D43F0E1
:105E40000103C2F80C3DF3E7251A063408B530B15A
:105E5000022906D941F20A110C48FCF73BFC01204B
:105E600009E0012908D10268D2F80C3923F00103B6
:105E7000C2F80C39002008BD0229F0D10268D2F81E
:105E80000C3D23F00103C2F80C3DF3E7251A06345C
:105E900070B50E461446054608B9012070BD002AAB
:105EA000FBD0022904D941F234113F48FCF712FC1F
:105EB0006369803BB3F5607F04D341F235113A4802
:105EC000FCF708FC2369803BB3F5607F04D341F203
:105ED00036113548FCF7FEFBE368B3F5803F04D389
:105EE00041F237113048FCF7F5FBA368B3F5803F6A
:105EF00004D341F238112C48FCF7ECFB6368B3F58E
:105F0000805F04D341F239112748FCF7E3FB236893
:105F1000B3F5805F04D341F23A112348FCF7DAFB72
:105F20002B79022BB9D1012E1ED1D4E904022B68A2
:105F300042EA0042D3F8101901F0FC210A43C3F8E9
:105F40001029D4E9021242EA0142C3F81429D3F815
:105F50001819D4E9000201F0F02142EA00420A4394
:105F6000C3F81829002099E7022E96D1D4E904023B
:105F70002B6842EA0042D3F8101D01F0FC210A43CD
:105F8000C3F8102DD4E9021242EA0142C3F8142DDD
:105F9000D3F8181DD4E9000201F0F02142EA0042D2
:105FA0000A43C3F8182DDDE7251A063408B530B1C9
:105FB000022906D941F27A110C48FCF78BFB01202B
:105FC00009E0012908D10268D2F8103943F00043F2
:105FD000C2F81039002008BD0229F0D10268D2F8B9
:105FE000103D43F00043C2F8103DF3E7251A063494
:105FF00008B530B1022906D941F2BC110C48FCF7B2
:1060000069FB012009E0012908D10268D2F8703942
:1060100043F00103C2F87039002008BD0229F0D115
:106020000268D2F8703D43F00103C2F8703DF3E717
:10603000251A063408B530B1022906D941F2DD111E
:106040000C48FCF747FB012009E0012908D1026850
:10605000D2F8703923F00103C2F87039002008BD6E
:106060000229F0D10268D2F8703D23F00103C2F892
:10607000703DF3E7251A063438B5134A0368044621
:1060800093420D4608D002F17042934204D041F28F
:10609000F8110E48FCF71EFB022D06D941F2F9114A
:1060A0000A48FCF717FB002038BD012D05D12368F5
:1060B000D3F8700900F00100F6E7022DF3D1236850
:1060C000D3F8700DF6E700BF00200058251A0634FB
:1060D00070B50E461446054608B9012070BD002A69
:1060E000FBD0022904D941F21E212448FCF7F2FA20
:1060F000A26852B1062A03D85423D340DB0704D444
:1061000041F21F211D48FCF7E5FAE368072B04D98B
:106110004FF491511948FCF7DDFA2368072B04D995
:1061200041F221211548FCF7D5FA6368072B04D901
:1061300041F222211148FCF7CDFA2369072B04D93B
:1061400041F223210D48FCF7C5FA012EC5D1D4E94F
:1061500003231B0743EA0243A2682968134322680A
:10616000D1F8700843EA0253626843EA0263044AC2
:10617000024013430020C1F87038AFE7251A0634F7
:10618000F9FF888808B530B1022906D941F24A21C1
:106190000748FCF79FFA012008BD0129FBD10268DE
:1061A0000020D2F8703843F00103C2F87038F3E7EA
:1061B000251A063408B530B1022906D941F2672103
:1061C0000748FCF787FA012008BD0129FBD10268C6
:1061D0000020D2F8703823F00103C2F87038F3E7DA
:1061E000251A0634F8B50F4615461C46064608B96A
:1061F0000120F8BD022904D941F289211048FCF799
:1062000069FA072D04D941F28A210D48FCF762FA98
:10621000B4F5805F04D341F28B210948FCF75AFAA8
:10622000012FE5D1326844EA0534D2F82038002045
:1062300023F4FF4323F07F031C43C2F82048D8E730
:10624000251A063450B1012908D102680020D2F87D
:10625000203843F40043C2F82038704701207047CB
:1062600050B1012908D102680020D2F8203823F467
:106270000043C2F8203870470120704770B50E46C1
:106280001446054608B9012070BD022918D941F20B
:10629000EA210D48FCF71EFA072CF4D941F2EB2154
:1062A0000948FCF717FA012EEDD129680020D1F832
:1062B000243823F00E0343EA4403C1F82438E3E70B
:1062C000072AF0D9EAE700BF251A063408B530B12D
:1062D000022906D941F208310748FCF7FBF90120F1
:1062E00008BD0129FBD102680020D2F8243843F010
:1062F0000103C2F82438F3E7251A063408B530B193
:10630000022906D941F225310748FCF7E3F90120BB
:1063100008BD0129FBD102680020D2F8243823F0FF
:106320000103C2F82438F3E7251A0634022910B510
:10633000044604D941F23B310448FCF7CBF9236809
:10634000D3F82408C0F3420010BD00BF251A06345C
:1063500038B5104A0368044693420D4608D002F14E
:106360007042934204D041F248310B48FCF7B2F935
:10637000022D06D941F249310748FCF7ABF900205C
:1063800038BD012DFBD12368D3F8240800F00100AB
:10639000F6E700BF00200058251A063438B5154628
:1063A000044608B9012038BD002AFBD0022904D9CF
:1063B00041F266310648FCF78DF92379022BF1D1C1
:1063C00023680020D3F82838C3F30B032B60EAE7D7
:1063D000251A063470B50E461446054608B9012044
:1063E00070BD002AFBD0022904D941F2254198480A
:1063F000FCF770F92378012B04D941F22641944827
:10640000FCF768F9637813F0FD0F04D041F22741DF
:106410008F48FCF75FF9B4F90230B3F5006F04DB85
:1064200041F228418A48FCF755F9B4F90430B3F534
:10643000006F04DB41F229418548FCF74BF9B4F9C0
:106440000630B3F5006F04DB41F22A418048FCF7C7
:1064500041F9B4F90830B3F5006F04DB41F22B4188
:106460007B48FCF737F9B4F90A30B3F5006F04DB69
:1064700041F22C417648FCF72DF9B4F90C30B3F514
:10648000006F04DB41F22D417148FCF723F9B4F9A8
:106490000E30B3F5006F04DB41F22E416C48FCF77F
:1064A00019F9B4F91030B3F5006F04DB41F22F4154
:1064B0006748FCF70FF9B4F91230B3F5006F04DB4D
:1064C00041F230416248FCF705F9B4F91430B3F5F4
:1064D000006F04DB41F231415D48FCF7FBF8B4F991
:1064E0001630B3F5006F04DB41F232415848FCF737
:1064F000F1F8B4F91830B3F5006F04DB41F2334121
:106500005348FCF7E7F8012E7FF469AF2B68207839
:10651000D3F88018627821F0060142EA80020A432B
:10652000C3F88028B4F9022090B2C2F30A01002A0D
:10653000B4F90420B8BF0846C2F30A05002A91B294
:10654000B8BF2946D3F8842802F0F822024342EA71
:106550000142C3F88428B4F9062095B2C2F30A01B7
:10656000002AB4F90820B8BF0D46C2F30901002A79
:1065700090B2B8BF0846D3F8882836490A402A4363
:1065800042EA0042C3F88828B4F90C2095B2C2F35D
:106590000A00002AB4F90A20B8BF0546C2F30A0669
:1065A000002A90B2B8BF3046D3F88C2802F0F82207
:1065B00042EA05420243C3F88C28B4F90E2095B292
:1065C000C2F30A00002AB4F91020B8BF0546C2F38E
:1065D0000906002A90B2B8BF3046D3F890280A4086
:1065E0002A4342EA0042C3F89028B4F9122095B237
:1065F000C2F30A00002AB4F91420B8BF0546C2F35A
:106600000A06002A90B2B8BF3046D3F8942802F0A8
:10661000F8222A4342EA0042C3F89428B4F916202B
:10662000C2F30A0095B2002AB4F91820B8BF054693
:10663000C2F30904002A90B2B8BF2046D3F89828C4
:106640000A402A4342EA0042C3F898280020C7E6DD
:10665000251A063400F800FC08B530B1022906D925
:1066600041F27B410748FCF735F8012008BD0129BC
:10667000FBD102680020D2F8803843F00103C2F851
:106680008038F3E7251A063408B530B1022906D957
:1066900041F297410748FCF71DF8012008BD012988
:1066A000FBD102680020D2F8803823F00103C2F841
:1066B0008038F3E7251A063410B500B10AB9012075
:1066C00010BD022905D941F25B510B48FCF702F8D5
:1066D000F5E70129F3D1006853781478D0F8401811
:1066E00092781B0443EA046343EA0223CAB21343C9
:1066F000C0F840380020E3E7251A063408B530B169
:10670000022906D941F27A510748FBF7E3FF01203D
:1067100008BD0129FBD102680020D2F8403843F0BF
:106720000103C2F84038F3E7251A063408B530B142
:10673000022906D941F296510748FBF7CBFF012009
:1067400008BD0129FBD102680020D2F8403823F0AF
:106750000103C2F84038F3E7251A0634022904D9A8
:1067600041F2B0510748FBF7B5BF012908D10368D2
:10677000D3F84038190A9170190C1B0E5170137020
:10678000704700BF251A063438B5104A036804461E
:1067900093420D4608D002F17042934204D041F278
:1067A000C4510B48FBF796FF022D06D941F2C551A3
:1067B0000748FBF78FFF002038BD012DFBD1236870
:1067C000D3F8400800F00100F6E700BF00200058B1
:1067D000251A0634F8B50F4615461C46064608B974
:1067E0000120F8BD002BFBD0022904D941F2E95168
:1067F0002A48FBF76FFF6B1E022B04D941F2EA51C6
:106800002648FBF767FFA3686BB1043B082B05D84C
:1068100040F2111222FA03F3DB0704D441F2EB51E8
:106820001E48FBF757FF636833F0300306D0402B58
:1068300004D041F2EC511948FBF74CFF236833F0C8
:10684000800304D041F2ED511448FBF743FF012FC0
:10685000C6D1D4E900321343A268012D316843EA5E
:10686000020309D0022D10D0D1F8582822F0FC02E2
:106870001343C1F8583806E0D1F8502822F0FC0242
:106880001343C1F850380020ABE7D1F8542822F068
:10689000FC021343C1F85438F5E700BF251A06344B
:1068A00070B50E461446054608B9012070BD002A91
:1068B000FBD0022904D941F21F612148FBF70AFFEE
:1068C0006368B3F5805F04D34FF4B1511C48FBF704
:1068D00001FF2368B3F5805F04D341F221611848BA
:1068E000FBF7F8FEE368B3F5805F04D341F2226161
:1068F0001348FBF7EFFEA368B3F5805F04D341F2C2
:1069000023610F48FBF7E6FE012ECED1D4E9000348
:106910002A6843EA0043D2F85C1801F0F0210B43E7
:10692000C2F85C38D2F86018D4E9020301F0F02113
:1069300043EA00430B430020C2F86038B6E700BFCB
:10694000251A063470B50E461546044608B90120CE
:1069500070BD022904D941F247611548FBF7BAFE20
:106960006B1E022B0ED941F248611148FBF7B2FEB3
:10697000012EECD12268D2F8583843F00103C2F856
:10698000583813E0012EE2D1012D236808D0022DE2
:10699000F0D1D3F8542842F00102C3F8542805E09E
:1069A000D3F8502842F00102C3F850280020CFE766
:1069B000251A063408B530B1022906D941F29F6183
:1069C0000748FBF787FE012008BD0129FBD10268BB
:1069D0000020D2F8603843F00043C2F86038F3E793
:1069E000251A063470B50E461446054608B901202E
:1069F00070BD002AFBD0022904D941F2DB611D4899
:106A0000FBF768FE2378072B04D941F2DC611948B3
:106A1000FBF760FEA378072B04D941F2DD6115482E
:106A2000FBF758FE2379072B04D941F2DE611148A8
:106A3000FBF750FE012EDAD129686378D1F844289B
:106A400020781B0522F0FF4243EA007322F4E002A3
:106A50001343C1F84438E378A2781B0543EA027374
:106A60002279002043EA0233627943EA0213C1F833
:106A70004838BDE7251A063408B530B1022906D9D1
:106A800041F201710748FBF725FE012008BD0129ED
:106A9000FBD102680020D2F8443843F00103C2F869
:106AA0004438F3E7251A063408B530B1022906D96F
:106AB00041F21D710748FBF70DFE012008BD0129B9
:106AC000FBD102680020D2F8443823F00103C2F859
:106AD0004438F3E7251A063470B50E4614460546C9
:106AE00008B9012070BD002AFBD0022904D941F267
:106AF0003B713948FBF7EEFD23783F2B04D941F277
:106B00003C713548FBF7E6FD63783F2B04D941F231
:106B10003D713148FBF7DEFDA3783F2B04D941F2EC
:106B20003E712D48FBF7D6FDE3783F2B04D941F2A7
:106B30003F712948FBF7CEFD23793F2B04D94FF451
:106B4000BA512548FBF7C6FD63793F2B04D941F2C2
:106B500041712148FBF7BEFDA3793F2B04D941F2D7
:106B600042711D48FBF7B6FDE3793F2B04D941F292
:106B700043711948FBF7AEFD237A3F2B04D941F24C
:106B800044711548FBF7A6FD012EAAD12A68217889
:106B9000D2F8A038002023F4FC4343EA4123C2F892
:106BA000A038A37861785B0443EA4163E17843EA63
:106BB0004123217943EA4103C2F8A438A3796179DA
:106BC0005B0443EA4163E17943EA4123217A43EAE2
:106BD0004103C2F8A83885E7251A063408B530B154
:106BE000022906D941F26C710748FBF773FD0120B9
:106BF00008BD0129FBD102680020D2F8A03843F07B
:106C00000103C2F8A038F3E7251A063408B530B1FD
:106C1000022906D941F288710748FBF75BFD012084
:106C200008BD0129FBD102680020D2F8A03823F06A
:106C30000103C2F8A038F3E7251A063470B50E46F2
:106C40001446054608B9012070BD022904D941F255
:106C5000D2711448FBF73EFD230702D1B4F5004F73
:106C600004D341F2D3710F48FBF734FD012E0BD151
:106C70002A68D2F8CC3923F4FF4323F07F0323435F
:106C8000C2F8CC390020DFE7022EDCD12A68D2F826
:106C9000CC3D23F4FF4323F07F032343C2F8CC3DD4
:106CA000F0E700BF251A063470B50E4614460546B7
:106CB00008B9012070BD022917D941F2F6711248B6
:106CC000FBF708FD092CF4D941F2F7710E48FBF7E8
:106CD00001FD012E0CD12A68D2F8C03923F00F0330
:106CE0002343C2F8C0390020E4E7092AF1D9EBE7D1
:106CF000022EDED12A68D2F8C03D23F00F032343D1
:106D0000C2F8C03DEFE700BF251A0634F8B50F46BC
:106D100015461C46064608B90120F8BD022913D9BC
:106D200041F665011848FBF7D5FC012DF4D941F671
:106D300066011548FBF7CEFC87B1012F19D13368E6
:106D4000A5B9C3F8C44907E0012AF0D80029F4D155
:106D500003681AB9C3F8C4450020DEE73368D3F8E6
:106D6000C025D203D8D5C3F8C845F5E7C3F8C8494C
:106D7000F2E7022FD0D1336815B9C3F8C44DEBE761
:106D8000C3F8C84DE8E700BF251A0634022938B514
:106D900004460D4604D941F639110F48FBF79AFC19
:106DA000BCB12379022B08D1012D08D12268D2F879
:106DB000C03943F01003C2F8C039002038BD022D9D
:106DC00007D12268D2F8C03D43F01003C2F8C03D9D
:106DD000F3E70120F2E700BF251A0634022938B58F
:106DE00004460D4604D941F65B110F48FBF772FCCF
:106DF000BCB12379022B08D1012D08D12268D2F829
:106E0000C03923F01003C2F8C039002038BD022D6C
:106E100007D12268D2F8C03D23F01003C2F8C03D6C
:106E2000F3E70120F2E700BF251A0634022970B506
:106E300006460D46144607D941F6C9112648FBF708
:106E400049FC14B9012070BD22B124F48043B3F58C
:106E5000005F10D115BB3268D2F8C03523F460430F
:106E60002343C2F8C035D2F8F03343F480730020D6
:106E7000C2F8F033E7E724F40043B3F5804FE9D0DC
:106E800024F40053B3F5004FE4D0B4F5604FE1D0E3
:106E900041F6CA111048FBF71DFCDBE7012D0CD1B0
:106EA0003268D2F8C03923F460432343C2F8C039B2
:106EB000D2F8F03343F48033D9E7022DC2D13268DF
:106EC000D2F8C03D23F460432343C2F8C03DD2F85A
:106ED000F03343F08073CAE7251A0634022908B557
:106EE00006D90C4841F6F311FBF7F4FB012008BD6D
:106EF0000368D3F8F02329B922F480720020C3F884
:106F0000F023F4E701290CBF22F4803222F08072D2
:106F1000F4E700BF251A0634022908B506D941F660
:106F20007D210A48FBF7D6FB012008BDFCD1036890
:106F3000D3F8042CD3F804180A43F5D4D3F8042862
:106F4000002022F48022C3F80428EEE7251A063434
:106F5000F8B50E4615461C46074608B90120F8BD8F
:106F6000002BFBD0022904D94FF4E0511048FBF765
:106F7000B1FB6B1E022B08D941F601410C48FBF70F
:106F8000A9FB012EEAD10020E9E7012EE6D1022D6E
:106F90003B6807D0032D08D0D3F8643823F07F4333
:106FA0002360F0E7D3F86838F8E7D3F86C38F5E7F2
:106FB000251A0634022904D941F6E6410C48FBF7AC
:106FC00089BB012913D10168D1F8483818095071DB
:106FD000C3F302301071C3F302701B0D9070D370B5
:106FE000D1F84438190DC3F3027351701370704710
:106FF000251A0634022970B405D970BC41F61F5118
:107000004A48FBF767BB012940F08D800368D3F83D
:107010008018C1F3800001F0020110705170D3F8A4
:1070200084484349C4F30A4040EA010514F0806FE4
:1070300018BF2846D3F884489080C4F30A0040EA79
:10704000010514F4806F18BF2846D3F88858508083
:107050003848C5F3094444EA000615F0007F18BF1C
:107060003446D3F888581481C5F30A0444EA01066B
:1070700015F4806F18BF3446D3F88C58D480C5F30C
:107080000A4444EA010615F0806F18BF3446D3F86D
:107090008C589481C5F30A0444EA010615F4806F04
:1070A00018BF3446D3F890585481C5F3094444EAD4
:1070B000000615F0007F18BF3446D3F890581482AC
:1070C000C5F30A0444EA010615F4806F18BF34467C
:1070D000D3F89858D481C5F30944204315F0007FB4
:1070E00018BF04461483D3F89848C4F30A0040EA52
:1070F000010514F4806F18BF2846D3F89448D08255
:10710000C4F30A4040EA010514F0806F18BF284616
:107110009082D3F89408C0F30A03194310F4806FE7
:1071200018BF0B46538270BC704700BF251A063447
:1071300000F8FFFF00FCFFFF38B5104A0368044663
:1071400093420D4608D002F17042934204D041F6BA
:107150009B510B48FBF7BEFA022D06D941F69C5114
:107160000748FBF7B7FA002038BD012DFBD1236893
:10717000D3F8440800F00100F6E700BF00200058F3
:10718000251A063438B5104A0368044693420D4662
:1071900008D002F17042934204D041F6C7510B4827
:1071A000FBF798FA022D06D941F6C8510748FBF7BC
:1071B00091FA002038BD012DFBD12368D3F8800857
:1071C00000F00100F6E700BF00200058251A063441
:1071D00000797047F0B50468059D666C45EA034583
:1071E000436806F040463543B3F5403F6564E263CB
:1071F0002ED1806818B1012803D121F07F41A1630D
:10720000F0BD022801F47F0301F47F45CEB207D11F
:10721000DB0CAD0ADB0243EA451343EAD601EEE795
:10722000DA0CEF0A92021B0D42EA47122D0B1B02E9
:10723000CF0F42EAD60243EA051342EAC73243EAD5
:107240001613090F032843EA013108BF1146D6E798
:10725000B3F5802F0CBF6161E160D1E7704700009A
:1072600010B5044600287DD003683F4A934207D0FA
:1072700002F17042934203D0F7213C48FBF72AFA0F
:10728000636833F4403208D023F48033B3F5802FA1
:1072900003D0F8213548FBF71DFAA368042B03D966
:1072A000F9213248FBF716FAE368B3F5803F03D3C0
:1072B000FA212E48FBF70EFA2369012B03D9FB2193
:1072C0002A48FBF707FA6369012B03D9FC212748F9
:1072D000FBF700FAE36933F0400303D0FD212348B4
:1072E000FBF7F8F9A36933F4807303D0FE211F483C
:1072F000FBF7F0F994F8613003F0FF0223B9204660
:1073000084F86020FFF7AAFF022384F86130236825
:10731000E0691968626821F4E021024321F040012C
:107320000A431A60596BA069A26821F48371024371
:1073300021F001010A435A631A6CE168120C12042D
:107340000A431A64596BD4E90402520542EA005216
:1073500021F440110A435A6300200123606684F837
:10736000613010BD0120FCE7001002586D1A063490
:10737000704700002DE9F341DDF820800446B8F5A0
:10738000803F0E4617461D4604D340F2CD211548D6
:10739000FBF7A0F9B5F5804F04D340F2CE21114898
:1073A000FBF798F994F860300220012B16D00123E6
:1073B00084F8610084F860303A462B462046314616
:1073C000CDF80080FFF706FF002023681A6842F41A
:1073D0000C521A601A6842F001021A6002B0BDE84D
:1073E000F08100BF6D1A06342DE9F347DDE90A9AF2
:1073F000BAF5803F04460E4690461F4604D34FF42C
:107400004A711E48FBF766F9B9F5804F04D340F284
:1074100029311A48FBF75EF994F860300220012BFD
:107420001BD0012384F86030D4E90053B3F5802FDA
:1074300084F8610014D14B463A4641462E62CDF89D
:1074400000A02046FFF7C6FE00202B6843F40C5333
:107450002B602B6843F001032B6002B0BDE8F0877E
:10746000B3F5A02F0CBFC5F82880C5F814804B4693
:107470003A463146CDF800A0E3E700BF6D1A063466
:10748000026838B51368044623F0050343F004038B
:107490001360FCF741FE05462268106810F00100F9
:1074A00007D1136823F40C531360012384F861306F
:1074B0000CE0FCF731FE401BB0F57A7FECD90320DD
:1074C000636E43F02003636684F86100002384F850
:1074D000603038BD036870B51A4604461868012943
:1074E00040F0040042F8240B03F11C030CBF1D46BE
:1074F0001546FCF711FE0646286810F0200008D15A
:107500002268136823F464531360012384F8613004
:107510000CE0FCF701FE801BB0F57A7FECD903206C
:10752000636E43F02003636684F86100002384F8EF
:10753000603070BD38B5054608B9012038BD174B1D
:10754000D3F860220368910713D400243F222B68EC
:1075500028461C609A601C619C61DC615C625C6313
:10756000FFF706FF6C66204685F8614085F86040AD
:10757000E4E7196811F0010104D0FFF781FF00284A
:10758000E3D0DAE75A6A920602D5FFF7A3FFF6E7DF
:10759000DB699B06D9D50121F7E700BF00800256C1
:1075A00070477047036870B55E680446F2071D684F
:1075B00014D5E90512D51A6822F480721A60426E59
:1075C00042F00102426601229A60042380F8613091
:1075D000002380F86030436A03B19847B20616D59D
:1075E000AB0414D523681A6822F400521A602022D2
:1075F0009A60636E43F002036366042384F861308B
:10760000002384F86030636A0BB120469847300746
:1076100016D5290514D523681A6822F400621A6069
:1076200008229A60636E43F004036366042384F8BF
:107630006130002384F86030636A0BB120469847BC
:1076400072070BD56B0509D5236820461A6822F40A
:1076500080621A6004229A60FFF7A2FFB00714D577
:10766000A90512D523681A6822F400721A60022252
:107670009A60636E6366012384F86130002384F8A6
:107680006030236A0BB120469847F20613D5EB040D
:1076900011D5236820461A6822F480521A601022FD
:1076A0009A60636E6366012384F86130002384F876
:1076B0006030FFF776FF70BD0129F8B504460D462E
:1076C00004D940F2F3615048FBF704F81C2303FB94
:1076D00005439B6AB3F5803F04D340F2F4614A4806
:1076E000FAF7F8FF6368B3F5403F17D01C2303FB9C
:1076F0000543DB6A0B2B04D940F2F7614248FAF7E5
:10770000E9FF636853B11C2303FB05431B6B022B8A
:1077100004D940F2FA613C48FAF7DCFF1C2606FB6C
:1077200005439B6B012B04D940F2FD613648FAF703
:10773000D1FF06FB0546F36B012B04D940F2FE6135
:107740003148FAF7C7FF012D0AD1A36C0B2B07D1E3
:10775000E36D022B04D940F202712B48FAF7BAFF0D
:1077600094F860300220012B33D01C21012301FB4F
:10777000054184F8610084F860308B6BD1E90B62BD
:107780001B054F6B43EA0243CA6B334343EA425340
:10779000A6F1090007F07F421A43012843EA076374
:1077A00098BF13462268ADB9556A1849012801EA05
:1077B000050141EA0301A36A5162936103D8636B37
:1077C00023F07F4393620123002084F8613084F822
:1077D0006000F8BD0B2E03BF096C0D4E43EA8143D8
:1077E0000C4ED169012821EA060143EA0103D36165
:1077F0004FF01C0303FB0545AB6A13619EBF6B6B27
:1078000023F07F431362DEE76D1A0634F0FFCC00ED
:107810000F003FFF0F0033FF2DE9F84F484B0446A0
:1078200098420E4654D003F17043984250D0454BD5
:1078300098424DD003F17043984249D0424B984250
:1078400046D003F17043984242D0404B98423FD01B
:1078500003F1704398423BD03D4B984238D003F13E
:107860007043984234D03B4B984231D003F170437F
:1078700098422DD0384B98422AD003F17043984259
:1078800026D0364B984223D003F1704398421FD044
:10789000334B98421CD003F17043984218D0314BBF
:1078A000984215D003F17043984211D02E4B984264
:1078B0000ED003F1704398420AD02C4B984207D067
:1078C00003F17043984203D0AD212948FAF702FF33
:1078D00033689AB212B1B3F5803F03D3AE21244886
:1078E000FAF7F8FE7368012B14D9B3F5041F11D011
:1078F0001DD8B3F5881F0DD009D8032B0AD9113B29
:10790000012B07D9AF211A48FAF7E4FE02E0B3F5DC
:10791000901FF7D14FF000094F46DFF82480DFF8C1
:1079200054A0356835FA07F326D1BDE8F88FB3F5D2
:10793000441FEFD023F48013B3F5081FE9E700BF1D
:10794000000002560004025600080256000C0256BF
:10795000001002560014025600180256001C02566F
:107960000034025600380256003C025600400256CF
:10797000B41A0634005002564FF0010B0BFA07FB05
:107980001BEA050500F03081736803F00303013B37
:10799000012B1AD8F368032B03D9BE219E48FAF7AE
:1079A00099FE0323A26803FA09F322EA0302F368AB
:1079B00003FA09F31343A36073686268C3F3001307
:1079C00022EA0B02BB4013436360D6E9013203F0A5
:1079D0000303032B02D1012A00F08280022A03D97B
:1079E000D1218D48FAF776FE0323E26803FA09F302
:1079F00022EA0302B36803FA09F31343E3607368EE
:107A000003F00303022B6BD1444553D0834B9C42BC
:107A100050D0834B9C424DD003F170439C4249D0DF
:107A2000804B9C4246D003F170439C4242D07E4B37
:107A30009C423FD003F170439C423BD07B4B9C4225
:107A400038D003F170439C4234D0794B9C4231D002
:107A500003F170439C422DD0764B9C422AD003F117
:107A600070439C4226D0744B9C4223D003F1704358
:107A70009C421FD0714B9C421CD003F170439C422E
:107A800018D06F4B9C4215D003F170439C4211D02B
:107A90006C4B9C420ED003F170439C420AD06A4B5F
:107AA0009C4207D003F170439C4203D0DE215A4828
:107AB000FAF710FE33690F2B03D9DF215648FAF786
:107AC00009FE0F23FA0804EB820207F00701106A8F
:107AD00089008B4020EA030033698B400343136223
:107AE0000323206803FA09F220EA0200726802EA1E
:107AF000030101FA09F1014312F4403F216073D000
:107B00004FF00F0E27F0030101F1AC4101F51431E4
:107B100007EA0300D1F860C098400EFA00FE444521
:107B20002CEA0E0C64D0DFF8F8E0744562D00EF554
:107B3000806E744560D00EF5806E744520D03B4B4E
:107B40009C425BD003F580639C4259D003F580636F
:107B50009C4257D003F580639C4255D003F5C05337
:107B60009C4253D003F580639C4251D003F580635F
:107B70009C424FD003F580639C4214BF10230B231B
:107B8000834043EA0C030B66DAF8803012F4803F3E
:107B900023EA050143EA050308BF0B46CAF8803013
:107BA000DAF8843012F4003F23EA050143EA0503C2
:107BB00008BF0B46CAF88430DAF8003012F4801F90
:107BC00023EA050143EA050308BF0B46CAF8003063
:107BD000DAF8043012F4001F23EA050145EA030530
:107BE00008BF0D46CAF80450013709F1020998E6AA
:107BF0000023C5E70123C3E70223C1E70423BFE74E
:107C00000523BDE70623BBE70723B9E70823B7E74A
:107C10000923B5E70A23B3E7B41A06340000024685
:107C20000004025600080256000C025600100256CC
:107C30000014025600180256001C02560034025668
:107C400000380256003C0256004002562DE9F84F1B
:107C5000874B044698420D4655D003F17043984235
:107C600051D0844B98424ED003F1704398424AD091
:107C7000814B984247D003F17043984243D07F4BE9
:107C8000984240D003F1704398423CD07C4B9842DC
:107C900039D003F17043984235D07A4B984232D0B4
:107CA00003F1704398422ED0774B98422BD003F1CA
:107CB0007043984227D0754B984224D003F170430B
:107CC000984220D0724B98421DD003F170439842E5
:107CD00019D0704B984216D003F17043984212D0DD
:107CE0006D4B98420FD003F1704398420BD06B4B11
:107CF000984208D003F17043984204D040F22D110D
:107D00006748FAF7E7FCABB213B1B5F5803F04D38F
:107D10004FF497716248FAF7DDFC00224FF0010A38
:107D20004FF00F084FF0030B5E4835FA02F301D114
:107D3000BDE8F88F0AFA02FC1CEA05067FD022F0A3
:107D4000030101F1AC4101F5143102F003070B6EA0
:107D5000FF0008FA07F909EA030E454B9C4270D070
:107D600003F580639C426ED003F580639C426CD027
:107D700003F580639C426AD003F580639C4268D01F
:107D800003F580639C4266D003F580639C4264D017
:107D900003F580639C4262D003F5C0539C4260D0DF
:107DA00003F580639C425ED003F580639C425CD007
:107DB00003F580639C420CBF0B231023BB4073452B
:107DC00017D1D0F8803023EA0603C0F88030D0F80D
:107DD000843023EA0603C0F88430036823EA0603EC
:107DE0000360436823EA060343600B6E23EA09033A
:107DF0000B66236856000BFA06F633432360D3085C
:107E000004EB830302F007011F6A890008FA01F1FD
:107E100027EA01071F62A76827EA0607A7606768C5
:107E200027EA0C076760E76827EA0607E7601E6C29
:107E300026EA01061E649E6C26EA0101996401325D
:107E400073E70023BAE70123B8E70223B6E7032369
:107E5000B4E70423B2E70523B0E70623AEE7072320
:107E6000ACE70823AAE70923A8E70A23A6E700BF8F
:107E7000000002560004025600080256000C02568A
:107E8000001002560014025600180256001C02563A
:107E90000034025600380256003C0256004002569A
:107EA000B41A06340050025638B505460C4621B9BE
:107EB0004FF4C1710448FAF70DFC2B691C4214BF42
:107EC0000120002038BD00BFB41A063470B5054645
:107ED00016460C4621B94FF4D0710848FAF7FAFB60
:107EE000012E06D940F2A1110448FAF7F3FBAC6168
:107EF00070BD002EFBD1AC62FAE700BFB41A0634A5
:107F000003689A69910744BF00229A629A69D2076E
:107F10005EBF9A6942F001029A6170472DE9F04113
:107F200014461F460268294B80469A420E46069D1B
:107F30001DD003F170439A4219D0254B9A4216D0B6
:107F400003F170439A4212D0224B9A420FD003F1B0
:107F500070439A420BD0204B9A4208D003F17043F1
:107F60009A4204D041F6C9511C48FAF7B3FB37F0E6
:107F7000807307D0B7F1007F04D041F6CA5117488B
:107F8000FAF7A8FB164B9D420BD025F48062A3F5AF
:107F900000539A4205D025B141F6CB510F48FAF76C
:107FA00099FBD8F800000F4945EA0444426844EAC6
:107FB0000703C6F30906334341EA555123F0004352
:107FC00022EA010213434360BDE8F08100540050EF
:107FD00000580050005C0050001C0056FA1A06348D
:107FE00000400080FF63FF0303682DE9F0419C69B6
:107FF000054614F010040F4616466FD000241022D8
:10800000A046DA612B689A69900661D4B8F1000F36
:1080100035D0012044F004042E68B369D90541BF6E
:108020004FF480720120F26144F001045A0541BF0F
:108030004FF48062012044F00804F2619B054FD5A3
:108040004FF4007344F00204F3612846FFF758FF31
:108050007368012023F0FF7323F48B3323F4FF7341
:1080600023F0010373606B6C23436B64202385F85A
:108070004130002385F8423085F8403032E07A1CE8
:10808000C1D0FCF749F8801BB84201D8002FB9D104
:108090002B68596895F842209869D2B200040AD535
:1080A000490408D4202A06D05A6842F480425A6013
:1080B000FCF732F806462B689B699B06A2D4FCF7B6
:1080C0002BF8801B1928F6D920244FF0010899E7D6
:1080D000B8F1000F9DD12022DA619AE720469BE794
:1080E0000028B2D1BDE8F08170B504460D461646B1
:1080F00023689B699B0701D500201FE03246294673
:108100002046FFF771FFC0B96A1CF1D0FCF704F8F4
:10811000801BA84201D8002DEAD123689B6913F087
:108120000203E5D1626C84F8403042F020026264C0
:10813000202284F8412084F84230012070BD2DE9CE
:10814000F04104460F4616461D46DDF818802368A8
:108150009B6937EA03030CBF01230023B34201D01C
:10816000002025E0424629462046FFF73DFFF0B9B2
:108170006B1CECD0FBF7D0FFA0EB0800A84201D8A5
:10818000002DE4D123689B6937EA03030CBF012368
:108190000023B342DBD1636C43F0200363642023EC
:1081A00084F84130002384F8423084F840300120C4
:1081B000BDE8F08170B504460D46164623689B69FC
:1081C0009B0601D500201DE0324629462046FFF7D8
:1081D0000BFFB0B9FBF7A0FF801BA84201D8002D10
:1081E000ECD123689B6913F02003E7D1626C84F81B
:1081F000403042F020026264202284F8412084F85A
:108200004230012070BD704710B50446002800F0D0
:10821000AF800368574A93421DD002F170429342E7
:1082200019D0554A934216D002F17042934212D0AF
:10823000524A93420FD002F1704293420BD0504AFF
:10824000934208D002F17042934204D040F22621BA
:108250004C48FAF73FFAA368B3F5806F04D340F2B5
:1082600027214848FAF736FAE368013B012B04D985
:108270004FF40A714348FAF72DFA236933F40043A7
:1082800004D040F229213F48FAF724FA6369FF2B12
:1082900004D940F22A213B48FAF71CFAA369072BBC
:1082A00004D940F22B213748FAF714FAE36933F482
:1082B000002304D04FF40B713248FAF70BFA236A0B
:1082C00033F4003304D040F22D212E48FAF702FA9D
:1082D00094F8413003F0FF0223B9204684F840208F
:1082E000FFF791FF242384F8413023681A6822F0B5
:1082F00001021A60626822F070621A619A6822F4C0
:1083000000429A60D4E90221012906D142F40042D8
:108310009A605A6822F4006207E042F4044202299B
:108320009A60F6D15A6842F400625A605A68002096
:1083300042F0007242F400425A60DA6822F40042CD
:10834000DA60D4E904210A43A16942EA0122DA6031
:10835000D4E907210A431A601A6842F001021A6040
:108360002023606484F84130206384F8420010BD0B
:108370000120FCE70054005000580050005C005001
:10838000001C0056FA1A06347047000010B5044667
:10839000002836D003681C4A93421DD002F1704277
:1083A000934219D0194A934216D002F17042934277
:1083B00012D0174A93420FD002F1704293420BD071
:1083C000144A934208D002F17042934204D040F222
:1083D00099211148FAF77EF92423226884F8413064
:1083E0001368204623F001031360FFF7CDFF002040
:1083F000606484F8400084F84100206384F84200FF
:1084000010BD0120FCE700BF005400500058005090
:10841000005C0050001C0056FA1A06342DE9F74F94
:108420009946013B012B04460F461646BDF834A081
:10843000DDF8388004D940F638216848FAF74AF95F
:1084400094F84130202B40F0C6800C9B13B1BAF158
:10845000000F06D14FF400736364012003B0BDE840
:10846000F08F94F84030012B00F0B5804FF0010BF5
:1084700084F840B0FBF750FE1923054600905A4699
:108480004FF400412046FFF75AFE0028E5D1212392
:1084900084F84130402384F842300C9B606463626E
:1084A0004F4B606339462046A4F82AA05FFA89F250
:1084B00000934FF08073FFF731FD2A464146204676
:1084C000FFF712FE18BBB9F1010F236815D1F6B200
:1084D0009E6200224346802120460095FFF72FFE32
:1084E000A8B9638D9BB2FF2B15D8628D4FF0007336
:1084F00092B222850090D2B212E0320A9A624146CC
:108500002A462046FFF7F0FD08B92368DFE700237D
:1085100084F84030A1E7FF224FF08073228500905D
:1085200039462046FFF7FAFC2A4641462046FFF727
:10853000DBFD002891D1636A226813F8011B916268
:108540006362638D228D013B9BB26385638D013A2B
:1085500092B29BB22285B3B1AAB94346802120468C
:108560000095FFF7ECFD00287FF477AF638D9BB299
:10857000FF2B28D9FF224FF08073228500903946C7
:108580002046FFF7CBFC638D9BB2002BCCD12A4653
:1085900041462046FFF70EFE00287FF45EAF202103
:1085A0002368D9615A6822F0FF7222F48B3222F4D8
:1085B000FF7222F001025A6084F8411084F84000F2
:1085C00084F842004AE7628D4FF0007392B2228530
:1085D0000090D2B2D3E7022040E700BFFA1A063477
:1085E000002000802DE9F74F9946013B012B0446FE
:1085F0000F461646BDF834A0DDF8388004D940F6A1
:10860000C1216948FAF766F894F84130202B40F010
:10861000C9800C9B13B1BAF1000F06D14FF400735F
:108620006364012003B0BDE8F08F94F84030012B63
:1086300000F0B8804FF0010B84F840B0FBF76CFD00
:108640001923009005465A464FF400412046FFF793
:1086500076FD03460028E4D1222284F841204022FE
:1086600084F842200C9A60646262504A6063394622
:108670002046A4F82AA000925FFA89F2FFF74EFC88
:108680002A4641462046FFF72FFD20BBB9F1010FD6
:10869000236816D1F6B29E6200224346402120464E
:1086A0000095FFF74CFDB0B9638D9BB2FF2B404B9B
:1086B00015D8628D92B222850093D2B24FF000732A
:1086C00012E0320A9A6241462A462046FFF70CFD24
:1086D00008B92368DEE7002384F84030A1E7FF22D1
:1086E000228500934FF0807339462046FFF716FC31
:1086F00043460022042120460095FFF720FD002874
:108700008FD123685A6A636A1A70636A228D0133B3
:108710006362638D013A013B9BB26385638D92B2C4
:108720009BB22285B3B1AAB9434680212046009569
:10873000FFF705FD00287FF474AF638D9BB2FF2B1C
:1087400028D9FF224FF080732285009039462046B9
:10875000FFF7E4FB638D9BB2002BC9D12A4641464B
:108760002046FFF727FD00287FF45BAF2021236818
:10877000D9615A6822F0FF7222F48B3222F4FF7220
:1087800022F001025A6084F8411084F8400084F815
:10879000420047E7628D4FF0007392B2228500904D
:1087A000D2B2D3E702203DE7FA1A06340020008057
:1087B0000024008090F841007047406C7047000032
:1087C00038B5274A0368044693420D461CD002F18F
:1087D0007042934218D0234A934215D002F170425E
:1087E000934211D0204A93420ED002F1704293423C
:1087F0000AD01E4A934207D002F17042934203D03E
:1088000062211B48F9F766FF35F4805303D06321DA
:108810001748F9F75FFF94F84130202BD9B21CD1EB
:1088200094F84030012B18D02423002084F84130E4
:1088300023681A6822F001021A601A6822F4805232
:108840001A601A682A431A601A6842F001021A6014
:1088500084F8411084F8400038BD0220FCE700BFD6
:108860000054005000580050005C0050001C00569E
:108870003F1B063438B5264A0368044693420D462A
:108880001CD002F17042934218D0224A934215D074
:1088900002F17042934211D01F4A93420ED002F16E
:1088A000704293420AD01D4A934207D002F17042AF
:1088B000934203D090211A48F9F70CFF0F2D03D9EA
:1088C00091211748F9F706FF94F84130202BD8B2D0
:1088D0001BD194F84030012B17D0242384F8413069
:1088E00023681A6822F001021A601A6822F4706282
:1088F00042EA05221A601A6842F001021A6084F8FE
:108900004100002084F8400038BD0220FCE700BF91
:108910000054005000580050005C0050001C0056ED
:108920003F1B063438B504460D4621B940F21111FB
:108930002448F9F7CFFE0C2C04D94FF48971214853
:10894000F9F7C8FE2B685A1E012A09D9202B2FD807
:10895000032B31D91C4A043B22FA03F3DB072BD546
:108960002B68802B01D0FF2B04D94FF48A71154856
:10897000F9F7B0FE6B68032B04D940F215111148CA
:10898000F9F7A8FE2B6893FAA3F3B3FA83F2A000D9
:1089900000F1A84000F51030D0F8103C696823F4CD
:1089A0005C7343EA012343EA0213C0F8103C38BD6C
:1089B000402BD5D0802BD3D040F213110148F9F7CA
:1089C00089FECDE7871B063411100010384B37B5F0
:1089D000984204460D465CD81E3B98423BD8354B26
:1089E00098424BD8B0F1005F3AD2334B984240D80E
:1089F000C21F223B9A4237D9032D04D94FF4BA71D2
:108A00002E48F9F767FE0122200F800000F1A840F0
:108A100000F51030036904F01F040193019BA2408C
:108A200023EA02030193019905F00103A3400B43DC
:108A30000193019BC5F340010361036BA1400193C6
:108A4000019B23EA02030193019B19430191019BBE
:108A5000036303B030BD00F14042194B023A1DE000
:108A6000184B00F1604219E0A0F10803172B18D849
:108A7000C2E700F170431C3B022BF8E7124B98420F
:108A800003D8B0F1405F0CD3B6E7104B984208D141
:108A9000B2E700F130421E2A03D80D4BD340DB076A
:108AA000AAD440F273110548F9F714FEA4E700BFF9
:108AB0001F0000401E0000201A000010871B063413
:108AC0000B8C832E3BF0DF77080000300A0000306B
:108AD0007FEFDE4903681C4A10B5934204462CD050
:108AE00002F17042934228D002F1805280329342C8
:108AF00023D002F1704293421FD002F180528032A3
:108B000093421AD002F17042934216D002F1805281
:108B10008032934211D002F1704293420DD002F1A3
:108B200080528032934208D002F17042934204D0C6
:108B300040F207410548F9F7CDFD2268136823F498
:108B40008013136010BD00BF80300252CC1B06346E
:108B500038B504680546606810F009003FD1A86088
:108B6000012028711220013BE060C4F804211A445E
:108B7000C4F80821D4F8003123F006031943049BFC
:108B8000C4F80011012BA3680AD143F01003A360BD
:108B9000D4F8003143F00103C4F8003100201DE097
:108BA00023F01003A360D4F8003143F00103C4F8AC
:108BB0000031FBF7B1FA04462B685B68DB06EDD4A5
:108BC000FBF7AAFA001BC828F6D92B685B68DA06FF
:108BD000F2D41023AB60062301202B7138BD022094
:108BE000FCE7000038B5044650B30368154A9342C9
:108BF00008D002F17042934204D04FF4B57112488C
:108C0000F9F768FD23685B68D90707D4002022685C
:108C1000A060136843F00103136038BDFBF77CFAD2
:108C2000054623685B68DB07F0D5FBF775FA401B48
:108C30000128F6D923685B68DA07F2D41023A36011
:108C40000120EAE700FC0D58141C063410B5044658
:108C5000C8B103680D4A934207D002F170429342B3
:108C600003D0BC210A48F9F735FD237913B9204612
:108C7000F9F71CFD0023A360012323712046BDE802
:108C80001040FFF7AFBF012010BD00BF00FC0D5822
:108C9000141C063473B50E4615460446E0B103684D
:108CA0000E4A934208D002F17042934204D040F23F
:108CB0004D210B48F9F70EFD25B940F24E21084829
:108CC000F9F708FD00233246009306212B46204683
:108CD000FFF73EFF02B070BD0120FBE700FC0D581E
:108CE000141C0634042838B505460C4612D940F247
:108CF0006A311D48F9F7EEFC012C15D940F26B31B1
:108D00001948F9F7E7FC042D0ED8DFE805F0060E48
:108D1000151C24000129F6D9F0E7144AD36B23F07F
:108D2000807343EA0463D36338BD104AD36B23F0E6
:108D3000007343EA4463F6E70C4AD36B23F0806385
:108D400043EA8463EFE7094A536B23F0807343EAF5
:108D500004635363E8E7054A936B23F0807343EAA7
:108D600004639363E0E700BF5E1C063400480256CC
:108D7000024AD36B43F48063D363704700480256C2
:108D8000024AD36B43F48073D363704700480256A2
:108D9000024AD36B43F40073D36370470048025612
:108DA000024A536B43F48073536370470048025682
:108DB000024AD36B43F00403D36370470048025662
:108DC000024B5868C0F3C000704700BF00800256D5
:108DD000024B5868C0F38000704700BF0080025605
:108DE000024B5868C0F30020704700BF0080025655
:108DF00070B50B691B4D8E68040162591B0243EA72
:108E000006534E6822F00C4222F0FF0233439A428E
:108E100026D1154BCA68E35823F07F4393421FD1F4
:108E2000124BE258D1E905631B0602F07C5243EA7B
:108E3000C6639A4214D10E4B5A684FF4807303FAFA
:108E400000F090430AD0635913F0006F0CBF012368
:108E500003230868C01A18BF012070BD0223F8E779
:108E60000120FAE7808002568480025688800256EC
:108E70000080025670B54FF48074094E8440C6F8E5
:108E80000048FBF749F9054673681C4201D00020F1
:108E900070BDFBF741F9401B0128F5D90320F7E726
:108EA000008002560B682DE9F047022B81460D46E3
:108EB000834F844E4FEA001440F099804B6833F0A2
:108EC000405304D040F2FA717F48F9F703FCEB6895
:108ED000B3F1807F04D340F2FB717B48F9F7FAFBD2
:108EE000AB68013B3E2B04D940F2FC717648F9F7A0
:108EF000F1FB40F6BA122B690A3B934204D940F2C7
:108F0000FD717148F9F7E6FB6B69013B062B04D94B
:108F100040F2FE716C48F9F7DDFBAB69013B062BB3
:108F200004D940F2FF716848F9F7D4FB4FF4807818
:108F3000664B08FA09F8C3F80080FBF7EDF88146A4
:108F4000DFF894A1DAF8043038EA030340D0A359DB
:108F50005F4943F00403A351E35923F00063E35155
:108F60002B69AA681B0243EA02536A68E05913435B
:108F7000584A02401343E351A259D5E905031B06A1
:108F800022F07C5243EAC0631343A3516358EA685A
:108F900003F07F4313436350A35923F00803A35105
:108FA000EB681BB1A35943F00A03A351A3594A4DDF
:108FB00043F0804343F00103A351C5F80088FBF759
:108FC000ABF804466B6818EA030F0AD0002006E0ED
:108FD000FBF7A2F8A0EB09000128B3D90320BDE8F4
:108FE000F087FBF799F8001B0128EBD9F6E7032B74
:108FF00046D14B687BB3B3F1805F32D0B3F1005FF1
:1090000032D0B3F1405F0DD040F63F012E48F9F762
:1090100061FB6B68B3F1005F26D003D8DBB1B3F11D
:10902000805F1ED04FF48076284B06FA09F61E604A
:10903000FBF772F88046DFF8A090D9F8043036EAE2
:10904000030316D0E3596A6823F0F043134343F057
:109050000063E351BAE7FFF7B3FE0028E2D1012035
:10906000BDE7FFF7B5FEF8E71B4B5B68DB06F6D5FF
:10907000D8E7FBF751F8A0EB08000128DDD9ADE7F0
:10908000012BA3D14FF48075A359854023F0804371
:10909000A3510E4BDFF840801D60FBF73DF80646FC
:1090A000D8F8043035EA030303D0E35923F0006312
:1090B000CFE7FBF731F8801B0128F1D98EE700BF1D
:1090C0008080025688800256A61C06340090025604
:1090D00084800256FF00008C00800256B0F1005FD1
:1090E00008B52BD00ED8B8B1B0F1805F1FD00022E8
:1090F000B1F1005F44D028D889B3B1F1805F38D096
:10910000002234E0B0F1405FF1D1214B5A681205E2
:1091100005D4D3F8B02007E0FFF762FE08B10122C2
:10912000E6E71B4BD3F88020C2F3C062E0E7184BA0
:109130005A689205F3D4D3F89020F5E7144B5A6897
:109140005005ECD4D3F8A020EEE7B1F1405FD7D1C1
:109150000F4B596809050AD4D3F8B03005E0FFF782
:109160003FFE20B90A4BD3F880301801C8D510460D
:1091700008BD074B59688905F9D4D3F89030F4E756
:10918000034B59684805F2D4D3F8A030EDE700BF8F
:10919000008002562DE9F74F044618B9012003B0AC
:1091A000BDE8F08F036833B1DD0604D14FF4B97127
:1091B0009348F9F78FFA934B1E6A1D6AD3F8802003
:1091C00006F4401602F0E04BD3F8902005F040552D
:1091D00002F0E04AD3F8A02002F0E049D3F8B02032
:1091E0005F68236802F0E048D80763D423689907D2
:1091F00000F1D4802368D80622D5E369002B00F063
:109200004783042B00F04D8340F205217C48F9F799
:1092100061FAB6F5801F40F04881E369002BBDD0AC
:10922000636A1F2B04D94FF406717548F9F752FA97
:10923000744A616A536C23F4F81343EA014353649C
:109240002368180700F189812368590700F1B48168
:10925000A36A032B04D940F2A5216948F9F73AFA29
:10926000A76A002F40F01082636C032B04D940F2F0
:10927000D3216348F9F72EFA676C002F40F046823D
:10928000236E032B04D940F201315D48F9F722FA2D
:10929000276E002F40F07A82E36F032B04D940F24F
:1092A0002E315748F9F716FAE76F002F40F0B082D9
:1092B000002074E76368002B00F0138323F400425E
:1092C000102A00F00583504A934200F001834FF4C6
:1092D000C0714B48F9F7FEF9B6F5001F03D163687A
:1092E000002B83D15AE7B5F1005FF8D0BBF1005FE6
:1092F00001D1FA05F3D4BAF1005F01D1BB05EED478
:10930000B9F1005F01D17805E9D4B8F1005F01D16E
:109310003905E4D462683B4B102A14D1C3F8002805
:10932000FAF7FAFE636801905BB3364B5A68D206CF
:109330003FF55CAFFAF7F0FE019BC01A6428314B91
:10934000F4D903202BE73AB91021304A11605A6D45
:1093500022F4C0325A65E3E748F210018A4209D18B
:109360005A6D42F400425A655A6D22F480325A65B1
:109370001022D3E724498A42E6D15A6D42F4C03222
:10938000F5E7204B5A68D3067FF530AFFAF7C4FEF5
:10939000019BC01A64281B4BF4D9D2E7E368002B69
:1093A00000F08882082B00F08C8240F2B51114483E
:1093B000F9F790F966BBE368002B3FF4EFAE236941
:1093C00033F4C07304D040F2C7110D48F9F782F9A5
:1093D00063697F2B04D94FF4E4710948F9F77AF9EE
:1093E000084A2169936C23F4C0730B439364936C14
:1093F000616923F4FE0343EA01439364FAE600BF84
:10940000A61C06340080025610800100009002560F
:10941000002DD0D0BBF1000F01D1F805CBD4BAF1AB
:10942000000F01D1B905C6D4B9F1000F01D17A05F9
:10943000C1D4B8F1000F01D13B05BCD4E36813B32C
:10944000236933F4C07304D04FF4EB71AB48F9F7E0
:1094500041F963697F2B04D940F2D711A748F9F786
:1094600039F90822A64BC3F80028FAF755FE0190F7
:10947000FFF7A6FC0028B3D1FAF74EFE019BC01AF5
:109480000128F5D95DE708229E4B1A60FAF744FEE1
:109490000190FFF795FC00283FF4ACAEFAF73CFED4
:1094A000019BC01A0128F4D94BE7B5F1805F3FF466
:1094B000B4AEBBF1805F02D1F9053FF5AEAEBAF1B3
:1094C000805F02D1BA053FF5A8AEB9F1805F02D145
:1094D0007B053FF5A2AEB8F1805F02D13F053FF5B5
:1094E0009CAEE36943B3236A33F4007304D04FF4B2
:1094F00009718248F9F7EEF8636A1F2B04D940F22C
:1095000025217E48F9F7E6F87D4A216A536C23F459
:1095100000730B4353640423C2F80038FAF7FCFDD0
:109520000746FFF755FC00287FF482AEFAF7F4FDFA
:10953000C01B0128F5D904E70422724B1A60FAF720
:10954000EBFD0746FFF744FC00283FF479AEFAF73D
:10955000E3FDC01B0128F5D9F3E6A369012B04D96B
:1095600040F255216548F9F7B5F8A26901238AB19F
:10957000DFF88C81C8F80038FAF7CEFD0746D8F836
:109580000430DA073FF560AEFAF7C6FDC01B0128CC
:10959000F5D9D6E65B4ADFF868811360FAF7BCFDBF
:1095A0000746D8F80430DB077FF54EAEFAF7B4FD76
:1095B000C01B0128F5D9C4E6A36833F002020AD023
:1095C00048F2020223F48033934204D04FF4207116
:1095D0004A48F9F77FF8A368494F022B13D1C7F81F
:1095E0000038FAF799FD41F288380746DFF8109104
:1095F000D9F8043098073FF52BAEFAF78DFDC31B61
:109600004345F5D99DE6D3B902223E4B41F2883954
:109610001A603B6C23F480333B643B6C23F40043BF
:109620003B64FAF779FD80467B6899077FF510AEB9
:10963000FAF772FDA0EB08034B45F5D981E648F235
:109640000202934209D13B6C43F400433B643B6C00
:1096500023F480333B640223C1E72B4A934207D1B2
:109660003B6C43F400433B643B6C43F48033F1E7D1
:109670000222244B1A603B6C23F400433B643B6C96
:1096800023F480333B64ACE7002004F12801FFF7AA
:10969000AFFB0246FFF7A4FB012A25D1184BB6F514
:1096A000401FD3F8C470D3F8C800D3F8D820D3F83B
:1096B000EC3003D117F0405F3FF470ADB5F1405F7F
:1096C0000BD110F0405F3FF469AD12F0405F3FF402
:1096D00065AD13F0405F3FF461AD0020FFF7E2FBA2
:1096E00000283FF4C1AD59E5022F7FF4BDAD00283D
:1096F0007FF4BAADFFF7BEFBF2E700BFA61C06344D
:10970000008002560090025602800100012004F100
:109710004401FFF76DFB774B01285A682CD1B6F551
:10972000401FD3F8C470D3F8C800D3F8D820D3F8BA
:10973000EC3005D107F04057B7F1805F3FF42EAD14
:10974000B5F1405F11D100F04050B0F1805F3FF4BF
:1097500025AD02F04052B2F1805F3FF41FAD03F03F
:109760004053B3F1805F3FF419AD0120FFF79AFB3E
:1097700000283FF485AD11E5022F7FF481AD9205FD
:109780003FF57EAD0120FFF775FBF1E7022004F104
:109790006001FFF72DFB0246FFF722FB012A2DD1C6
:1097A000544BB6F5401FD3F8C470D3F8C800D3F8B3
:1097B000D820D3F8EC3005D107F04057B7F1005F5F
:1097C0003FF4ECACB5F1405F11D100F04050B0F186
:1097D000005F3FF4E3AC02F04052B2F1005F3FF4AF
:1097E000DDAC03F04053B3F1005F3FF4D7AC02208F
:1097F000FFF758FB00283FF44FADCFE4022F7FF472
:109800004BAD00287FF448AD3846FFF733FBF1E756
:10981000032004F17C01FFF7EBFA364B01285A686C
:109820002CD1B6F5401FD3F8C440D3F8C800D3F804
:10983000D820D3F8EC3005D104F04056B6F1405FA3
:109840003FF4ACACB5F1405F11D100F04050B0F145
:10985000405F3FF4A3AC02F04052B2F1405F3FF4EE
:109860009DAC03F04053B3F1405F3FF497AC03204D
:10987000FFF718FB003818BF012090E4022F7FF497
:1098800017AD13053FF514AD0320FFF7F3FAF1E729
:10989000B6F5801F3FF482ACB5F1805F7FF409AE6E
:1098A0007CE4B6F5801F3FF4BBACB5F1805F7FF47C
:1098B00000AEB5E4002E3FF471AC002D7FF4AAADEC
:1098C0006CE4002E3FF47BAD002D3FF478ADA1E5B4
:1098D000B6F5001F3FF48AACB5F1005F7FF406AD2A
:1098E00084E4B6F5001F3FF459ACB5F1005F7FF496
:1098F000FDAC53E400800256224A10B5136A03F40B
:109900004013B3F5001F3AD005D8E3B1B3F5801F7B
:109910001FD000201CE0B3F5401FFAD1D2F8C400DC
:10992000D2F8C430C0F3074003F04053B3F1005FF6
:1099300000F1010420D014D8CBB1B3F1805FE8D19D
:1099400003F02AFC15E0936C0F48C3F3C113D84011
:1099500010BD536C0D4813F4007F0D4B08BF184623
:10996000F6E7B3F1405FD4D103F096FC01E003F0D9
:10997000D3FBB0FBF4F0EBE703F04EFCF9E705484E
:10998000E6E700BF008002560090D0030024F400F8
:1099900000093D00006CDC022DE9F041044610B9DD
:1099A0000120BDE8F08103687F2B04D940F27E31AD
:1099B0009348F8F78FFE23681F0713D52369072BF9
:1099C00004D940F285318E48F8F784FE8D4A21692A
:1099D000536A03F00703994281BF536A23F00703D8
:1099E0000B4353622368DE0616D5636933F03003F8
:1099F00006D0402B04D040F28F318148F8F76AFE40
:109A0000804A6169536A03F07003994281BF536AC7
:109A100023F070030B43536223689D0617D5A36997
:109A200033F4405307D0B3F5804F04D040F299315E
:109A30007348F8F74FFE734AA169536A03F4E04391
:109A4000994281BF536A23F4E0430B435362236876
:109A5000580617D5E36933F4403307D0B3F5802FA8
:109A600004D040F2A3316648F8F734FE654AE16954
:109A7000536A03F4E023994281BF536A23F4E0233D
:109A80000B4353622368590717D5E36833F4401337
:109A900007D0B3F5800F04D040F2AD315848F8F745
:109AA00019FE584AE168536A03F4E003994281BF02
:109AB000536A23F4E0030B4353622368DA072AD581
:109AC000636833F4403304D04FF46E714C48F8F7B8
:109AD00001FE6368B3F5003F40F09A80494B5B6834
:109AE000DB067FF55DAF474D62682B6A41F2883730
:109AF00023F4403313432B62FAF70EFB06462B6A1E
:109B0000626803F44013B3EB021F40F0B780FFF725
:109B1000F3FE3D4B186023689F0700F1B780236870
:109B20005E0700F15C812368180713D52369072BB2
:109B300004D940F263413248F8F7CCFD314A21693B
:109B4000536A03F0070399423FBF536A23F00703A8
:109B50000B4353622368D90616D5636933F030038B
:109B600006D0402B04D040F26D412548F8F7B2FDF5
:109B7000244A6169536A03F0700399423FBF536AF4
:109B800023F070030B43536223689A0617D5A36929
:109B900033F4405307D0B3F5804F04D040F27741FF
:109BA0001748F8F797FD174AA169536A03F4E04391
:109BB00099423FBF536A23F4E0430B435362236847
:109BC0005B0617D5E36933F4403307D0B3F5802F34
:109BD00004D040F281410A48F8F77CFD094AE16966
:109BE000536A03F4E02399423FBF536A23F4E0230E
:109BF0000B435362054BBDE8F0411868FAF7A2BA6F
:109C0000A61C063400800256C4B30734C8B3073418
:109C1000B3F5403F26D1236A33F0405304D040F2DD
:109C2000C7317B48F8F756FD636A013BFF2B04D927
:109C30004FF472717648F8F74DFD764E256AD6F8E6
:109C4000C400294600F04050FFF748FA01287FF48D
:109C5000A7AE636A013B45EA0345C6F8C450C6F89F
:109C6000400A40E7B3F5803F05D1FFF7B1F800287F
:109C70007FF439AF94E6FFF7A3F8F8E7FAF74CFA68
:109C8000801BB8427FF63BAF03208AE6A36833F01F
:109C9000407304D040F201415D48F8F71BFDA36812
:109CA000B3F1007F1ED15B4B5B68DD067FF578AEBC
:109CB000584DA2682B6A41F2883723F04073134352
:109CC0002B62FAF729FA06462B6AA26803F0405382
:109CD000B3EB021F3FF423AFFAF71EFA801BB84222
:109CE000F2D9D1E7B3F1407F6FD1A36A33F040538B
:109CF00004D04FF482614648F8F7ECFCE36A013B7C
:109D0000FF2B04D940F211414148F8F7E3FC236BE3
:109D100033F0405304D040F212413D48F8F7DAFCEA
:109D2000636B013BFF2B04D940F213413848F8F72D
:109D3000D1FCA36B33F0405304D040F214413448BB
:109D4000F8F7C8FCE36B013BFF2B04D940F2154147
:109D50002F48F8F7BFFC2F4DD4F82880D5F8C8005D
:109D6000414600F04050FFF7B9F901287FF418AEE2
:109D7000D5F8D800276B00F040503946FFF7AEF910
:109D800001287FF40DAED5F8EC00A66B00F0405032
:109D90003146FFF7A3F901287FF402AEE36A013BE5
:109DA00048EA0343C5F8C830636B013B47EA034701
:109DB000C5F8D870E36B013B46EA034640F2224304
:109DC000C5F8EC60C5F8403A72E72BB9FEF7F8FF2A
:109DD00000287FF46DAFE3E5FEF7FAFFF8E7E368EC
:109DE00033F4401307D0B3F5800F04D04FF48B61E8
:109DF0000748F8F76FFC074AE168536A03F4E00389
:109E000099423FBF536A23F4E0030B4353628AE64F
:109E1000A61C063400800256224A10B5136A03F0CD
:109E20004053B3F1005F3AD005D8E3B1B3F1805F9E
:109E30001FD000201CE0B3F1405FFAD1D2F8C80077
:109E4000D2F8C830C0F3074003F04053B3F1005FCD
:109E500000F1010420D014D8CBB1B3F1805FE8D178
:109E600003F09AF915E0936C0F48C3F3C113D8407F
:109E700010BD536C0D4813F4007F0D4B08BF1846FE
:109E8000F6E7B3F1405FD4D103F006FA01E003F046
:109E900043F9B0FBF4F0EBE703F0BEF9F9E705484E
:109EA000E6E700BF008002560090D0030024F400D3
:109EB00000093D00006CDC0208B5FFF7ADFF034B65
:109EC0005B6AC3F30253D84008BD00BF008002564E
:109ED00008B5FFF7A1FF054B5A6A5B6AC2F302524D
:109EE000D04003F00703D84008BD00BF00800256F1
:109EF000024A536D23F040035365704700800256B9
:109F0000024A536D43F04003536570470080025688
:109F1000024B586DC0F38010704700BF008002569E
:109F2000024B5868C0F30010704700BF0080025613
:109F3000024B5868C0F3C000704700BF0080025653
:109F4000024B5868C0F38000704700BF0080025683
:109F5000024B5868C0F34000704700BF00800256B3
:109F6000074930B5C4B2C0F304256358020EAA40B5
:109F7000C0F3074023EA0203A8400343635030BD07
:109F800044810256054BC2B2D158C0F30422030EDD
:109F900093400B40D34040EA03407047448102564F
:109FA000024BD3F84002C0F3801070470080025685
:109FB000034BD3F8DC00C0F307400130704700BF0B
:109FC00000800256024BD3F84002C0F3C010704725
:109FD00000800256034BD3F8E000C0F30740013085
:109FE000704700BF00800256024BD3F84002C0F316
:109FF0000020704700800256034BD3F8E400C0F302
:10A0000007400130704700BF00800256024BD3F872
:10A010004002C0F34030704700800256034BD3F833
:10A02000F800C0F307400130704700BF00800256BF
:10A03000024BD3F84002C0F38030704700800256D4
:10A04000034BD3F8FC00C0F307400130704700BF5A
:10A0500000800256024B5B6AC3F30253D84070473C
:10A0600000800256B0F1005F08B523D005D848B192
:10A07000B0F1805F11D0002008BDB0F1405FFAD18F
:10A080000F48F9E7FFF754FF0028F4D00D4B0E48B6
:10A090009B6CC3F3C113D840EEE7FFF751FF0028D4
:10A0A000E9D0084B09485B6C13F4007F084B08BFEC
:10A0B0001846E1E7FFF734FF0028DCD00548DBE76E
:10A0C0000080BB00008002560090D0030024F40002
:10A0D00000093D00006CDC0206EE102A07EE903A03
:10A0E00006EE900AB8EE466AFAEEC47A07EE101A47
:10A0F00077EE867AF8EE666AB8EE477A67EEA67A69
:10A1000087EE876ADDED007AF8EE677AC6EE276A99
:10A11000DDED017AF8EE677A86EEA77AFCEEC77A73
:10A1200017EE900A70470000D0E9002323F07E4329
:10A130001A4370B5044603D18821B648F8F7CAFA25
:10A1400023681A0140F19080D4F8883123F400721A
:10A15000B2F5807F5AD0B3F5007F57D023F4005278
:10A16000B2F5985F52D023F48042B2F50C5F4DD027
:10A1700023F41042B2F5864F48D023F40042B2F5E2
:10A18000E64F43D023F44052B2F5034F3ED023F4C0
:10A190008031B1F5634F39D09F498A4236D001F5FD
:10A1A00080418A4232D001F580418A422ED023F488
:10A1B000043001F58041884228D023F4003001F5B5
:10A1C0004051884222D001F580518A421ED001F5CB
:10A1D00080418A421AD001F580418A4216D001F5A9
:10A1E00080418A4212D001F580418A420ED001F5A9
:10A1F00080418A420AD001F580418A4206D0874ACE
:10A20000934203D08E218348F8F764FA844BD4F844
:10A210008811D3F85C3113F4407341F0E986B1F54D
:10A22000807F09D1F9F778FF41F288360546FFF7BC
:10A230008FFE002801F0ED86D4F88831784A03F4C7
:10A240004070B0F5407F08D1D2F85C1123F4407320
:10A2500021F47C310B43C2F85C31D2F85C3123F439
:10A2600040730343C2F85C31002523685E0738D58C
:10A27000D4F8B830072B03D9D4216648F8F72AFA66
:10A28000D4F8B830042B41F0CD86A36A33F04053A4
:10A2900003D0D9215F48F8F71DFAE36A013BFF2B91
:10A2A00003D9DA215B48F8F715FA5D4AE16AD2F87A
:10A2B000D430A06A23F0435323F47C1301390343C1
:10A2C00043EA0143C2F8D4301023C2F8403A544A5A
:10A2D000D4F8B810D2F85C3123F007030B43C2F86E
:10A2E0005C316368580239D5D4F8AC304D4A23F458
:10A2F0004033934204D04FF492714648F8F7EAF99C
:10A30000D4F8AC30484A934241F04887A36933F00F
:10A31000405304D040F229113E48F8F7DBF9E369D5
:10A32000013BFF2B04D94FF495713A48F8F7D2F965
:10A330003B4AE169D2F8CC30A06923F0435323F4BF
:10A340007C130139034343EA0143C2F8CC300423B0
:10A35000C2F8403AD4F8AC00FFF702FE6368190275
:10A3600039D5D4F8B030314A23F44033934204D085
:10A3700040F251112748F8F7ADF9D4F8B0302C4A23
:10A38000934241F03B87A36933F0405304D04FF42C
:10A39000AB712048F8F79EF9E369013BFF2B04D924
:10A3A00040F257111B48F8F795F91D4AE169D2F8B8
:10A3B000CC30A06923F0435323F47C1301390343C9
:10A3C00043EA0143C2F8CC300423C2F8403AD4F83F
:10A3D000B000FFF7C5FD6368DA014ED5D4F8B4309C
:10A3E000144A23F44033934204D04FF4BF71094818
:10A3F000F8F770F9D4F8B4300F4A934241F02E8741
:10A40000A36933F0405319D040F283110148F8F7A3
:10A4100061F913E0EB1C06340003010000E30300C4
:10A420000080025614000003140002031404000309
:10A43000140402031408000314080203E369013B37
:10A44000FF2B04D94FF4C271C148F8F743F9C14A50
:10A45000E169D2F8CC30A06923F0435323F47C1394
:10A460000139034343EA0143C2F8CC300423C2F864
:10A47000403AD4F8B400FFF773FD23681B053CD5C0
:10A48000D4F8A83033F0300304D040F2AB11B04818
:10A49000F8F720F9D4F8A830202B41F00F87A369F2
:10A4A00033F0405304D04FF4D871A948F8F712F9AB
:10A4B000E369013BFF2B04D940F2B111A448F8F73E
:10A4C00009F9A44AE169D2F8CC30A06923F04353DA
:10A4D00023F47C130139034343EA0143C2F8CC302F
:10A4E0000423C2F8403A9B4AD4F8A810D2F84C3161
:10A4F00023F030030B43C2F84C3123685E0039D59A
:10A50000D4F82C31944A23F44033934204D04FF4CE
:10A51000EC718F48F8F7DEF8D4F82C318F4A93426B
:10A5200041F0FA86236A33F0405304D040F2DD1143
:10A530008748F8F7CFF8636A013BFF2B04D94FF443
:10A54000EF718348F8F7C6F8824A616AD2F8D030D2
:10A55000206A23F0435323F47C130139034343EA75
:10A560000143C2F8D0300823C2F8403AD4F82C0195
:10A57000FFF7F6FC2368002B39DAD4F83031784A3B
:10A5800023F44033934204D040F205217048F8F799
:10A59000A1F8D4F83031734A934241F0ED86236A32
:10A5A00033F0405304D040F20A216948F8F792F89A
:10A5B000636A013BFF2B04D940F20B216448F8F792
:10A5C00089F8644A616AD2F8D030206A23F0435394
:10A5D00023F47C130139034343EA0143C2F8D0302A
:10A5E0000823C2F8403AD4F83001FFF7B9FC2368D9
:10A5F000D8074FD5D4F8BC3033F0300306D0402B09
:10A6000004D040F232215248F8F764F8D4F8C03050
:10A61000013BFF2B04D940F233214D48F8F75AF89B
:10A62000D4F8BC30202B41F0EF86A36B33F04053BD
:10A6300004D04FF40E714648F8F74CF8E36B013B39
:10A64000FF2B04D940F239214148F8F743F8414A39
:10A65000E16BD2F8DC30A06B23F0435323F47C137E
:10A660000139034343EA0143C2F8DC304023C2F816
:10A67000403A3849D4F8C020D1F84431D4F8BC006D
:10A6800023F47F4323F07003013A034343EA022398
:10A69000C1F84431236899073BD5D4F8C430072B5F
:10A6A00004D940F261212A48F8F714F8D4F8C430EC
:10A6B000022B41F0D786A36B33F0405304D040F215
:10A6C00066212348F8F706F8E36B013BFF2B04D91A
:10A6D00040F267211E48F7F7FDFF1E4AE16BD2F8F2
:10A6E000DC30A06B23F0435323F47C130139034384
:10A6F00043EA0143C2F8DC304023C2F8403A154A2D
:10A70000D4F8C410D2F8443123F007030B43C2F845
:10A71000443123681A0735D5D4F8903033F04053CC
:10A7200004D040F28E210A48F7F7D4FFD4F89430D1
:10A73000013BFF2B04D940F28F210548F7F7CAFFF0
:10A74000044AD4F89410D2F80831D4F890000BE001
:10A75000EB1C0634008002561C0000031C000203A0
:10A760001C0400031C04020323F0435323F47C1352
:10A770000139034343EA0143C2F808314FF400337F
:10A78000C2F8403A2368DB0642D5D4F8C83033F427
:10A79000401304D040F29D21C348F7F79BFFD4F843
:10A7A000C830B3F5001F41F08B86D4F8883033F001
:10A7B000405304D040F2A221BB48F7F78BFFD4F8F6
:10A7C0008C30013BFF2B04D940F2A321B648F7F7A8
:10A7D00081FFB64AD4F88C10D2F80431D4F888003E
:10A7E00023F0435323F47C130139034343EA014329
:10A7F000C2F804314FF48033C2F8403AAB4AD4F87F
:10A80000C810D2F8443123F440130B43C2F844314A
:10A8100023689E063ED5D4F8CC3033F4405304D0A0
:10A8200040F2BD21A048F7F755FFD4F8CC30B3F57E
:10A83000005F41F04E86236E33F0405304D040F267
:10A84000C2219948F7F746FF636E013BFF2B04D9FD
:10A8500040F2C3219448F7F73DFF944A616ED2F865
:10A86000F030206E23F0435323F47C13013903436B
:10A8700043EA0143C2F8F0304FF40063C2F8403AB3
:10A880008A4AD4F8CC10D2F8483123F440530B4311
:10A89000C2F848312368580616D5D4F8D03033F4BE
:10A8A000803207D0B3F5802F04D040F2DD217E48FE
:10A8B000F7F710FF7D4AD4F8D010D2F8483123F4CE
:10A8C000E0230B43C2F848312368190613D5D4F8A6
:10A8D000D43033F4801304D040F2E7217248F7F704
:10A8E000F9FE724AD4F8D410D2F8483123F4801318
:10A8F0000B43C2F848312368DA0513D5D4F8D830B1
:10A9000033F0807304D040F2F1216748F7F7E2FE9C
:10A91000664AD4F8D810D2F8483123F080730B433C
:10A92000C2F8483123689B054BD5D4F8DC30032BA3
:10A9300004D940F2FB215C48F7F7CCFED4F8E030B4
:10A94000013B0F2B04D94FF43F715748F7F7C2FE74
:10A95000D4F8DC30022B41F0C585A36E33F04053B0
:10A9600004D040F201315048F7F7B4FEE36E013BEA
:10A97000FF2B04D940F202314B48F7F7ABFE4B4AAC
:10A98000E16ED2F8F430A06E23F0435323F47C132D
:10A990000139034343EA0143C2F8F4304FF48053D2
:10A9A000C2F8403A4149D4F8E020D1F84831D4F80F
:10A9B000DC0023F0F303013A034343EA0213C1F836
:10A9C000483123685E0540D5D4F8E430032B04D920
:10A9D00040F21D313448F7F77DFED4F8E430022B05
:10A9E00041F08885D4F8983033F0405304D040F2D9
:10A9F00022312D48F7F76EFED4F89C30013BFF2B37
:10AA000004D940F223312848F7F764FE274AD4F8E6
:10AA10009C10D2F80C31D4F8980023F0435323F45F
:10AA20007C130139034343EA0143C2F80C314FF46C
:10AA30008023C2F8403A1D4AD4F8E410D2F84C31D1
:10AA400023F003030B43C2F84C312368D8044AD5E2
:10AA5000D4F8E830164A23F4403191420AD023F466
:10AA6000803302F58022934204D040F23D310E48FB
:10AA7000F7F730FED4F8E8300E4A934241F04285B1
:10AA8000236D33F0405304D040F242310648F7F7CB
:10AA900021FE636D013BFF2B0ED940F2433102488A
:10AAA000F7F718FE08E000BFEB1C063400800256E2
:10AAB0000C0000070C000207BD4A616DD2F8E830B7
:10AAC000206D23F0435323F47C130139034343EAFD
:10AAD0000143C2F8E8304FF40073C2F8403AD4F8AA
:10AAE000E800FFF73DFA2368990440D5D4F8EC302C
:10AAF000B04A23F4403191420AD023F4803302F566
:10AB00008022934204D040F26A31AB48F7F7E2FD6D
:10AB1000D4F8EC30A94A934241F02585236D33F0F7
:10AB2000405304D040F26F31A348F7F7D3FD636D73
:10AB3000013BFF2B04D94FF45C719F48F7F7CAFD26
:10AB40009B4A616DD2F8E830206D23F0435323F423
:10AB50007C130139034343EA0143C2F8E8304FF460
:10AB60000073C2F8403AD4F8EC00FFF7F9F9236813
:10AB70005A0440D5D4F8F030914A23F44031914240
:10AB80000AD023F4803302F58022934204D040F2AD
:10AB900097318948F7F79EFDD4F8F030894A9342FF
:10ABA00041F01285236D33F0405304D04FF46771A8
:10ABB0008148F7F78FFD636D013BFF2B04D940F20D
:10ABC0009D317D48F7F786FD794A616DD2F8E8300E
:10ABD000206D23F0435323F47C130139034343EAEC
:10ABE0000143C2F8E8304FF40073C2F8403AD4F899
:10ABF000F000FFF7B5F923681B0440D5D4F8F43012
:10AC0000714A23F4403191420AD023F4803302F593
:10AC10008022934204D04FF471716748F7F75AFDD0
:10AC2000D4F8F430694A934241F0FF84236D33F045
:10AC3000405304D040F2C9315F48F7F74BFD636DD4
:10AC4000013BFF2B04D940F2CA315B48F7F742FDC4
:10AC5000574A616DD2F8E830206D23F0435323F456
:10AC60007C130139034343EA0143C2F8E8304FF44F
:10AC70000073C2F8403AD4F8F400FFF771F9236882
:10AC8000DE0340D5D4F8F830514A23F440319142E4
:10AC90000AD023F4803302F58022934204D040F29C
:10ACA000F1314548F7F716FDD4F8F830494A934298
:10ACB00041F0EC84236D33F0405304D040F2F63180
:10ACC0003D48F7F707FD636D013BFF2B04D940F2C8
:10ACD000F7313948F7F7FEFC354A616DD2F8E830B4
:10ACE000206D23F0435323F47C130139034343EADB
:10ACF0000143C2F8E8304FF40073C2F8403AD4F888
:10AD0000F800FFF72DF92368980340D5D4F8FC30FC
:10AD1000314A23F4403191420AD023F4803302F5C2
:10AD20008022934204D040F21E412348F7F7D2FC20
:10AD3000D4F8FC30294A934241F0F284236D33F079
:10AD4000405304D040F223411B48F7F7C3FC636D26
:10AD5000013BFF2B04D940F224411748F7F7BAFC16
:10AD6000134A616DD2F8E830206D23F0435323F489
:10AD70007C130139034343EA0143C2F8E8304FF43E
:10AD80000073C2F8403AD4F8FC00FFF7E9F82368F2
:10AD900059035BD5D4F80031114A23F44031914274
:10ADA00025D023F4803302F5802293421FD019E08E
:10ADB000008002560C040007EB1C06340C0402074A
:10ADC0000C0800070C0802070C0C00070C0C02070B
:10ADD0000C1000070C1002070C1400070C140207DB
:10ADE0002C08000740F24B41BD48F7F773FCD4F83C
:10ADF0000031BC4A934241F0C484A36F33F0405306
:10AE000004D04FF48A61B648F7F764FCE36F013B66
:10AE1000FF2B04D940F25141B148F7F75BFCB24A2D
:10AE2000E16FD2F8FC30A06F23F0435323F47C137E
:10AE30000139034343EA0143C2F8FC304FF4804335
:10AE4000C2F8403AD4F80001FFF78AF823681A03E1
:10AE500040D5D4F80431A54A23F4403191420AD0B8
:10AE600023F4803302F58022934204D040F26B41F8
:10AE70009B48F7F72FFCD4F804319D4A934241F0E8
:10AE80008984A36F33F0405304D04FF48E6194480B
:10AE9000F7F720FCE36F013BFF2B04D940F271412F
:10AEA0008F48F7F717FC904AE16FD2F8FC30A06F9B
:10AEB00023F0435323F47C130139034343EA014352
:10AEC000C2F8FC304FF48043C2F8403AD4F8040191
:10AED000FFF746F82368DB0240D5D4F80831854AED
:10AEE00023F4403191420AD023F4803302F58022CA
:10AEF000934204D040F28B417948F7F7EBFBD4F84A
:10AF000008317D4A934241F04E84A36F33F04053A1
:10AF100004D04FF492617248F7F7DCFBE36F013B1A
:10AF2000FF2B04D940F291416D48F7F7D3FB6E4AED
:10AF3000E16FD2F8FC30A06F23F0435323F47C136D
:10AF40000139034343EA0143C2F8FC304FF4804324
:10AF5000C2F8403AD4F80801FFF702F823689E02CD
:10AF600040D5D4F80C31654A23F4403191420AD0DF
:10AF700023F4803302F58022934204D040F2AB41A7
:10AF80005748F7F7A7FBD4F80C315D4A934241F0DC
:10AF90001384A36F33F0405304D04FF496615048AC
:10AFA000F7F798FBE36F013BFF2B04D940F2B14167
:10AFB0004B48F7F78FFB4C4AE16FD2F8FC30A06F9B
:10AFC00023F0435323F47C130139034343EA014341
:10AFD000C2F8FC304FF48043C2F8403AD4F80C0178
:10AFE000FEF7BEFF2368580240D5D4F81031454A19
:10AFF00023F4403191420AD023F4803302F58022B9
:10B00000934204D040F2CB413548F7F763FBD4F8C4
:10B0100010313D4A934241F0D883A36F33F040533F
:10B0200004D04FF49A612E48F7F754FBE36F013BCD
:10B03000FF2B04D940F2D1412948F7F74BFB2A4AAC
:10B04000E16FD2F8FC30A06F23F0435323F47C135C
:10B050000139034343EA0143C2F8FC304FF4804313
:10B06000C2F8403AD4F81001FEF77AFF23681902BB
:10B070005ED5D4F8143133F440720CD023F48072CE
:10B08000B2F5806F07D0B3F5C06F04D040F2EB414A
:10B090001348F7F71FFBD4F81431B3F5007F41F0E4
:10B0A0009D83A36C33F0405304D04FF49E610C4851
:10B0B000F7F710FBE36C013BFF2B04D940F2F141A1
:10B0C0000748F7F707FB084AE16CD2F8E430A06CB8
:10B0D00023F0435323F47C130139034316E000BFEC
:10B0E000EB1C06342C080207008002562C0C0007CB
:10B0F0002C0C02072C1000072C1002072C14000740
:10B100002C1402072C1800072C18020743EA0143ED
:10B11000C2F8E4304FF48073C2F8403AC14AD4F820
:10B120001411D2F8783123F4E0630B43C2F878317C
:10B130002368DA0142D5D4F8183133F0407304D0D3
:10B140004FF4A361B848F7F7C5FAD4F81831B3F152
:10B15000007F41F07483D4F8803033F0405304D042
:10B1600040F21D51B048F7F7B5FAD4F88430013BEE
:10B17000FF2B04D940F21E51AB48F7F7ABFAA94AAE
:10B18000D4F88410D2F80031D4F8800023F043536F
:10B1900023F47C130139034343EA0143C2F800312D
:10B1A0004FF40043C2F8403A9E4AD4F81811D2F83E
:10B1B000503123F040730B43C2F8503123689B0198
:10B1C00040D5D4F81C3133F4403307D0B3F5802F89
:10B1D00004D04FF4A7619448F7F77CFAD4F81C31F7
:10B1E000B3F5003F41F03483A36B33F0405304D0F8
:10B1F00040F23D518C48F7F76DFAE36B013BFF2BB2
:10B2000004D940F23E518848F7F764FA854AE16B69
:10B21000D2F8DC30A06B23F0435323F47C130139C4
:10B22000034343EA0143C2F8DC304023C2F8403A0A
:10B230007C4AD4F81C11D2F8543123F4E0230B4398
:10B24000C2F8543123685E0141D5D4F8203133F07F
:10B25000300304D040F265517348F7F73BFAD4F855
:10B260002031202B41F02483D4F8A03033F0405318
:10B2700004D040F26A516C48F7F72CFAD4F8A430A5
:10B28000013BFF2B04D940F26B516748F7F722FAD4
:10B29000644AD4F8A410D2F81031D4F8A00023F0F6
:10B2A000435323F47C130139034343EA0143C2F8B7
:10B2B00010314FF40023C2F8403A5A4AD4F8201112
:10B2C000D2F85C3123F030030B43C2F85C312368C1
:10B2D000D8003DD5D4F82431544A23F44033934266
:10B2E00008D002F58022934204D040F285514E48A6
:10B2F000F7F7F0F9D4F824314D4A934241F0E08257
:10B30000A36B33F0405304D040F28A514648F7F71C
:10B31000E1F9E36B013BFF2B04D940F28B5142482A
:10B32000F7F7D8F93F4AE16BD2F8DC30A06B23F095
:10B33000435323F47C130139034343EA0143C2F826
:10B34000DC304023C2F8403AD4F82401FEF708FE6E
:10B35000236899003DD5D4F82831364A23F4403388
:10B36000934208D002F58022934204D040F2B251B9
:10B370002D48F7F7AFF9D4F828312F4A934241F01E
:10B38000CF82A36B33F0405304D040F2B75126482C
:10B39000F7F7A0F9E36B013BFF2B04D94FF4B7613A
:10B3A0002148F7F797F91F4AE16BD2F8DC30A06B20
:10B3B00023F0435323F47C130139034343EA01434D
:10B3C000C2F8DC304023C2F8403AD4F82801FEF736
:10B3D000C7FD6368DA0748D5D4F84C31062B04D989
:10B3E00040F2DF511048F7F775F9D4F84C31022BD1
:10B3F00041F0C682A36B33F0405304D040F2E451D5
:10B400000948F7F767F9E36B013BFF2B04D940F2DA
:10B41000E5510548F7F75EF9024AE16BD2F8DC30F6
:10B42000A06B0BE000800256EB1C063418140007DA
:10B4300018140207181800071818020723F04353BE
:10B4400023F47C130139034343EA0143C2F8DC309F
:10B450004023C2F8403ABC4AD4F84C11D2F86431C7
:10B4600023F007030B43C2F8643163689B0743D59D
:10B47000D4F83431B54A23F4403191420ED023F44C
:10B48000803102F58022914208D002F500329342C9
:10B4900004D040F20C61AE48F7F71CF9D4F834310F
:10B4A000AC4A934241F0B482236C33F0405304D051
:10B4B00040F21161A648F7F70DF9636C013BFF2BD1
:10B4C00004D940F21261A248F7F704F99E4A616C70
:10B4D000D2F8E030206C23F0435323F47C1301397D
:10B4E000034343EA0143C2F8E0308023C2F8403A04
:10B4F000D4F83401FEF734FD63685E0743D5D4F811
:10B500003831954A23F4403191420ED023F48031F2
:10B5100002F58022914208D002F50032934204D015
:10B5200040F239618A48F7F7D5F8D4F838318B4AB8
:10B53000934241F09E82236C33F0405304D040F29A
:10B540003E618348F7F7C6F8636C013BFF2B04D9D3
:10B5500040F23F617E48F7F7BDF87B4A616CD2F854
:10B56000E030206C23F0435323F47C130139034370
:10B5700043EA0143C2F8E0308023C2F8403AD4F8ED
:10B580003801FEF7EDFC6368180743D5D4F83C3169
:10B59000734A23F4403191420ED023F4803102F5F6
:10B5A0008022914208D002F50032934204D040F24A
:10B5B00066616748F7F78EF8D4F83C31694A9342E0
:10B5C00041F08882236C33F0405304D040F26B6129
:10B5D0005F48F7F77FF8636C013BFF2B04D940F21B
:10B5E0006C615B48F7F776F8574A616CD2F8E03047
:10B5F000206C23F0435323F47C130139034343EAC3
:10B600000143C2F8E0308023C2F8403AD4F83C014C
:10B61000FEF7A6FC6368D90644D5D4F84031524AF7
:10B6200023F4403191420ED023F4803102F5802280
:10B63000914208D002F50032934204D040F2936167
:10B640004348F7F747F8D4F84031484A934241F06D
:10B650007282A36C33F0405304D04FF4D3613C4862
:10B66000F7F738F8E36C013BFF2B04D940F29961FE
:10B670003748F7F72FF8344AE16CD2F8E430A06C81
:10B6800023F0435323F47C130139034343EA01437A
:10B69000C2F8E4304FF48073C2F8403AD4F8400165
:10B6A000FEF75EFC63689A0644D5D4F84431304A0C
:10B6B00023F4403191420ED023F4803102F58022F0
:10B6C000914208D002F50032934204D04FF4D86181
:10B6D0001F48F6F7FFFFD4F84431264A934241F061
:10B6E0005B82A36C33F0405304D040F2C56118482C
:10B6F000F6F7F0FFE36C013BFF2B04D940F2C66183
:10B700001348F6F7E7FF104AE16CD2F8E430A06C7A
:10B7100023F0435323F47C130139034343EA0143E9
:10B72000C2F8E4304FF48073C2F8403AD4F84401D0
:10B73000FEF716FC63685B065ED5D4F848310E4A06
:10B7400023F44031914219E00080025620040007A2
:10B75000EB1C06342004020720080007200802071B
:10B76000200C0007200C0207201000072010020701
:10B770002014000720140207201800070ED023F41D
:10B78000803102F58022914208D002F500329342C6
:10B7900004D040F2ED61BA48F6F79CFFD4F8483186
:10B7A000B84A934241F02982236C33F0405304D0CD
:10B7B00040F2F261B248F6F78DFF636C013BFF2B5C
:10B7C00004D940F2F361AE48F6F784FFAE4A616CEB
:10B7D000D2F8E030206C23F0435323F47C1301397A
:10B7E000034343EA0143C2F8E0308023C2F8403A01
:10B7F000D4F84801FEF7B4FB6368DE0544D5D4F8FD
:10B800005031A24A23F4403191420ED023F48031CA
:10B8100002F58022914208D002F50032934204D012
:10B8200040F21A719648F6F755FFD4F85031984A0D
:10B83000934241F01382A36C33F0405304D040F2A2
:10B840001F718F48F6F746FFE36C013BFF2B04D9CD
:10B850004FF4E4618A48F6F73DFF8B4AE16CD2F879
:10B86000E430A06C23F0435323F47C1301390343E9
:10B8700043EA0143C2F8E4304FF48073C2F8403A1F
:10B88000D4F85001FEF76CFB6368980544D5D4F8F2
:10B890005431804A23F4403191420ED023F4803158
:10B8A00002F58022914208D002F50032934204D082
:10B8B00040F247717248F6F70DFFD4F85431764ADA
:10B8C000934241F01D82A36C33F0405304D040F208
:10B8D0004C716B48F6F7FEFEE36C013BFF2B04D97D
:10B8E00040F24D716648F6F7F5FE674AE16CD2F812
:10B8F000E430A06C23F0435323F47C130139034359
:10B9000043EA0143C2F8E4304FF48073C2F8403A8E
:10B91000D4F85401FEF724FB6368590544D5D4F8E4
:10B9200058315E4A23F4403191420ED023F48031E5
:10B9300002F58022914208D002F50032934204D0F1
:10B9400040F274714E48F6F7C5FED4F85831544AA7
:10B95000934241F00682A36C33F0405304D040F28E
:10B9600079714748F6F7B6FEE36C013BFF2B04D92B
:10B9700040F27A714248F6F7ADFE434AE16CD2F8E4
:10B98000E430A06C23F0435323F47C1301390343C8
:10B9900043EA0143C2F8E4304FF48073C2F8403AFE
:10B9A000D4F85801FEF7DCFA63681A0544D5D4F8D8
:10B9B0005C313C4A23F4403191420ED023F4803173
:10B9C00002F58022914208D002F50032934204D061
:10B9D00040F2A1712A48F6F77DFED4F85C31324A74
:10B9E000934241F0EF81A36C33F0405304D040F216
:10B9F000A6712348F6F76EFEE36C013BFF2B04D9DA
:10BA000040F2A7711E48F6F765FE1F4AE16CD2F8B6
:10BA1000E430A06C23F0435323F47C130139034337
:10BA200043EA0143C2F8E4304FF48073C2F8403A6D
:10BA3000D4F85C01FEF794FA6368DB045FD5D4F8B0
:10BA400060311A4A23F4403191420ED023F4803100
:10BA500002F58022914208D002F50032934204D0D0
:10BA600040F2CE710648F6F735FED4F86031104A40
:10BA7000934241F0D881A36C33F040531FD019E0BA
:10BA8000EB1C063420180207008002563000000725
:10BA900030000207300400073004020730080007B6
:10BAA00030080207300C0007300C02073010000786
:10BAB0003010020740F2D371BC48F6F70BFEE36C7E
:10BAC000013BFF2B04D940F2D471B848F6F702FECF
:10BAD000B74AE16CD2F8E430A06C23F0435323F46E
:10BAE0007C130139034343EA0143C2F8E4304FF4C5
:10BAF0008073C2F8403AD4F86001FEF731FA636807
:10BB00009E0444D5D4F86431AA4A23F440319142CA
:10BB10000ED023F4803102F58022914208D002F544
:10BB20000032934204D040F2FB71A048F6F7D2FDF8
:10BB3000D4F86431A04A934241F0A681A36C33F05B
:10BB4000405304D04FF400619848F6F7C3FDE36C0E
:10BB5000013BFF2B04D940F601019448F6F7BAFDEA
:10BB6000934AE16CD2F8E430A06C23F0435323F401
:10BB70007C130139034343EA0143C2F8E4304FF434
:10BB80008073C2F8403AD4F86401FEF7E9F96368BB
:10BB9000580444D5D4F86831884A23F4403191429E
:10BBA0000ED023F4803102F58022914208D002F5B4
:10BBB0000032934204D040F628017C48F6F78AFD13
:10BBC000D4F868317E4A934241F08F81A36C33F000
:10BBD000405304D040F62D017448F6F77BFDE36C2A
:10BBE000013BFF2B04D940F62E017048F6F772FD99
:10BBF0006F4AE16CD2F8E430A06C23F0435323F495
:10BC00007C130139034343EA0143C2F8E4304FF4A3
:10BC10008073C2F8403AD4F86801FEF7A1F963686E
:10BC2000190444D5D4F86C31664A23F4403191426A
:10BC30000ED023F4803102F58022914208D002F523
:10BC40000032934204D040F655015848F6F742FDC1
:10BC5000D4F86C315C4A934241F07881A36C33F0A4
:10BC6000405304D040F65A015048F6F733FDE36CD8
:10BC7000013BFF2B04D940F65B014C48F6F72AFD47
:10BC80004B4AE16CD2F8E430A06C23F0435323F428
:10BC90007C130139034343EA0143C2F8E4304FF413
:10BCA0008073C2F8403AD4F86C01FEF759F9636822
:10BCB000DA0344D5D4F87031444A23F44031914238
:10BCC0000ED023F4803102F58022914208D002F593
:10BCD0000032934204D040F682013448F6F7FAFC71
:10BCE000D4F870313A4A934241F08281A36C33F028
:10BCF000405304D040F687012C48F6F7EBFCE36C88
:10BD0000013BFF2B04D940F688012848F6F7E2FCF6
:10BD1000274AE16CD2F8E430A06C23F0435323F4BB
:10BD20007C130139034343EA0143C2F8E4304FF482
:10BD30008073C2F8403AD4F87001FEF711F96368D5
:10BD40009B035ED5D4F87431224A23F440319142EA
:10BD50000ED023F4803102F58022914208D002F502
:10BD60000032934204D040F6AF011048F6F7B2FC1F
:10BD7000D4F87431184A934241F06B81A36C33F0CC
:10BD8000405304D040F6B4010848F6F7A3FCE36C36
:10BD9000013BFF2B04D940F6B5010448F6F79AFCA5
:10BDA000034AE16CD2F8E43018E000BFEB1C063423
:10BDB00000800256301400073014020730180007C4
:10BDC00030180207301C0007301C0207340000073F
:10BDD000340002073404000734040207A06C23F087
:10BDE000435323F47C130139034343EA0143C2F86C
:10BDF000E4304FF48073C2F8403AD4F87401FEF78F
:10BE0000AFF863685E031ED5D4F87831B14A23F4E5
:10BE1000803191420AD002F1004202F58032934211
:10BE200004D040F6DC01AC48F6F754FCD4F87801B5
:10BE300020F00040FEF794F8D4F87831002B81F21E
:10BE40003981FEF75DF86368D8021ED5D4F88031D9
:10BE5000A24A23F4803191420AD002F1004202F555
:10BE60008032934204D040F6E6019B48F6F732FC5C
:10BE7000D4F8800120F00040FEF772F8D4F8803149
:10BE8000002B81F21B81FEF73BF86368190349D54B
:10BE9000D4F87C31924A23F4403191420AD002F125
:10BEA000004202F54032934204D04FF40F618A48B9
:10BEB000F6F710FCD4F87C318A4A934241F00281B3
:10BEC000A36F33F0405304D040F6F5018248F6F7F3
:10BED00001FCE36F013BFF2B04D940F6F6017E48DD
:10BEE000F6F7F8FB804AE16FD2F8FC30A06F23F040
:10BEF000435323F47C130139034343EA0143C2F85B
:10BF0000FC304FF48043C2F8403AD4F87C0120F072
:10BF10000040FEF725F8D4F87C31002B81F2DB805D
:10BF2000FDF7EEFF63689A0249D5D4F884316F4A71
:10BF300023F4403191420AD002F1004202F540322E
:10BF4000934204D04FF411616348F6F7C3FBD4F871
:10BF50008431674A934241F0C280A36F33F040536B
:10BF600004D040F615115C48F6F7B4FBE36F013BD3
:10BF7000FF2B04D940F616115748F6F7ABFB5A4A87
:10BF8000E16FD2F8FC30A06F23F0435323F47C130D
:10BF90000139034343EA0143C2F8FC304FF48043C4
:10BFA000C2F8403AD4F8840120F00040FDF7D8FFF1
:10BFB000D4F88431002B81F29B80FDF7A1FF6368E8
:10BFC0001B0611D5D4F88C31032B04D94FF413611F
:10BFD0004148F6F77FFB444AD4F88C11536A23F0AA
:10BFE000407343EA01635362281E18BF012070BDED
:10BFF00001F440729A423EF412A93E4BDA6A42F0D2
:10C000000102DA62DB6ADB073EF509A90125FEF7CA
:10C010002CB9F8F781F8401BB0427EF608A9032539
:10C02000FEF723B9033B042B3EF651A901A252F8B7
:10C0300023F000BFF9C00034CFA2003449C000345F
:10C040008FC000344BC10034236D33F0405303D014
:10C05000E6212148F6F73EFB636D013BFF2B03D938
:10C06000E7211D48F6F736FB1F4A616DD2F8E8302C
:10C07000206D23F0435323F47C130139034343EA37
:10C080000143C2F8E8304FF40073FEF71EB9A36F06
:10C0900033F0405303D0F3210F48F6F71BFBE36F57
:10C0A000013BFF2B03D9F4210B48F6F713FB0E4A93
:10C0B000E16FD2F8FC30A06F23F0435323F47C13DC
:10C0C0000139034343EA0143C2F8FC304FF4804393
:10C0D000FEF7FBB814100001EB1C06341418000125
:10C0E000140C0003140C0203008002561414000305
:10C0F0001414020300480256D4F8983033F0405329
:10C1000004D04FF48071B448F6F7E4FAD4F89C30C8
:10C11000013BFF2B04D940F20111AF48F6F7DAFAE0
:10C12000AE4AD4F89C10D2F80C31D4F8980023F021
:10C13000435323F47C130139034343EA0143C2F818
:10C140000C314FF48023FEF7C0B8D4F8A03033F0A0
:10C15000405304D040F20D119F48F6F7BBFAD4F8D3
:10C16000A430013BFF2B04D94FF487719A48F6F7AE
:10C17000B1FA9A4AD4F8A410D2F81031D4F8A00039
:10C1800023F0435323F47C130139034343EA01436F
:10C19000C2F810314FF40023FEF797B8904A93424B
:10C1A00023D1236A33F0405304D04FF49B718A4863
:10C1B000F6F790FA636A013BFF2B04D940F237117E
:10C1C0008548F6F787FA854A616AD2F8D030206A46
:10C1D00023F0435323F47C130139034343EA01431F
:10C1E000C2F8D0300823FEF7B3B87E4A934202BFAC
:10C1F00040227A4BC3F8482AFEF7ACB87A4A9342F9
:10C2000023D1236A33F0405304D040F263117248C3
:10C21000F6F760FA636A013BFF2B04D94FF4B27161
:10C220006D48F6F757FA6D4A616AD2F8D030206A45
:10C2300023F0435323F47C130139034343EA0143BE
:10C24000C2F8D0300823FEF7C0B8684A934202BF54
:10C250004022624BC3F8482AFEF7B9B8644A9342B9
:10C2600023D1236A33F0405304D04FF4C8715A48A5
:10C27000F6F730FA636A013BFF2B04D940F29111C3
:10C280005548F6F727FA554A616AD2F8D030206A45
:10C2900023F0435323F47C130139034343EA01435E
:10C2A000C2F8D0300823FEF7E2B8524A934202BFE8
:10C2B00040224A4BC3F8482AFEF7DBB8302B23D183
:10C2C000236A33F0405304D040F2BD114248F6F7E0
:10C2D00001FA636A013BFF2B04D94FF4DF713E483A
:10C2E000F6F7F8F93D4A616AD2F8D030206A23F0B7
:10C2F000435323F47C130139034343EA0143C2F857
:10C30000D0300823FEF7EDB8102B02BF4022334B8C
:10C31000C3F8482AFEF7E7B8374A934223D1A36A05
:10C3200033F0405304D04FF4F5712B48F6F7D2F9AF
:10C33000E36A013BFF2B04D940F2EB112648F6F7E4
:10C34000C9F9264AE16AD2F8D430A06A23F04353EF
:10C3500023F47C130139034343EA0143C2F8D43088
:10C360001023FEF701B9254A934202BF40221B4B1E
:10C37000C3F8482AFEF7FAB8214A934223D1A36AA8
:10C3800033F0405304D040F217211348F6F7A2F9D6
:10C39000E36A013BFF2B04D94FF406710E48F6F710
:10C3A00099F90E4AE16AD2F8D430A06A23F04353D7
:10C3B00023F47C130139034343EA0143C2F8D43028
:10C3C0001023FEF70EB90F4A934202BF4022034BDF
:10C3D000C3F8482AFEF707B9EB1C06340080025662
:10C3E00014000303140001031404030314040103E1
:10C3F00014080303140801031C0003031C000103B9
:10C400001C0403031C040103302B23D1236C33F0E1
:10C41000405304D040F24521B548F6F75BF9636C10
:10C42000013BFF2B04D940F24621B148F6F752F9FF
:10C43000B04A616CD2F8E030206C23F0435323F40F
:10C440007C130139034343EA0143C2F8E0308023FF
:10C45000FEF70DB9102B02BF4022A64BC3F8482AA5
:10C46000FEF707B9032B23D1236C33F0405304D0DC
:10C4700040F273219E48F6F72DF9636C013BFF2BC8
:10C4800004D94FF41D719A48F6F724F9994A616C62
:10C49000D2F8E030206C23F0435323F47C130139AD
:10C4A000034343EA0143C2F8E0308023FEF725B995
:10C4B000012B02BF40228F4BC3F8482AFEF71FB959
:10C4C000B3F5801F02BF40228A4BC3F8482AFEF70B
:10C4D00095B9B3F5805F02BF4022864BC3F8482A66
:10C4E000FEF7CEB9012B02BF4022824BC3F8482A87
:10C4F000FEF758BA012B02BF40227E4BC3F8482AF0
:10C50000FEF799BA7C4A934224D1A36F33F040538B
:10C5100004D040F24F317648F6F7DCF8E36F013B88
:10C52000FF2B04D94FF454717148F6F7D3F8714AD0
:10C53000E16FD2F8FC30A06F23F0435323F47C1357
:10C540000139034343EA0143C2F8FC304FF480430E
:10C55000FEF7C3BA694A934202BF4022654BC3F853
:10C56000482AFEF7BCBA664A934224D1A36F33F03F
:10C57000405304D04FF45F715D48F6F7ABF8E36FBA
:10C58000013BFF2B04D940F27D315948F6F7A2F860
:10C59000584AE16FD2F8FC30A06F23F0435323F4E4
:10C5A0007C130139034343EA0143C2F8FC304FF4E2
:10C5B0008043FEF7D6BA534A934202BF40224D4B06
:10C5C000C3F8482AFEF7CFBA4F4A934224D1A36F4B
:10C5D00033F0405304D040F2A9314548F6F77AF8D9
:10C5E000E36F013BFF2B04D940F2AA314048F6F734
:10C5F00071F8404AE16FD2F8FC30A06F23F043534A
:10C6000023F47C130139034343EA0143C2F8FC30AD
:10C610004FF48043FEF7E9BA3C4A934202BF4022FE
:10C62000344BC3F8482AFEF7E2BA394A934224D180
:10C63000A36F33F0405304D040F2D6312C48F6F7C4
:10C6400049F8E36F013BFF2B04D940F2D73128486A
:10C65000F6F740F8274AE16FD2F8FC30A06F23F0DC
:10C66000435323F47C130139034343EA0143C2F8E3
:10C67000FC304FF48043FEF7FCBA264A934202BFD7
:10C6800040221C4BC3F8482AFEF7F5BA224A9342CF
:10C6900024D1A36F33F0405304D040F20341144837
:10C6A000F6F718F8E36F013BFF2B04D940F2044181
:10C6B0000F48F6F70FF80F4AE16FD2F8FC30A06F81
:10C6C00023F0435323F47C130139034343EA01432A
:10C6D000C2F8FC304FF48043FEF70FBB0F4A934281
:10C6E00002BF4022034BC3F8482AFEF708BB00BF35
:10C6F000EB1C0634008002560C0003070C000107F7
:10C700000C0403070C0401070C0803070C080107BD
:10C710000C0C03070C0C01070C1003070C1001078D
:10C72000AE4A934224D1A36F33F0405304D04FF468
:10C730008661AB48F5F7CEFFE36F013BFF2B04D9D1
:10C7400040F23141A648F5F7C5FFA64AE16FD2F89D
:10C75000FC30A06F23F0435323F47C1301390343CF
:10C7600043EA0143C2F8FC304FF48043FEF709BBB3
:10C770009D4A934202BF40229A4BC3F8482AFEF7D3
:10C7800002BB9A4A934202BF4022964BC3F8482A02
:10C79000FEF758BB964A934202BF4022914BC3F822
:10C7A000482AFEF793BB934A934202BF40228D4B27
:10C7B000C3F8482AFEF7CEBB8F4A934202BF4022FD
:10C7C000884BC3F8482AFEF709BC8C4A934202BF43
:10C7D0004022844BC3F8482AFEF744BCB3F5407F9F
:10C7E00024D1236F33F0405304D040F2FD417C4804
:10C7F000F5F770FF636F013BFF2B04D940F2FE4158
:10C800007748F5F767FF774A616FD2F8F830206F05
:10C8100023F0435323F47C130139034343EA0143D8
:10C82000C2F8F8304FF40053FEF776BCB3F5807FC2
:10C8300002BF40226B4BC3F8482AFEF76FBCB3F12E
:10C84000807F02BF4022674BC3F8482AFEF7ACBC8A
:10C85000B3F5403F23D1236C33F0405304D040F272
:10C860004A515F48F5F736FF636C013BFF2B04D953
:10C8700040F24B515A48F5F72DFF5A4A616CD2F8F5
:10C88000E030206C23F0435323F47C13013903433D
:10C8900043EA0143C2F8E0308023FEF7C7BCB3F59A
:10C8A000803F02BF40224F4BC3F8482AFEF7C0BC6E
:10C8B000102B02BF40224B4BC3F8482AFEF7FDBCA9
:10C8C0004F4A934223D1236C33F0405304D040F2BB
:10C8D00097514348F5F7FEFE636C013BFF2B04D9EB
:10C8E0004FF4B3613E48F5F7F5FE3E4A616CD2F86D
:10C8F000E030206C23F0435323F47C1301390343CD
:10C9000043EA0143C2F8E0308023FEF71BBD3D4AF5
:10C91000934202BF4022334BC3F8482AFEF714BDAE
:10C92000394A934223D1236C33F0405304D040F270
:10C93000C4512B48F5F7CEFE636C013BFF2B04D9A5
:10C9400040F2C5512648F5F7C5FE264A616CD2F87B
:10C95000E030206C23F0435323F47C13013903436C
:10C9600043EA0143C2F8E0308023FEF72CBD274A9A
:10C97000934202BF40221B4BC3F8482AFEF725BD55
:10C98000032B23D1236C33F0405304D040F2F151F8
:10C990001348F5F79FFE636C013BFF2B04D940F26F
:10C9A000F2510F48F5F796FE0E4A616CD2F8E0306E
:10C9B000206C23F0435323F47C130139034343EAEF
:10C9C0000143C2F8E0308023FEF743BD012B02BFD4
:10C9D0004022044BC3F8482AFEF73DBD0C14030760
:10C9E000EB1C0634008002560C1401072C080107CA
:10C9F0002C0C01072C1001072C1401072C1801071F
:10CA0000181403071814010718180307181801074A
:10CA1000AB4A934224D1A36C33F0405304D040F28C
:10CA20001E61A848F5F756FEE36C013BFF2B04D9C5
:10CA300040F21F61A348F5F74DFEA34AE16CD2F81E
:10CA4000E430A06C23F0435323F47C1301390343F7
:10CA500043EA0143C2F8E4304FF48073FEF746BD69
:10CA60009A4A934202BF4022974BC3F8482AFEF7E6
:10CA70003FBD974A934224D1A36C33F0405304D076
:10CA800040F24B618F48F5F725FEE36C013BFF2B2D
:10CA900004D940F24C618B48F5F71CFE8A4AE16CE0
:10CAA000D2F8E430A06C23F0435323F47C13013913
:10CAB000034343EA0143C2F8E4304FF48073FEF7C6
:10CAC0005CBD844A934202BF40227F4BC3F8482A90
:10CAD000FEF755BD804A934224D1A36C33F04053F6
:10CAE00004D04FF4CF617748F5F7F4FDE36C013BD8
:10CAF000FF2B04D940F279617248F5F7EBFD724AD9
:10CB0000E16CD2F8E430A06C23F0435323F47C139F
:10CB10000139034343EA0143C2F8E4304FF4807320
:10CB2000FEF772BD6D4A934202BF4022664BC3F8C6
:10CB3000482AFEF76BBD6A4A934224D1236F33F033
:10CB4000405304D040F2A5615E48F5F7C3FD636F22
:10CB5000013BFF2B04D940F2A6615A48F5F7BAFD14
:10CB6000594A616FD2F8F830206F23F0435323F411
:10CB70007C130139034343EA0143C2F8F8304FF410
:10CB80000053FEF789BD574A934202BF40224E4BE5
:10CB9000C3F8482AFEF782BD534A934224D1236F3B
:10CBA00033F0405304D040F2D2614648F5F792FD8D
:10CBB000636F013BFF2B04D940F2D3614148F5F785
:10CBC00089FD414A616FD2F8F830206F23F043535A
:10CBD00023F47C130139034343EA0143C2F8F830DC
:10CBE0004FF40053FEF7A0BD404A934202BF4022DB
:10CBF000354BC3F8482AFEF799BD3D4A934224D1EC
:10CC0000A36C33F0405304D040F2FF612D48F5F798
:10CC100061FDE36C013BFF2B04D94FF4E06129482F
:10CC2000F5F758FD284AE16CD2F8E430A06C23F007
:10CC3000435323F47C130139034343EA0143C2F80D
:10CC4000E4304FF48073FEF7D1BD2A4A934202BF0D
:10CC500040221D4BC3F8482AFEF7CABD264A93421C
:10CC600024D1236F33F0405304D040F22C71154887
:10CC7000F5F730FD636F013BFF2B04D940F22D71B6
:10CC80001048F5F727FD104A616FD2F8F830206F91
:10CC900023F0435323F47C130139034343EA014354
:10CCA000C2F8F8304FF40053FEF7E8BD134A934240
:10CCB00002BF4022044BC3F8482AFEF7E1BD00BF83
:10CCC00020040307EB1C06340080025620040107F1
:10CCD0002008030720080107200C0307200C010788
:10CCE0002010030720100107201403072014010758
:10CCF0002018030720180107300003073000010740
:10CD0000AB4A934224D1236F33F0405304D040F216
:10CD10005971A848F5F7DEFC636F013BFF2B04D97E
:10CD200040F25A71A348F5F7D5FCA34A616FD2F8D7
:10CD3000F830206F23F0435323F47C13013903436D
:10CD400043EA0143C2F8F8304FF40053FEF7DEBD6A
:10CD50009A4A934202BF4022974BC3F8482AFEF7F3
:10CD6000D7BD974A934224D1236F33F0405304D068
:10CD700040F286718F48F5F7ADFC636F013BFF2BE6
:10CD800004D940F287718B48F5F7A4FC8A4A616F99
:10CD9000D2F8F830206F23F0435323F47C13013989
:10CDA000034343EA0143C2F8F8304FF40053FEF75F
:10CDB000F5BD844A934202BF40227F4BC3F8482A04
:10CDC000FEF7EEBD804A934224D1236F33F04053E7
:10CDD00004D040F2B3717748F5F77CFC636F013BF8
:10CDE000FF2B04D940F2B4717248F5F773FC724A14
:10CDF000616FD2F8F830206F23F0435323F47C1393
:10CE00000139034343EA0143C2F8F8304FF40053B9
:10CE1000FEF70CBE6D4A934202BF4022664BC3F838
:10CE2000482AFEF705BE6A4A934224D1236F33F0A5
:10CE3000405304D04FF4FC615E48F5F74BFC636F40
:10CE4000013BFF2B04D940F2E1715A48F5F742FC4F
:10CE5000594A616FD2F8F830206F23F0435323F41E
:10CE60007C130139034343EA0143C2F8F8304FF41D
:10CE70000053FEF73EBE574A934202BF40224E4B3C
:10CE8000C3F8482AFEF737BE534A934224D1236F92
:10CE900033F0405304D040F60D014648F5F71AFC34
:10CEA000636F013BFF2B04D940F60E014148F5F7B3
:10CEB00011FC414A616FD2F8F830206F23F04353E0
:10CEC00023F47C130139034343EA0143C2F8F830E9
:10CED0004FF40053FEF755BE404A934202BF402232
:10CEE000354BC3F8482AFEF74EBE3D4A934224D143
:10CEF000236F33F0405304D040F63A012D48F5F744
:10CF0000E9FB636F013BFF2B04D940F63B01294845
:10CF1000F5F7E0FB284A616FD2F8F830206F23F074
:10CF2000435323F47C130139034343EA0143C2F81A
:10CF3000F8304FF40053FEF76CBE2A4A934202BF0A
:10CF400040221D4BC3F8482AFEF765BE264A93428D
:10CF500024D1236F33F0405304D040F667011548C5
:10CF6000F5F7B8FB636F013BFF2B04D940F668016E
:10CF70001048F5F7AFFB104A616FD2F8F830206F18
:10CF800023F0435323F47C130139034343EA014361
:10CF9000C2F8F8304FF40053FEF783BE134A9342B1
:10CFA00002BF4022044BC3F8482AFEF77CBE00BFF4
:10CFB00030040307EB1C06340080025630040107DE
:10CFC0003008030730080107300C0307300C010755
:10CFD0003010030730100107301403073014010725
:10CFE0003018030730180107301C0307301C0107F5
:10CFF000414A934224D1236F33F0405304D040F68A
:10D0000094013E48F5F766FB636F013BFF2B04D9A3
:10D0100040F695013948F5F75DFB394A616FD2F862
:10D02000F830206F23F0435323F47C13013903437A
:10D0300043EA0143C2F8F8304FF40053FEF779BEDB
:10D04000304A934202BF40222D4BC3F8482AFEF7D4
:10D0500072BE2D4A934224D1236F33F0405304D043
:10D0600040F6C1012548F5F735FB636F013BFF2B07
:10D0700004D940F6C2012148F5F72CFB204A616F24
:10D08000D2F8F830206F23F0435323F47C13013996
:10D09000034343EA0143C2F8F8304FF40053FEF76C
:10D0A000AABE1A4A934202BF4022154BC3F8482A2F
:10D0B000FEF7A3BEFCF71CFFFEF7C5BEFCF718FF8A
:10D0C000FEF7E3BE124A934202BF40220C4BC3F864
:10D0D000482AFEF71ABFFCF70BFFFEF723BF0D4AE5
:10D0E000934202BF4022064BC3F8482AFEF75ABFBC
:10D0F000FCF7FEFEFEF763BF34000307EB1C0634AB
:10D100000080025634000107340403073404010789
:10D11000140C01031414010337B51E4C6368D905C0
:10D1200006D5D4F888305A000FD4002003B030BDA3
:10D13000D4F880301B01F8D5D4F8800000F0E0402E
:10D1400003B0BDE83040FCF78DBFD4F8800000F09C
:10D15000E040FCF787FF0028E7D0D4F8803013F0D8
:10D160007C7FC3F30551E0D0D4F88020D4F884301C
:10D17000D4F88850D4F88840C5F3C265C4F302647B
:10D180000194009523F07F43C2F30B22FCF7A4FF28
:10D19000CCE700BF0080025637B51E4C6368990586
:10D1A00006D5D4F898305A000FD4002003B030BD13
:10D1B000D4F890301B01F8D5D4F8900000F0E0408E
:10D1C00003B0BDE83040FCF74DBFD4F8900000F04C
:10D1D000E040FCF747FF0028E7D0D4F8903013F088
:10D1E0007C7FC3F30551E0D0D4F89020D4F894307C
:10D1F000D4F89850D4F89840C5F3C265C4F30264DB
:10D200000194009523F07F43C2F30B22FCF764FFE7
:10D21000CCE700BF0080025637B51E4C6368590545
:10D2200006D5D4F8A8305A000FD4002003B030BD82
:10D23000D4F8A0301B01F8D5D4F8A00000F0E040ED
:10D2400003B0BDE83040FCF70DBFD4F8A00000F0FB
:10D25000E040FCF707FF0028E7D0D4F8A03013F037
:10D260007C7FC3F30551E0D0D4F8A020D4F8A430DB
:10D27000D4F8A850D4F8A840C5F3C265C4F302643A
:10D280000194009523F07F43C2F30B22FCF724FFA7
:10D29000CCE700BF0080025637B51E4C6368190505
:10D2A00006D5D4F8B8305A000FD4002003B030BDF2
:10D2B000D4F8B0301B01F8D5D4F8B00000F0E0404D
:10D2C00003B0BDE83040FCF7CDBED4F8B00000F0AC
:10D2D000E040FCF7C7FE0028E7D0D4F8B03013F0E8
:10D2E0007C7FC3F30551E0D0D4F8B020D4F8B4303B
:10D2F000D4F8B850D4F8B840C5F3C265C4F302649A
:10D300000194009523F07F43C2F30B22FCF7E4FE67
:10D31000CCE700BF008002563E4B10B5D3F8482240
:10D32000520635D5D3F85C2102F00702013A062AED
:10D3300005D8DFE802F00E1346182F3B5200FCF729
:10D34000F7FD28B3334B34489B6CC3F3C113D8406B
:10D350001FE0FCF7F5FDD8B130481AE0FCF7E0FD1E
:10D36000B0B12F4815E0D3F84022D40610D5D3F839
:10D37000D400D3F8D430C0F30740441C03F040532A
:10D38000B3F1005F43D034D8CBB3B3F1805F3BD06F
:10D39000002010BDD3F840229005F9D5D3F8E8005D
:10D3A000D3F8E830C0F30740441CE7E7FCF740FE41
:10D3B0000028EDD0FCF744FE164B0446D3F8FC30B1
:10D3C000DCE7D3F840225103E2D5D3F80C01D3F8BF
:10D3D0000C31C0F30740441CD0E7D3F840221203BD
:10D3E000D6D5D3F81001D3F81031C0F30740441C50
:10D3F000C4E7B3F1405FCBD1FFF74EFF01E0FFF789
:10D400008BFEB0FBF4F0C4E7FFF7C6FEF9E7FFF7C9
:10D4100003FFF6E7008002560090D00300093D00AC
:10D42000006CDC0238B52D4DD5F8643103F00703EC
:10D43000062B24D8DFE803F0040D112A49404F00E1
:10D44000FCF7EAFCFCF706FE6B6A03F00703D84022
:10D4500016E0BDE83840FFF75FBFFCF7A1FD70B1F3
:10D46000FCF7A6FD0446D5F8DC3003F04053B3F1D9
:10D47000005F1ED014D8CBB1B3F1805F01D0002083
:10D4800038BDFFF789FEB0FBF4F0F9E7FCF79AFD31
:10D490000028F4D0FCF79EFDD5F8E0300446E4E720
:10D4A000B3F1405FEBD1FFF7F7FEECE7FFF734FE97
:10D4B000E9E7FFF7B1FEE6E7FCF73AFD0028DED02A
:10D4C000AB6C0748C3F3C113C1E7FCF739FD002873
:10D4D000D5D00448D4E70448D2E700BF0080025604
:10D4E0000090D00300093D000080BB0010B5FCF7A0
:10D4F00049FD374B984228D01BD8A3F5803398427A
:10D5000013D00BD820F48062A3F580339A424BD01D
:10D5100003F50063984247D0002010BD2D4B984280
:10D5200003D003F580639842F6D1BDE81040FFF7C1
:10D53000F3BE294B984229D021D8A3F57C439842C9
:10D5400003D003F580639842E6D1244BD3F8400220
:10D5500010F00400E1D0D3F8CC00D3F8CC30C0F305
:10D560000740441C03F04053B3F1005F2DD021D895
:10D5700033B3B3F1805FCFD1FFF70EFE22E0184B3B
:10D58000984203D003F580639842C5D1134BD3F87A
:10D59000400210F00800C0D0D3F8D000D3F8D0304B
:10D5A000C0F30740441CDDE7FCF736FCBDE8104043
:10D5B000FCF750BDB3F1405FAED1FFF76DFE01E067
:10D5C000FFF7AAFDB0FBF4F0A7E7FFF725FEF9E7A8
:10D5D0001400020314040103140003030080025624
:10D5E0001404030310B5FCF7CDFC2D4B984221D059
:10D5F00015D8A3F5803398420DD009D8A3F5803310
:10D6000098422ED003F5006398422AD0002010BD26
:10D61000244B9842FAD1BDE81040FFF77DBE224B63
:10D62000984224D003F50063984220D0A3F58033BC
:10D630009842EBD1FCF7FCFC0028E7D0FCF700FD9A
:10D640001A4B0446D3F8FC3003F04053B3F1005FAB
:10D6500022D016D8DBB1B3F1805FD7D1FFF79CFDA4
:10D6600017E0FCF75DFC0028D0D01148CFE7FCF7AD
:10D6700057FC0028CAD0FCF74BFC0028F5D10D4818
:10D68000C5E7B3F1405FC1D1FFF706FE01E0FFF748
:10D6900043FDB0FBF4F0BAE7FFF7BEFDF9E700BFCA
:10D6A000140C020314140103140C0303008002562B
:10D6B00000366E01006CDC0208B5FCF763FC114B10
:10D6C00098421CD005D8A3F50063984212D00020E0
:10D6D00008BD0D4B20F400609842F8D1FCF720FC07
:10D6E0000028F4D0FCF714FC084B0028084808BFB9
:10D6F0001846EDE70748BDE80840FFF773BF064846
:10D70000F9E700BF1418000114100101006CDC02DD
:10D7100000366E01140C00031414000310B5FCF75E
:10D7200031FC704B984239D053D8A3F5003398425E
:10D7300000F0B68013D8A3F6FC73984200F0B080D6
:10D740000BD8A3F20443984200F0AA8003F580634B
:10D75000984200F0AF80002010BD634BF8E7634BA8
:10D7600098420CD00FD8A3F6FC73984207D08EBF16
:10D770005F4B20F48060A3F204439842EBD1BDE8F4
:10D780001040FFF7C9BD5B4B984207D08EBF5A4B84
:10D7900020F48060A3F204439842DCD1FCF724FC1F
:10D7A0000028D8D0FCF728FC0446544BD3F8E430CA
:10D7B00003F04053B3F1005F00F0918000F28380EA
:10D7C000002B00F08780B3F1805FC4D1FFF7E4FC49
:10D7D00082E04B4B984245D033D8A3F58033984232
:10D7E00028D01CD8A3F57B43FC3B984206D010D828
:10D7F00020F48060A3F204439842ACD1FCF706FC0D
:10D800000028A8D0FCF70AFC3C4B0446D3F8F830BB
:10D81000CEE73C4B9842F1D003F54063ECE73A4B3E
:10D82000984207D08EBF394B20F00400A3F58063E7
:10D83000984290D1FCF78CFB003818BF0120C00340
:10D840008AE7334B984220D013D8A3F57843984207
:10D8500008D08EBF2F4B20F00400A3F580639842C0
:10D860007FF479AFFCF76CFB00283FF474AF2A48D3
:10D8700072E72A4B984208D08EBF294B20F0040053
:10D88000A3F5806398427FF466AFFCF751FB002854
:10D890003FF461AF194B23489B6CC3F3C11307E0FE
:10D8A000FCF7BAFAFCF7D6FB144B5B6AC3F302131E
:10D8B000D84051E7FCF7B0FAFCF7CCFB0F4B5B6AA2
:10D8C00003F00703F4E7B3F1405F7FF444AFFFF7E1
:10D8D000E3FC01E0FFF720FCB0FBF4F03CE7FFF7CE
:10D8E0009BFCF9E7301402073008000730140107E9
:10D8F000300801073404020730080207008002568E
:10D900003000050730080307300804073014040707
:10D91000300006073014050700093D0030080607EF
:10D92000301406070090D00310B5FCF72BFB794BA1
:10D9300098423ED05AD8A3F50033984200F0C780F1
:10D9400014D8754B984200F0CC80013B98420BD91B
:10D9500020F4006203F6FD739A4200F0B880A3F54C
:10D960008063984200F0B380002010BD6B4B98425A
:10D970000DD012D8A3F54063984208D00BD8A3F677
:10D98000FC73984203D003F6FC339842ECD1BDE817
:10D990001040FFF7C1BC624BF7E7624B984208D0DA
:10D9A00022D8A3F6FC73984203D003F6FC339842C6
:10D9B000DAD1FCF719FB0028D6D0FCF71DFB044692
:10D9C000594BD3F8E43003F04053B3F1005F00F05B
:10D9D0009D8000F28F80002B00F09380B3F1805F78
:10D9E000C2D1FFF7D9FB8EE0504BE0E7504B984295
:10D9F0004AD036D8A3F58033984229D01CD8A3F555
:10DA00007043043B984208D012D8A3F6FC739842A6
:10DA100003D003F6FC339842A6D1FCF7F7FA0028AE
:10DA2000A2D0FCF7FBFA404B0446D3F8F830CAE723
:10DA3000404B20F48060EEE73F4B984208D00ED870
:10DA4000A3F54063984203D003F5806398428BD1DD
:10DA5000FCF77EFA003818BF0120C00385E7374B7A
:10DA6000F4E7374B984225D017D8A3F56843043B19
:10DA7000984209D00FD8A3F54063984204D003F52B
:10DA8000806398427FF470AFFCF75AFA00283FF4A5
:10DA90006BAF2C4869E72C4BF3E72C4B984209D02D
:10DAA00013D8A3F54063984204D003F580639842ED
:10DAB0007FF45AAFFCF73CFA00283FF455AF1A4BFD
:10DAC00023489B6CC3F3C11309E0224BEFE7FCF73B
:10DAD000A3F9FCF7BFFA144B5B6A03F00703D840C5
:10DAE00043E7FCF799F9FCF7B5FA0F4B5B6AC3F310
:10DAF0000213F4E7B3F1405F7FF436AFFFF7CCFBDE
:10DB000001E0FFF709FBB0FBF4F02EE7FFF784FB21
:10DB1000F9E700BF301C020734000007301C010782
:10DB20003018010730100207008002563018020733
:10DB3000340005073018030730180407301C0407A9
:10DB40003400060700093D00301C050730180607A1
:10DB50000090D003301C060710B5FCF713FA8B4B6E
:10DB6000984255D065D8A3F53C33984200F0CA805E
:10DB70001ED8A3F54063984200F0BA800AD8A3F5F6
:10DB8000006398420BD003F58063984200F0B080A8
:10DB9000002010BD7E4B20F480609842F8D1FCF745
:10DBA0003BF9FCF757FA7B4B5B6AC3F30213A7E020
:10DBB000794B984200F0AF801DD8A3F57843984286
:10DBC0000AD00DD8A3F50063984205D020F4006078
:10DBD000A3F580639842DBD1BDE81040FFF79CBB02
:10DBE0006E4B9842F8D003F56C43984200F0938056
:10DBF000A3F57043EEE76A4B984209D013D8A3F51A
:10DC00000063984200F0878003F580639842BFD19B
:10DC1000FCF7EAF90028BBD0FCF7EEF95D4B0446AF
:10DC2000D3F8E43082E05F4B984274D003F56C4344
:10DC3000ECE75D4B984243D030D8A3F5FA339842D5
:10DC4000E6D008D820F48062A3F500639A427BD026
:10DC5000A3F58063DAE7554B98420DD014D8A3F5AD
:10DC60000063984208D00DD8A3F50063984203D012
:10DC700003F5806398428BD1FCF762F9002887D0C6
:10DC80004B4886E74B4BF5E74B4B984218D003F5D2
:10DC90008063984214D0A3F57043EBE7474B98425A
:10DCA0006DD01ED8A3F54063984218D020F480634D
:10DCB00011D8434A934203D0424B98427FF468AF55
:10DCC000FCF736F900283FF463AF324B3E489B6CBB
:10DCD000C3F3C11314E03D4A93427FF459AF3C486B
:10DCE00057E73C4B98424AD003F580639842F4E7EB
:10DCF000FCF792F8FCF7AEF9264B5B6A03F00703DA
:10DD0000D84046E7FCF788F8FCF7A4F9214B5B6A9A
:10DD1000C3F30233F4E7FCF755F900283FF438AFBA
:10DD2000FCF758F904461B4BD3F8E03003F040539E
:10DD3000B3F1005F20D013D8CBB1B3F1805F7FF493
:10DD400027AFFFF729FA14E0FCF760F900283FF449
:10DD50001FAFFCF763F90F4B0446D3F8F830E5E743
:10DD6000B3F1405F7FF414AFFFF796FA01E0FFF7DD
:10DD7000D3F9B0FBF4F00CE7FFF74EFAF9E7FCF744
:10DD8000CFF800283FF404AF134802E72008030748
:10DD90002010000700800256200802072018010703
:10DDA0002014020720180207200C0507201404077E
:10DDB00000093D0020100407200405072010060775
:10DDC00020100507201805070090D003200806073B
:10DDD0000080BB0020140607006CDC0210B5FCF7C5
:10DDE000D1F84B4B984250D03FD8A3F5003398421E
:10DDF00021D015D8A3F5803398420DD009D8A3F5CA
:10DE00008033984254D003F58063984250D000206C
:10DE100010BD404B9842FAD1BDE81040FFF77CBAE4
:10DE20003D4B98424ED003F5806398424AD0A3F50B
:10DE300080339842EBD1FCF7B3F80028E7D0FCF729
:10DE4000B7F80446354BD3F8DC3003F04053B3F158
:10DE5000005F4BD041D8002B45D0B3F1805FD6D1C5
:10DE6000FFF79AF9B0FBF4F0D2E72D4B98421DD0A2
:10DE700011D8A3F5803398423BD003F580639842D4
:10DE800037D0A3F580339842C1D1FCF759F8002868
:10DE9000BDD02448BCE7244B984234D003F58063BE
:10DEA000984230D0A3F580339842B0D11F48AFE7F5
:10DEB000FBF7B2FFFCF7CEF8184B5B6AC3F3021313
:10DEC000D840A5E7FCF77EF80028A0D0FCF782F840
:10DED000124B0446D3F8E030B7E7B3F1405F96D178
:10DEE000FFF7DAF9BEE7FFF717F9BBE7FFF794F999
:10DEF000B8E7FCF71DF8002889D0084B0C489B6C4C
:10DF0000C3F3C113DCE7BDE81040FFF78BBA00BFD5
:10DF10001814040718180107181403070080025684
:10DF20001814060700093D00181407070080BB00FD
:10DF30000090D00310B5FCF725F83F4B984261D014
:10DF400031D8A3F5FE33984258D00DD8A3F58033CD
:10DF5000984249D003F57C4398424FD0A3F58033D3
:10DF6000984241D0002010BD344B20F4806098428C
:10DF7000F8D1334BD3F840229205F3D5D3F8E8001B
:10DF8000D3F8E830C0F30740441C03F04053B3F12A
:10DF9000005F4DD041D8002B45D0B3F1805FE1D177
:10DFA000FFF7FAF841E0274B984208D00DD8A3F5C7
:10DFB0008033984226D003F57C439842D2D1FBF7B8
:10DFC000BFFF0028CED02048CDE7204B20F4806052
:10DFD0009842C7D1FBF7ACFF0028C3D0184B1C48B0
:10DFE0009B6CC3F3C11307E0FBF716FFFCF732F895
:10DFF000134B5B6A03F00703D840B4E7BDE8104059
:10E00000FFF78AB9FCF714F80028ABD0FCF718F832
:10E010000B4B0446D3F8FC30B7E7B3F1405FA1D116
:10E02000FFF73AF901E0FFF777F8B0FBF4F09AE771
:10E03000FFF7F2F8F9E700BF0C1003070C10020716
:10E04000008002560C14040700093D000C1005075F
:10E050000090D00310B5FBF795FF2E4B98421DD0D2
:10E0600013D8A3F5803398420BD007D820F48060F2
:10E07000A3F5803398422BD0002010BD264B984248
:10E08000FAD1BDE81040FFF747B9244B20F4806275
:10E090009A4223D0A3F57C439842EDD1204BD3F88C
:10E0A000400210F00800E8D0D3F8D000D3F8D03008
:10E0B000C0F30740441C03F04053B3F1005F26D087
:10E0C0001AD8FBB1B3F1805FD6D1FFF765F81BE03A
:10E0D000FBF7A2FEBDE81040FBF7BCBF104BD3F826
:10E0E000400210F01000C8D0D3F8D400D3F8D430D8
:10E0F000C0F30740441CDEE7B3F1405FBCD1FFF73B
:10E10000CBF801E0FFF708F8B0FBF4F0B5E7FFF754
:10E1100083F8F9E71C0002031C0401031C0003033D
:10E120000080025610B5FBF72DFF514B984256D098
:10E1300044D8A3F5FC33984212D015D8A3F57C43FC
:10E1400098427CD020F4806307D84A4A934276D024
:10E15000494B984273D0002010BD484A9342FAD1EF
:10E16000BDE81040FFF7D8B8454B984208D021D8F9
:10E17000A3F578439842F3D003F574439842EAD16B
:10E18000404BD3F840229205E5D5D3F8E800D3F808
:10E19000E830C0F30740441C03F04053B3F1005F84
:10E1A00063D056D8002B5BD0B3F1805FD3D1FEF79C
:10E1B000F3FF57E0344B20F48060DFE7334B9842A5
:10E1C0001DD022D8A3F57C43984208D012D8A3F5DD
:10E1D0000063984203D003F580639842BBD1FBF7FC
:10E1E00027FF0028B7D0FBF72BFF264B0446D3F8B8
:10E1F000FC30D1E7264B20F480609842ABD1FBF78E
:10E200009FFE0028A7D02348A6E7234B984208D0BA
:10E2100011D8A3F578439842F1D003F5744398429E
:10E2200099D1FBF785FE002895D0164B1B489B6CB7
:10E23000C3F3C1130BE01A4B20F48060EFE7FBF748
:10E24000EBFDFBF707FF0F4B5B6A03F00703D840BA
:10E2500082E7B3F1405F7FF47EAFFFF71DF801E086
:10E26000FEF75AFFB0FBF4F076E7FEF7D5FFF9E7CB
:10E270000C0003070C0000070C0800070C00010746
:10E280000C040207008002560C0802070C08040761
:10E290000C00040700093D000C0405070090D003A2
:10E2A0000C08050710B5FBF76DFE644B98423AD099
:10E2B00051D8A3F5FE33984200F0A88013D8A3F5F7
:10E2C0004063984200F09880013B984209D903F2DC
:10E2D0000143984200F09A8003F58063984200F071
:10E2E0009580002010BD564B984215D008D820F4D8
:10E2F0008062A3F500639A420ED0A3F57043EDE768
:10E30000504B98420FD00BD8A3F57443984203D0DA
:10E3100003F580639842E4D1BDE81040FEF7FCBFEE
:10E32000494B9842DDD1FBF783FE0028D9D0FBF79B
:10E3300087FE464B0446D3F8FC3003F04053B3F15C
:10E34000005F78D06BD8002B70D0B3F1805FC8D15C
:10E35000FEF722FF6CE03E4B984234D024D8A3F560
:10E360007C4398420FD015D8A3F5006398420AD099
:10E3700006D8A3F574439842D5D003F58063D0E75F
:10E38000344B9842ADD1FBF7E3FD003818BF0120B4
:10E39000C003A7E7304B9842F5D003F5704398428D
:10E3A00011D0A3F57443ECE72C4B984215D01BD841
:10E3B000A3F57443984206D00CD820F48060A3F5EE
:10E3C000006398428DD1214B5B68DB0789D54FF400
:10E3D000FA4087E7224B984283D1FBF71DFD1B4B88
:10E3E0005B6AC3F301630FE01E4B20F480629A4224
:10E3F000F3D003F50063EEE7FBF70EFDFBF72AFE13
:10E40000124B5B6A03F00703D8406BE7FBF704FD90
:10E41000FBF720FE0D4B5B6AC3F30233F4E7B3F165
:10E42000405F7FF45EAFFEF737FF01E0FEF774FE5A
:10E43000B0FBF4F056E7FEF7EFFEF9E72C10020709
:10E440002C1001072C0802072C0C02070080025632
:10E450002C0C04072C0C03072C1803072C0C0507A5
:10E460002C0805072C10050738B500F160430B4355
:10E4700000F06284BA4B984271F1000380F0DD80B5
:10E48000A0F580330B4300F05583B0F1011F71F10B
:10E4900000036AD2A0F500730B4300F0B38240F290
:10E4A0000123984271F1000324D2092871F100037D
:10E4B00015D250EA01031BD0013841F1FF31082881
:10E4C00071F1000114D2072812D8DFE810F09C0186
:10E4D0000A02110059021100110011002802A0F1D6
:10E4E00010030B4300F03C822038084300F06482A4
:10E4F000002034E2A0F500530B4300F0178342F2F2
:10E500000103984271F1000324D2A0F500630B438C
:10E5100000F0DD82A0F580530B4300F00283A0F5EC
:10E5200080600843E4D18F4DD5F84C3103F00303EC
:10E53000022B00F0BF82032B00F05082012B00F071
:10E540001F82FBF769FCFBF785FD6B6A03F007038D
:10E55000D84004E2A0F580430B4300F0E982A0F527
:10E5600000400843C4D18048DCE2A0F500030B431F
:10E5700000F0F0827D4B984271F1000324D2A0F5A7
:10E5800080130B4300F0E282794B984271F1000353
:10E590000FD2A0F580230B4300F0D182A0F5002319
:10E5A0000B4300F0D182A0F500300843A0D17148A0
:10E5B000C1E2A0F500130B4300F0CA82A0F5800071
:10E5C000084395D16C48BBE200F17C430B4300F05B
:10E5D00061836A4B984271F100031FD200F17F43BF
:10E5E0000B4300F0FC8200F17E40084380D15D4D7A
:10E5F000D5F8543103F4E023B3F5802F00F088817F
:10E6000000F22D83B3F5003F00F0338300F218834E
:10E61000002B00F07781B3F5803FAFE100F1784344
:10E620000B4300F0688300F1704008437FF460AF53
:10E630005348BDE83840FFF7D1BB00234FF4805268
:10E64000914208BF984200F0938383428A415FD38E
:10E650001022914208BF984200F07D8383428A4194
:10E6600029D30222914208BF984200F06D83834271
:10E670008A4114D3994208BFB0F1004F00F05E8385
:10E68000012908BF984200F05B8300F14040084335
:10E690007FF42EAF3B48BDE83840FFF7DBBC0429D0
:10E6A00008BF984200F05583082908BF98427FF4BC
:10E6B0001FAF354849E34FF40072914208BF9842BA
:10E6C00000F0528383428A4111D3402908BF984207
:10E6D00000F04383B1F5807F08BF984200F03F838C
:10E6E000202908BF00287FF403AF28482DE3B1F5A7
:10E6F000806F08BF984200F03983B1F5006F08BF02
:10E7000098427FF4F5AE2248BDE83840FFF70CB9D7
:10E710004FF40022914208BF984200F06583834283
:10E720008A414AD34FF48032914208BF984200F0A8
:10E73000258383428A412FD3B1F5804F08BF984289
:10E7400000F01883B1F5004F08BF984200F0148321
:10E75000B1F5005F08BF00287FF4CAAE0D48FFE2A4
:10E7600001000020008002560C0C00070100800010
:10E77000010010000C1400072C1800070100000411
:10E78000181400071C000003200C000720140007C9
:10E79000300C000730140007B1F5003F08BF984265
:10E7A00000F0EE82B1F5802F08BF98427FF4A0AE52
:10E7B000B248BDE83840FEF77FBF4FF48002914277
:10E7C00008BF984200F0178383428A410DD3B1F508
:10E7D000801F08BF984200F00C83B1F5001F08BFEE
:10E7E00098427FF485AEA648FFE2B1F5000F08BF5E
:10E7F000984200F00583B1F1807F08BF98427FF412
:10E8000077AEA048F8E2A04DD5F8443103F070038C
:10E81000402B58D01BD8202B31D00CD83BB3102B19
:10E820002AD00020984BD3F84431C3F30723013397
:10E83000B0FBF3F093E0302BF3D1FBF7C3FB0028E0
:10E84000EFD0FBF7C7FBD5F8E030044620E0602BA3
:10E8500045D0702B3DD0502BE3D1FBF769FB00284E
:10E86000DFD0AB6C8948C3F3C113D840DAE7FBF7BC
:10E87000D3FAFBF7EFFBD5E7FEF74EFDD2E7FBF748
:10E880008FFB0028CDD0FBF793FB0446D5F8DC3096
:10E8900003F04053B3F1005F12D008D86BB1B3F16D
:10E8A000805FBED1FEF778FCB0FBF4F0BAE7B3F1BD
:10E8B000405FB6D1FEF7F0FCF6E7FEF72DFCF3E77C
:10E8C000FEF7AAFCF0E7FBF73BFB0028A9D0704855
:10E8D000A8E7FBF7A1FA6B6AC3F30163C5E76D48CC
:10E8E000A0E7694DD5F8443103F00703013B062B3F
:10E8F00008D8DFE813F04500BE01A9010D004D0066
:10E900008702C901FBF788FABDE83840FBF7A2BBD4
:10E91000FBF716FB00283FF4EBAD5D481FE05A4BB8
:10E92000D3F8402295037FF5E3ADD3F80801D3F87F
:10E930000831C0F30740441C03F04053B3F1005FBB
:10E9400000F0D68100F2CA81002B00F0CE81B3F135
:10E95000805F7FF4CDADFEF71FFCB0FBF4F038BD57
:10E96000494DD5F8443103F44013B3F5001F16D0D8
:10E970000AD8002B00F04F81B3F5801F7FF4B8ADAB
:10E98000BDE83840FEF7C8BCB3F5401F7FF4B0AD1A
:10E99000FBF7CEFA00283FF4ABADAB6C37E1D5F80E
:10E9A0004032DC037FF5A4ADD5F80401D5F804317D
:10E9B000C0F30740441CBFE7334AD2F8483103F4A0
:10E9C0004053B3F5005F10D004D8002B9AD0B3F5B4
:10E9D000805FD3E7B3F5405F7FF48AADFBF7A0FA21
:10E9E00000283FF485AD2C48B9E7D2F8403218052D
:10E9F0007FF57EADD2F8F000D2F8F030C0F30740DA
:10EA0000441C99E7204AD2F8483103F00303022B53
:10EA100010D0032B48D0012B09D0FBF7FDF9FBF7F1
:10EA200019FB194BD3F84831C3F30313FFE6FEF784
:10EA300073FCF6E7D2F84032D90411D5D2F8F400CD
:10EA4000D2F8F430C0F3074003F04053B3F1005F55
:10EA500000F1010425D005D853B1B3F1805F1DD07A
:10EA60000020DEE7B3F1405FFAD1FEF715FC01E0CC
:10EA7000FEF752FBB0FBF4F0D3E700BF1410000127
:10EA80001414000314080003008002560090D00301
:10EA900000093D000080BB00006CDC02FEF77CFB3F
:10EAA000E8E7FEF7B9FBE5E7FBF73AFA0028D7D02D
:10EAB000B448B6E7D5F840325B037FF519ADD5F819
:10EAC0000C01D5F80C31C0F30740441C34E7AE4BC1
:10EAD000D3F84C2102F03002202A15D004D8002AA5
:10EAE0003FF410AF102A49E7302A7FF401ADD3F884
:10EAF000402214077FF5FCACD3F8D000D3F8D03017
:10EB0000C0F30740441C17E7D3F8402255077FF5B0
:10EB1000EFACD3F8CC00D3F8CC30C0F30740441CA2
:10EB20000AE79A48BDE83840FFF7FCBA9848F9E789
:10EB30009848F7E79848BDE83840FFF7FBB9974891
:10EB4000BDE83840FFF7AEBB9548F9E79548F7E7D1
:10EB50009548F5E78C4AD2F8783103F4E063B3F5D1
:10EB6000407F31D012D8B3F5807F3FF409AFB3F5C1
:10EB7000007F1DD0002B7FF4BBACFBF74DF9FBF7FA
:10EB800069FA814B5B6AC3F30233E1E4B3F5A06F2A
:10EB90003FF4BEAEB3F5C06F32D0B3F5806F7FF4F3
:10EBA000A7ACFBF7D5F9003818BF0120C003D6E6A3
:10EBB000FBF71AFA00283FF49BACFBF71DFA724BE7
:10EBC0000446D3F8E430B7E6FBF720FA00283FF418
:10EBD0008FACFBF723FAD2F8F8300446ACE66A4D66
:10EBE000D5F8503103F04073B3F1007F1BD003D848
:10EBF0008BB1B3F1807FC1E6B3F1407F7FF478AC95
:10EC0000FBF796F900283FF473AC5F4B9B6C6748A9
:10EC1000C3F3C1139CE4FBF7FFF8FBF71BFA6B6A25
:10EC2000C3F3024394E4D5F8403218047FF560AC96
:10EC3000D5F80001D5F80031C0F30740441C7BE64D
:10EC4000B3F5403F7FF454ACFBF7BCF900283FF428
:10EC50004FACFBF7BFF9D5F8E03004466CE6B3F5EE
:10EC6000C02F00F0CF80B3F5E02F0DD0B3F5A02F6B
:10EC70008CE6FBF795F900283FF43AACFBF798F9DE
:10EC8000D5F8DC30044657E6FBF7C6F86B6AC3F3E9
:10EC900001635DE43C4AD2F85C3103F03003202B81
:10ECA0000FD004D8002B3FF42DAE102B66E6302B8E
:10ECB0007FF41EACFBF73CF900283FF419AC936CD1
:10ECC000A5E7D2F8403219037FF512ACD2F8100153
:10ECD000D2F81031C0F30740441C2DE6B3F1405F79
:10ECE0007FF406ACFEF7D8FA37E6FEF715FA34E6FD
:10ECF000FEF792FA31E6244AD2F85C3103F440730D
:10ED0000B3F5007F05D0B3F5407F09D0B3F5807F20
:10ED100045E75368DB077FF5EBAB4FF4FA401EE69F
:10ED2000FBF7FEF800283FF4E3ABD2F85C3115485E
:10ED3000C3F3053301337BE51D487AE41D48AAE49B
:10ED4000BDE83840FEF76EBB1B48BDE83840FEF713
:10ED500003BF1A48F9E71A48F7E71A48F5E71A48CF
:10ED6000BDE83840FEF7DABC1848F9E71848F7E77D
:10ED70001848C9E41848C7E41848C5E41848C3E46B
:10ED80001848EDE7006CDC02008002560C0000071A
:10ED90000C0400070C0800070C1000072C080007E3
:10EDA0002C0C00072C1000072C1400070090D00337
:10EDB000181800071C04000320040007200800079F
:10EDC000201000072018000730000007300400075B
:10EDD000300800073010000730180007301C00070B
:10EDE00034000007340400070748BDE83840FEF748
:10EDF000F9BB0648DDE40648BDE83840FEF776BBBF
:10EE00000448F9E70448AAE5140C000314180001AB
:10EE100014000003140400030080BB0002682DE905
:10EE2000F8431368064623F04053136083680C468A
:10EE30007BB94B6833F0404304D040F6A441764898
:10EE4000F3F748FC32686168136823F040430B43D2
:10EE5000136023683168022B58D101F5C07201F5A7
:10EE6000C47001F5C87501F5D073A76C1760E76A27
:10EE700067B1A76A1F60676BE36AD2F800C03B43C3
:10EE8000276B3B432CF47C173B4313600368676C90
:10EE900023F01F033B430360D4F838E0BEF1000FBA
:10EEA0000ED0236813B9E36B013B0B64236CB3F101
:10EEB000006F3FD1D1F8083123F08043C1F8083109
:10EEC000E368D4F81C90002B00F08380D4E904C8D8
:10EED000B9F1000F53D0D4E90807BEF1000F32D0CA
:10EEE0004EEA030343EA090343EA080343EA0C0337
:10EEF0003B430343206C16680343484830400343B8
:10EF00001360A3682B60A3698B644CE0032B01BFE3
:10EF100001F5A07201F5A47001F5A87501F5B073B3
:10EF20001FBF01F5807201F5847001F5887501F548
:10EF300090739AE7B36AB3F1804FC1D1D1F8083129
:10EF400043F08043BAE743EA0903D2F800E043EA1A
:10EF5000080343EA0C033B432EF47C5E03432EF08C
:10EF60003F0E43EA0E031360F36AB3F1805FC8D12A
:10EF70006369082BC5D1136843F00063C0E71168CB
:10EF8000BEF1000F12D04EEA0303206C43EA0803DF
:10EF900043EA0C0321F07061034321F03F010B436E
:10EFA0001360A3682B600020BDE8F88343EA0803E0
:10EFB00043EA0C0321F03F010B431360F36AB3F102
:10EFC000805FEED16369082BEBD1136843F00063D7
:10EFD000E6E7B9F1000F1BD0D4E90860BEF1000FDD
:10EFE0000DD04EEA090315680343206C33430343F5
:10EFF00025F0706020F47C500343136083E71368AE
:10F0000040EA0900304323F47C53184310607AE748
:10F0100008230120F365C7E7331D0634C0C0FFF0A5
:10F020002DE9F04104460E4615461F46DDF81880CE
:10F030002268136A334214BF01230023AB4201D17B
:10F04000002011E0B8F1FF3FF3D0F5F765F8C01BE1
:10F05000404502D8B8F1000FEAD102230320A3658E
:10F06000E36D43F00103E365BDE8F0817047000004
:10F07000F7B50446F5F750F80646002C00F02A8153
:10F08000A36833F0400304D040F261119248F3F7D3
:10F0900021FBE36833F0407209D023F00073B3F131
:10F0A000806F04D04FF4B1718B48F3F713FB2369E1
:10F0B0001F2B04D940F263118748F3F70BFB6369F8
:10F0C000013B3F2B04D94FF4B2718348F3F702FBA5
:10F0D000A36933F0020304D040F265117E48F3F7D0
:10F0E000F9FAE369012B04D94FF4B3717A48F3F7C5
:10F0F000F1FA236A33F400320CD0B3F5403F09D063
:10F1000023F48033B3F5802F04D040F267117248A6
:10F11000F3F7E0FA636AFF2B04D94FF4B4716E4839
:10F12000F3F7D8FAA36A33F0804304D040F26911B0
:10F130006948F3F7CFFAE36A33F0805304D04FF411
:10F14000B5716548F3F7C6FA236B1F2B04D940F25B
:10F150006B116148F3F7BEFA6368013B3F2B04D99A
:10F160004FF4B6715C48F3F7B5FA636BFF2B04D923
:10F1700040F26D115848F3F7ADFAE36B33F080734A
:10F1800004D04FF4B7715448F3F7A4FA236C33F466
:10F19000001304D040F26F114F48F3F79BFA00239D
:10F1A000E365A76D002F40F087802046FFF75EFFE4
:10F1B00041F28832E369E56821681D432369886864
:10F1C00045EA0345454B226603401D436369206AB7
:10F1D000013B45EA03258D60CB6823F4E02303431C
:10F1E000CB600B69206B23F4F81343EA00430B61F7
:10F1F0000B69606B23F0FF0303430B61A36B606833
:10F200004B610B68013823F47C5343EA00230B6005
:10F210002046009233463A462021FFF701FF00289E
:10F2200056D12368616ADA6822F0FF020A43DA6085
:10F230002B4A934242D002F1704293423ED0294A77
:10F2400093423BD002F17042934237D0264A934218
:10F2500034D002F17042934230D02368E06B1968D9
:10F26000A26821F08071024321F040010A431A6034
:10F27000D3F80811D4E90A2021F0A04102430A433F
:10F28000C3F808211A6842F001021A60A269022A32
:10F2900003D19A6842F002029A60226CB2F5001F14
:10F2A00002BF9A6842F400129A60E368B3F1806F7B
:10F2B0000CBF01230223A365002009E0236E002276
:10F2C0000093202133462046FFF7AAFE0028C4D031
:10F2D00003B0F0BD0120FBE7331D0634FCC0E0F8AD
:10F2E0000050025800A0025800D00258F7B50C4652
:10F2F00005461746F4F710FF23680646032B04D98A
:10F3000040F23E318448F3F7E5F9AB6843B96368EE
:10F3100033F0404304D040F241317F48F3F7DAF94B
:10F32000E368042B04D94FF451717B48F3F7D2F909
:10F33000E3688BB1236933F0300304D040F24731E6
:10F340007548F3F7C7F9636933F0080304D04FF445
:10F3500052717148F3F7BEF9E36903B323F4007205
:10F36000B2F5807F0DD1236A33F440532CD1636A08
:10F3700033F4006313D040F24F316748F3F7AAF932
:10F380000DE0B3F5007FEED0B3F5806FEBD040F227
:10F390004B316148F3F79EF9E369002BE3D1E36A4F
:10F3A00033B323F40032B2F5803F13D1236B33F42F
:10F3B00040133DD1636B33F4002319D040F2563132
:10F3C0005548F3F787F913E040F24E315248F3F70E
:10F3D00081F9CCE7B3F5003FE8D0B3F5802FE5D055
:10F3E00040F252314C48F3F775F9E36A002BDDD156
:10F3F000EB68A16BB3F1806F20D189B321F08071EC
:10F40000B1F1806F24D12368002B3DD0236C33F001
:10F41000006304D040F261313F48F3F75BF9636C5D
:10F420001F2B1DD940F262313B48F3F753F917E027
:10F4300040F255313848F3F74DF9BBE781B121F07F
:10F440000073B3F1807FDED0B1F1007FD6D1DAE76F
:10F4500040F259313048F3F73DF9A36B002BD2D17C
:10F46000A36C33F0005304D040F265312A48F3F71F
:10F4700031F9AB6D022B10D1EB68B3F1806F12D173
:10F4800010230120EB6528E0E36B002BBED140F296
:10F490005F312148F3F71EF9B8E7142B1FD1236819
:10F4A000023B012BECD8334600222021284600974E
:10F4B000FFF7B6FD70BBE86521462846FFF7AEFCB6
:10F4C00058B9A36B9BB902463346202128460097C2
:10F4D000FFF7A6FD02222B685A6203B0F0BD242B71
:10F4E000CED1236823F00203012BC9D1DBE72368C7
:10F4F0000BB9042305E0012B05D1AB6D242BF8D00B
:10F500001423AB65E9E7022BE7D1AB6D142BF0D0E8
:10F510002423F6E70220E0E7331D06342DE9F3410A
:10F52000044688461646F4F7F7FD27680546B8F105
:10F53000000F03D108230120E3652EE0A36D042B07
:10F540002ED13B6CC4F844800133E364E36CA364C4
:10F550003B6823F040533B602B46012204212046A8
:10F560000096FFF75DFDC0B9636C1B7887F85030DB
:10F57000636C01336364E36C013BE364E36C002B75
:10F58000EAD12B460122022120460096FFF748FDD2
:10F5900018B9022322685362A36502B0BDE8F08166
:10F5A0001023C8E72DE9F341044616468846F4F7D0
:10F5B000B3FD25680746AA6CD5F81001B8F1000F15
:10F5C00003D108230120E36535E0A36D042B3DD171
:10F5D0002B6CC4F844800133E364E36CA3642968B2
:10F5E000E36821F0405141F08051B3F1806F296010
:10F5F00024D1AA643B460122062120460096FFF74B
:10F600000FFDC0B995F85020636C1A70636C01331C
:10F610006364E36C013BE364E36C002BEAD13B469B
:10F620000122022120460096FFF7FAFC18B90223B6
:10F6300022685362A36502B0BDE8F081D5F80031BD
:10F6400013F4E06FD5D1C5F81001D3E71023B9E763
:10F650002DE9F34704460D461746F4F75DFD236890
:10F660000646D3F84880D3F81091D3F840A0AB6891
:10F6700033F4000304D040F234713248F3F72AF82F
:10F68000EB6833F4800304D040F235712D48F3F772
:10F6900021F82B69B3F5803F04D340F23671294835
:10F6A000F3F718F8BAF1030F04D940F2377125487F
:10F6B000F3F710F8A36D042B3ED1EB68B3F5800F80
:10F6C0003AD133460022202120460097FFF7A8FCBC
:10F6D000002835D12B682168C1F888306B68C1F8E3
:10F6E00080302B69C1F890300A68D5E902351D4396
:10F6F00022F043531D43E36845F00055B3F1806F9A
:10F700000D6011D1C1F848803346012208212046FE
:10F710000097FFF785FC20B9082223685A6202236C
:10F72000A36502B0BDE8F087D1F8003113F4E06FB3
:10F73000E8D1C1F81091E7E710230120E365F0E775
:10F740000220EEE7331D063473B50C460546F4F788
:10F75000E3FC2368064633F0080304D04FF4F96154
:10F760002F48F2F7B7FFA36833F0007304D040F2DC
:10F77000C9712B48F2F7AEFFAB6D042B4BD12B6E4A
:10F7800000220093202133462846FFF749FC064615
:10F7900058BB8823AB65A368B3F1007F28D12A68E2
:10F7A000136843F0007313602368082B12D1636859
:10F7B000B3F5803F04D340F2E5711948F2F78AFFB0
:10F7C0002B686268C3F8302110225A621A6842F42A
:10F7D00080121A602A682168136823F0405323F0CE
:10F7E00008030B4343F040531360304602B070BD32
:10F7F000E36833F0806304D040F2DD710848F2F72B
:10F8000069FFD4E90230296803430A6822F0C06224
:10F8100013430B60C8E710230126EB65E5E700BF43
:10F82000331D0634FF2938B504460D4604D940F689
:10F8300093210948F2F74EFFA06D10F0080007D1A0
:10F8400022686562D36823F0FF032B43D36038BD81
:10F8500010230120E365FAE7331D063470B5044632
:10F860000D46F4F759FC06462CB122681B4B9A4210
:10F8700003D001236360012070BDB5F5BC7FF8D2D1
:10F880006B0903F5087352F82310012305F01F00DC
:10F8900083400B421FD1D2F8043C23F4C34323F02E
:10F8A0007F032B43C2F8043C2368D3F8442ED207CD
:10F8B00009D4D3F8440E10F48C00DDD0D3F8443EC4
:10F8C00003F48C03D6E7F4F727FC801BB0F57A7FAE
:10F8D000EAD90A23CEE70423CCE700BF0090005604
:10F8E00070B50E461546044630B11AB10268094B90
:10F8F0009A4203D001236360012070BDB1F5BC7F43
:10F90000F8D2FFF7ABFF0028F6D1236853F8263072
:10F910002B60F2E7009000562DE9F74304460E46AF
:10F9200017469946F4F7F8FB80462CB12268284B1D
:10F930009A4205D001236360012003B0BDE8F08343
:10F9400039F4804304D04FF4DD712248F2F7C2FE4F
:10F95000B6F5BC7FEED22268730903F5007352F846
:10F960002310012306F01F0083400B422ED1C2F862
:10F97000087CD2F8045C25F4C34525F07F053543A7
:10F9800045EA090545F40055C2F8045C2368D3F83C
:10F99000442ED20706D4D3F8443EDB030BD54FF4F4
:10F9A0008033C8E7F4F7B8FBA0EB0800B0F57A7F26
:10F9B000ECD90A23BFE73146204601AAFFF790FFA2
:10F9C0000028B9D1019BBB42E9D1B6E70423B2E7D5
:10F9D00000900056791D063410B5026852E8003FC9
:10F9E00023F4907342E8003102680029F5D10F4CEE
:10F9F00002F1080353E8003F234002F1080C4CE8F1
:10FA000000310029F4D1C36E012B07D152E8003F29
:10FA100023F0100342E800310029F7D12023C0F879
:10FA20008C300023C366436710BD00BFFEFFFFEFAD
:10FA300070470000F8B54268B04B04469A4204D9BA
:10FA40004FF44561AE48F2F745FEA368B3F1805F1D
:10FA500007D033F4805304D040F65141A848F2F760
:10FA600039FE2268A749E3688A4204D001F1704157
:10FA70008A4240F0AF8033F4005304D040F6544142
:10FA80009F48F2F727FE236933F4806207D0B3F56D
:10FA9000C06F04D040F65C419948F2F71BFE6369E1
:10FAA00033F00C0200D123B940F65D419448F2F7DF
:10FAB00011FEA36933F4407304D040F65E419048D0
:10FAC000F2F708FEE36933F4004304D040F65F41E7
:10FAD0008B48F2F7FFFD636A0B2B04D94FF44661A4
:10FAE0008748F2F7F7FD2169A26823680A43616934
:10FAF0001868E5690A4384492A4301400A431A60A9
:10FB00005A68E16822F440520A435A607D4AA1696A
:10FB1000934205D002F1704293421CBF226A114306
:10FB20009A6822F06E4222F430620A439A60DA6ADE
:10FB3000616A22F00F020A43DA62744A93427AD071
:10FB4000734A934200F09C8002F58062934200F079
:10FB50009B8002F58062934200F09A80B3F1502FAF
:10FB600000F09A806B4A934200F09A806A4A93426E
:10FB700000F09A8002F58062934200F09980674A13
:10FB8000934200F0998002F58062934200F09880E1
:10FB90005C4A93422ED002F1704293424FF0000033
:10FBA0004FF000014AD1FEF75FFC002841D0616AA6
:10FBB0005B4A656832F8112005EB4501B0FBF2F3B2
:10FBC00099421BD901204FF00113A3660023C4E919
:10FBD0001D33F8BD33F4405304D040F65841484833
:10FBE000F2F778FD236A33F400633FF44CAF40F63C
:10FBF000594145E74FF400000021D4E7B3EB053F3E
:10FC0000E0D800231946F2F7AFF806460F4656EA49
:10FC10000F27680830182A464FF0000347F100010B
:10FC2000F2F7A2F83F4BA0F540729A42CAD8236877
:10FC3000D8600020C7E700204FF48071B5F5004F71
:10FC400042D1FEF711FC0028F3D0616A344B6268A0
:10FC500033F81130B0FBF3F0530803EB4003B3FB70
:10FC6000F2F34FF6EF72A3F110019142AAD823F0FC
:10FC70000F02216892B2C3F342031343CB60D8E76B
:10FC800000204FF40071D9E700204FF48061D5E7E0
:10FC900000204FF40061D1E700204FF48051CDE700
:10FCA00000204FF40051C9E700204FF48041C5E720
:10FCB00000204FF40041C1E700204FF48031BDE740
:10FCC00000204FF40031B9E7FEF7CEFB0028B0D09A
:10FCD000616A134B626833F81130B0FBF3F303EB46
:10FCE0005203B3FBF2F34FF6EF72A3F1100191420E
:10FCF0003FF668AF2268D3609BE700BF1FBCBE0021
:10FD0000BF1D0634000C0056F369FFCF00100052EF
:10FD100000440050001400520078005000180052B7
:10FD2000061E0634FFFC0F00836A10B5FF2B044645
:10FD300004D940F6E5417E48F2F7CCFCA36A1807E7
:10FD40000FD5A36B33F4004304D040F6EA41784862
:10FD5000F2F7C0FC2268A16B536823F400430B4305
:10FD60005360A36AD9070FD5E36A33F4003304D094
:10FD700040F6F1416E48F2F7ADFC2268E16A536843
:10FD800023F400330B435360A36A9A070FD5236B08
:10FD900033F4803304D040F6F8416548F2F79AFC1A
:10FDA0002268216B536823F480330B435360A36AAA
:10FDB0005B070FD5636B33F4802304D040F6FF411B
:10FDC0005B48F2F787FC2268616B536823F4802359
:10FDD0000B435360A36AD8060FD5E36B33F480530B
:10FDE00004D040F606515248F2F774FC2268E16BE9
:10FDF000936823F480530B439360A36A99060FD54D
:10FE0000236C33F4005304D040F60E514848F2F707
:10FE100061FC2268216C936823F400530B439360C8
:10FE2000A36A5A066FD52368424A934247D002F12B
:10FE30007042934243D0404A934240D002F1704214
:10FE400093423CD03D4A934239D002F170429342F2
:10FE500035D03B4A934232D002F1704293422ED0C9
:10FE6000B3F1502F2BD002F58062934227D0354A50
:10FE7000934224D002F17042934220D0324A9342FE
:10FE80001DD002F17042934219D0304A934216D0ED
:10FE900002F17042934212D02D4A93420FD002F1E8
:10FEA000704293420BD02B4A934208D002F1704229
:10FEB000934204D040F616511D48F2F70BFC636CD8
:10FEC00033F4801304D040F617511948F2F702FCBE
:10FED0002168626C4B68B2F5801F23F4801343EAFB
:10FEE00002034B600FD1A36C33F4C00304D040F67F
:10FEF0001C510F48F2F7EEFB2268A16C536823F403
:10FF0000C0030B435360A36A1B060FD5E36C33F4A5
:10FF1000002304D040F624510548F2F7DBFB2268A9
:10FF2000E16C536823F400230B43536010BD00BF02
:10FF3000BF1D06340010005200440050004800501D
:10FF4000004C00500014005200780050007C00501B
:10FF500000180052001C00522DE9F84304460D46DB
:10FF600017469846DDF820902268D36935EA0303E6
:10FF70000CBF01230023BB4201D0002022E0B9F1D5
:10FF8000FF3FF2D0F4F7C8F8A0EB0800484529D8A5
:10FF9000B9F1000F26D021680B685A07E4D5802DEF
:10FFA000E2D0402DE0D0CE6916F008060CD008252E
:10FFB00020460D62FFF710FD00230120C4F8905089
:10FFC00084F88430BDE8F883CB691B05CCD54FF4A9
:10FFD000006320460B62FFF7FFFC202384F8846057
:10FFE000C4F890300320EDE72DE9F7431F46D0F821
:10FFF00088300446202B0D46164648D1002948D0AB
:02000004701179
:10000000002A46D021234FF00009C0F89090C0F894
:100010008830F4F781F8A368A4F85460B3F5805FE2
:10002000A4F8566080464E4604D123694B4504BF70
:100030002E461D46B4F85620434692B2009742B968
:1000400040212046FFF788FF202348B9C4F88830B4
:1000500009E0002280212046FFF77EFF30B12023F7
:100060000320C4F8883003B0BDE8F08322685DB98E
:1000700036F8023BC3F308039362B4F85620013A02
:1000800092B2A4F85620D5E715F8013BF4E7022018
:10009000E9E70120E7E773B500260446C0F8906061
:1000A000F4F73AF8236805461B681A071CD56FF069
:1000B0007E43324600934FF4001103462046FFF77B
:1000C0004BFF88B1226852E8003F23F0800342E8EA
:1000D00000310029F6D12023C4F888300320002302
:1000E00084F8843002B070BD23681B685B0724D598
:1000F0006FF07E43002200934FF480012B46204690
:10010000FFF72AFFC8B1226852E8003F23F490733A
:1001100042E8003122680029F5D102F1080353E8D2
:10012000003F23F0010302F1080040E800310029FC
:10013000F3D12023C4F88C30D0E720230020C4F86A
:100140008830C4F88C30E0662067C8E710B50446F4
:10015000002800F0D08081690368684A00297CD0BB
:1001600093424ED002F1704293424AD0644A934285
:1001700047D002F17042934243D0624A934240D04A
:1001800002F1704293423CD05F4A934239D002F16F
:100190007042934235D0B3F1502F32D002F58062D5
:1001A00093422ED0594A93422BD002F1704293428F
:1001B00027D0574A934224D002F17042934220D074
:1001C000544A93421DD002F17042934219D0524AD0
:1001D000934216D002F17042934212D04F4A93429A
:1001E0000FD002F1704293420BD04D4A934208D097
:1001F00002F17042934204D04FF4A0714948F2F7E3
:1002000069FAD4F8883023B9204684F88430FFF79F
:100210000FFC24232268C4F88830136823F00103FC
:100220001360A36A13B12046FFF77EFD2046FFF757
:1002300001FC01285FD023682046BDE810405A68C1
:1002400022F490425A609A6822F02A029A601A6850
:1002500042F001021A60FFF71EBF9342D1D0324A2A
:100260009342CED0264A9342CBD002F170429342C1
:10027000C7D0244A9342C4D002F170429342C0D006
:10028000214A9342BDD002F170429342B9D0B3F1FA
:10029000502FB6D002F580629342B2D01B4A9342EF
:1002A000AFD002F170429342ABD0194A9342A8D02A
:1002B00002F170429342A4D0164A9342A1D002F1B7
:1002C000704293429DD0144A93429AD002F17042F8
:1002D000934296D0114A934293D002F170429342D6
:1002E0008FD00F4A93428CD002F17042934288D053
:1002F00040F2451182E7012010BD00BF00100052FE
:100300000044005000480050004C005000140052BF
:1003100000780050007C005000180052001C005271
:10032000000C0056BF1D0634001000420F4B07B5ED
:100330001B6ADB0703D56B210D48F2F7CBF94FF4AD
:1003400080520C4BC3F8442A4FF40062C3F84C2A85
:10035000D3F84C220192019A2022C3F87C2AD3F8C8
:100360007C320093009B03B05DF804FB00800056D4
:100370001E1E063400800256F7B5044680B303689B
:10038000464A93420ED002F1704293420AD0444A48
:10039000934207D002F17042934203D08621414834
:1003A000F2F798F994F8953403F0FF0223B9204648
:1003B00084F89424F2F738F90323206884F89534FC
:1003C00000F046FE237C251D8DF8003095E80E00D8
:1003D000206800F087FD014630B1022384F895348F
:1003E0000125284603B0F0BD206800F037FE002844
:1003F000F3D127794FF0010C3E4694F9042066446E
:10040000002A014614BF3246624604F11403013A41
:10041000C6B203F1240326D10020874207F101026E
:10042000014608BF012204F51573013AC6B203F173
:10043000240326D1237C8DF8003095E80E00206837
:1004400000F086FE05460028C7D10123607484F8B9
:100450009534237B012B02D1204600F02FFD20682C
:1004600001F0CDF9BDE723F80A0C43E9071103F8C1
:1004700023CC03F8246C03F8201C43F8141C01302F
:10048000C5E743E9071103F8231C03F8246C03F8BC
:10049000201C43F8141C0130C7E700BF00000458BB
:1004A00000000858631E063410B590F894340446D2
:1004B000012B0CD0012380F89434006800F0C2FDB9
:1004C000206801F08EF9002084F8940410BD022009
:1004D000FCE710B590F894340446012B10D00123AA
:1004E00080F89434006800F0B3FD206801F087F9CB
:1004F0001021206800F0E0FD002084F8940410BD75
:100500000220FCE710B590F894240446012A0AD092
:100510000122417480F89424006801F052F900200F
:1005200084F8940410BD0220FCE770B501F00F06BA
:1005300006EBC60411F0800F05464FEA84044FF025
:10054000240020D004F11401012400FB06502944AA
:100550004475C2F30A028A604A780E700B7102B1C8
:100560004E83022B04BF00234B7195F89434012B6A
:1005700012D00123286885F8943400F0BEFE0020D4
:1005800085F8940470BD04F51571002400FB065035
:10059000294480F85542DCE70220F3E710B5044611
:1005A00001F00F0000EBC00311F0800F4FF02402A8
:1005B0004FEA830315D003F11401012302FB00422B
:1005C00021445375087094F89434012B12D0012300
:1005D000206884F8943400F0CFFE002084F894045E
:1005E00010BD03F51571002302FB0042214482F87F
:1005F0005532E7E70220F3E770B5242401F00F0538
:1006000004FB050104FB0504C4E9982300231646F6
:10061000C4F8683284F8553284F85452827901F56E
:100620001571012A08BFC4F87062006800F04EFF1F
:10063000002070BD242301F00F0103FB0100D0F85E
:100640006802704770B5242401F00F0504FB050112
:1006500004FB0504C4E908230023A3620123164612
:1006600063752575827914319A4208BF2663006844
:1006700000F02CFF002070BD38B5037901F00F05A4
:10068000AB4204462BD311F0800F4FF024001DD055
:10069000012300FB054100FB054014314375012394
:1006A0000D708B7094F894249A421AD0206884F8C4
:1006B000943401F032F82DB9A179206804F29C42FB
:1006C00001F0EEF8002084F8940438BD00FB0143EB
:1006D0001A4603F51571002382F85532DFE7012031
:1006E000F3E70220F1E738B5037901F00F029342F6
:1006F000044629D302EBC20311F0800F4FF024000F
:100700004FEA830317D003F11401012300FB0240D9
:100710002144437500250A708D7094F89434012BA0
:1007200014D00123206884F8943401F021F828467D
:1007300084F8945438BD03F51571002300FB024082
:10074000214480F85532E5E70120F3E70220F1E784
:1007500001F00F0303EBC3039B0003F1140203F545
:1007600015730244034411F0800F0CBF1946114663
:10077000006800F057BE00002DE9F04F06680446FF
:1007800087B0304601F077F8002840F07581206886
:1007900001F043F8002800F06F81D6F8083820688F
:1007A000C3F30D23C4F8D43401F037F8870748BFEA
:1007B0002268206848BF536906F5006544BF03F00E
:1007C0000203536101F029F8C0062CD52268936911
:1007D00023F010039361D6F82080C8F34343022B23
:1007E00008F00F0740F04B8147F6F07318EA030F4B
:1007F00014D0242303FB0747C8F30A194A4630469E
:10080000D7F8601200F064FFD7F860324B44C7F8A5
:100810006032D7F868324B44C7F86832226893696F
:1008200043F010039361206800F0F7FF010300F12B
:100830003881206800F0F1FF42030DD5206800F0F8
:10084000F8FF274683464FF0000906F5106A206836
:10085000BBF1000F40F0F281206800F0DEFF0028BD
:1008600013DA6B6823F001036B6094F8CC34012B2E
:1008700040F088820021204684F8CC1400F031FB3F
:100880002268536903F000435361206800F0C5FFFC
:1008900002050AD5AB68DB0702D5204614F042FFFB
:1008A0002268536903F400635361206800F0B5FFC8
:1008B000070114D523685A6902F000625A6194F85E
:1008C000CC24002A40F06282012184F8CC145B6DB4
:1008D0002046C3F38303C4F8D03400F002FB206841
:1008E00000F09BFFC00437D56B68102123F0010393
:1008F0006B60206800F0E0FB21794FF67F30002923
:1009000001F1010208BF012206F51063013A40F02F
:100910004182EB6943F00113EB61E37B002B00F0B4
:100920005382D5F8843043F00B03C5F884306B6CE8
:1009300043F00B036B64D6F8003804F29C4223F4B6
:10094000FE63C6F80038A179206800F0A9FF22688C
:10095000536903F480535361206800F05EFF810403
:1009600016D5206800F08BFF206800F0BBFCE0711A
:100970002768F9F7A1FAE2790146384600F0F2FA61
:10098000204614F09BFE2268536903F40053536120
:10099000206800F042FF020707D5204614F0D6FE7B
:1009A0002268536903F008035361206800F035FFA3
:1009B000030600F11482206800F02FFFC7020CD557
:1009C000A046012706F512692379BB4200F2208276
:1009D0002268536903F480135361206800F01DFFFF
:1009E00080022CD523792246002B08BF012306F56F
:1009F000326C013B1ED092F87C72DCF80000012FB3
:100A000040F01C82002880F21982D4F8D41481EAC4
:100A10001040C10700F1128282F87B72B06940F089
:100A20008000B0617069000600F108826B6843F4D1
:100A300000736B602268536903F4001353612068EC
:100A400000F0EBFE410007D5204614F04FFE22686F
:100A5000536903F080435361206800F0DEFE4207D3
:100A60000AD523685D686B0702D5204614F048FE5E
:100A7000226853682B43536007B0BDE8F08F062B04
:100A80007FF4CCAE0822304604F29C4100F020FEF8
:100A9000242303FB0747D7F86832C8F30A184344F6
:100AA000BAE6206800F0BDFEA2460027029006F5D7
:100AB0003068029B2068002B3FF4BBAE029BDB0733
:100AC00078D55FFA87FB594600F0BBFE10F0010FA6
:100AD00081461FD001232068C8F8083094F806C06A
:100AE00000F5306303EB4713BCF1010F016C9A680A
:100AF00040F08E8012F0080F07D0B148814209D92A
:100B0000120407D54FF4004203E012F0200F5AD030
:100B100020229A6019F0080F21D00823C8F8083065
:100B20002368A7491A6C03F5306303EB47138A4225
:100B3000986804D9000444BF4FF4004098602046F0
:100B4000039214F0BDFC039A9D498A4207D9A1790A
:100B5000012904D1206804F29C4200F0A1FE19F0A2
:100B6000100F1CBF1023C8F8083019F0020F14D062
:100B70007369190642BF6B6843F480636B609AF82F
:100B80005732012B06D10023594620468AF85732A6
:100B900014F006FE0223C8F8083019F0200F1CBF1D
:100BA0002023C8F8083019F4005F1CBF4FF400532D
:100BB000C8F80830029B01375B08029308F120084F
:100BC0000AF1240A75E712F0280FA3D1DFF8F0C16B
:100BD000614501D9120495D41A69DAF87432C2F366
:100BE00012029B1ACAF868326FB9D4F864222AB983
:100BF000012104F29C4200F053FE04E0D4F860228C
:100C00001A44C4F860225946204614F00BFD81E7CF
:100C1000DFF8B0C1614507D111043FF573AF92060B
:100C2000F1D520229A60EEE7002FECD1D4F864329F
:100C3000002BE8D1394604F29C42DCE71BF0010F9F
:100C400000F098805FFA89F31946029300F002FEE3
:100C500010F0010F80461FD001216B6B09F00F02CD
:100C600001FA02F223EA02036B63CAF80810A179C1
:100C700001290DD1D7E9072313443B62B9F1000FD5
:100C800006D1636A23B9206804F29C4200F008FE92
:100C90002046029914F060FC18F0080F1CBF0823CE
:100CA000CAF8083018F0100F1CBF1023CAF808301B
:100CB00018F0400F1CBF4023CAF8083018F0020F8C
:100CC0000FD04946304600F0F7F9FB7D012B05D1E6
:100CD000002320460299FB7514F042FD0223CAF856
:100CE0000830236818F0800F039343D0D7E9093206
:100CF0009A423FD89B1AFA69934228BF134603339E
:100D00009B080493039B03F5106303EB49130593BE
:100D1000059B04989969D7E9093289B2814227D3A2
:100D200093420BD80121039B09F00F00D3F834281C
:100D3000814022EA0102C3F834281BE0A3EB020839
:100D4000FB69029A984528BF984608F103039B085F
:100D50000493A37903980093396A1FFA88F300F08B
:100D6000A3FB3B6A43443B62BB6A4344BB62CFE79D
:100D70009342D7D909F101094FEA5B0B24370AF1F5
:100D8000200A64E5204614F0D7FC79E5204614F0EB
:100D9000C9FCA4E598601968203321F4001143F8D8
:100DA000201CC3F8E801D3F8E01121F40011C3F8C6
:100DB000E011D3F8E01141F00061C3F8E011A5E5BE
:100DC0000A30544F0A31544F6B6943F4005343F0D7
:100DD0002B036B612B6943F00B032B61ABE5012700
:100DE0004FF02409B36904F2572823F08003B3615C
:100DF0002379BB427FF6DFAD09FB07F318F8033018
:100E0000012B03D12046F9B2FFF7A2FC0137EFE72F
:100E100098F83C30D9F80020012B09D1002A07DAD4
:100E200067F07F01204688F83B30C9B2FFF790FC9D
:100E3000013708F1240809F12009C5E524320CF135
:100E4000200CD6E510B590F894340446012B10D050
:100E5000012380F894340B06006807D501F00F01D8
:100E600000F02AF9002084F8940410BD00F047F93E
:100E7000F8E70220F9E7036870B5586A120419B957
:100E800002439A62002070BD9C6A002500EB14406A
:100E90000C46013C05D13F31024303EB81035A600C
:100EA000F0E705F1400603EB86067668013500EBB6
:100EB0001640EEE70368002059627047012102687E
:100EC000C0F8D8140346002083F8CC04936943F09B
:100ED00000639361536D43F0805343F00303536504
:100EE0007047704784B013B5044605A880E80E002B
:100EF0009DF81900032832D1E36823F48003E360EE
:100F000000230193019B01330193019BB3F1706FA7
:100F100014D82369002BF5DA00230193236943F0E9
:100F200001032361019B01330193019BB3F1706FB6
:100F300004D8236913F00103F4D118469DF8163044
:100F4000012B07D1A36843F00603A360A36843F015
:100F50002003A36002B0BDE8104004B07047012038
:100F6000F8E70000022A4AD1274B284A0B44934253
:100F700039D9274B274A0B44934236D9264AA1F543
:100F80007403A3F51053934231D9244AA1F183731A
:100F9000A3F5E74393422CD3214B224A0B449342BF
:100FA00029D9214B214A0B44934226D3204B214A75
:100FB0000B44934223D3204AA1F1B773A3F55853AE
:100FC00093421ED31D4B1E4A0B4493422CBF062353
:100FD0000723C26822F47052C260C26842EA8323C7
:100FE000C360002070470F23F3E70E23F1E70D23C2
:100FF000EFE70C23EDE70B23EBE70A23E9E70923EF
:10100000E7E70823E5E700BF405327FFFF340C0064
:10101000401E1BFF3F420F007F4F120020D61300DF
:1010200060B6E5FE5FE3160000D3CEFE40771B00FE
:10103000C05BB3FEC091210020753800E05459FE1A
:10104000E09C4100836843F0010383600020704707
:10105000836823F0010383600020704738B5C368BC
:10106000012923F0C04305460C46C36013D1002478
:10107000C36843F00053C3600A20F3F74FF86B696D
:101080000A34D90702D4C82CF6D1C824A4F1C80365
:101090005842584138BD69B9C36843F08043C360C2
:1010A0000A20F3F73BF86B690A34DA07EED5C82C4F
:1010B000F6D1EAE70120EDE70023024682B0019372
:1010C000019B01330193019BB3F1706F15D8136934
:1010D000002BF5DA0023890141F020010193116111
:1010E000019B01330193019BB3F1706F05D8106927
:1010F00010F02000F4D102B070470320FBE700237A
:10110000024682B00193019B01330193019BB3F12D
:10111000706F13D81369002BF5DA002301931023A5
:101120001361019B01330193019BB3F1706F05D8EB
:10113000106910F01000F4D102B070470320FBE7F3
:10114000D0F800381943C0F800180020704700009C
:1011500084B02DE9F047044609A880E80E004FF05E
:101160000F0E00234EF001E019469DF824509DF823
:101170002E6003F1400204EB8202516001330FF054
:1011800009C0A36B04F5006723F00073A363002E6E
:1011900072D17B6843F002037B60A36B43F08073E2
:1011A000A363A36B43F40003A3630023C4F8003ECE
:1011B0009DF82930032B69D19DF82710002963D1B0
:1011C0002046FFF7BDFF10212046FFF775FF0146BF
:1011D0002046FFF794FF00230843C0B2003818BF31
:1011E00001209D4205F101029C464FF0904E4FF0C8
:1011F00000684FF67F3908BF01223B6104F510619A
:101200007B61FB61013A43D100218D4205F101026E
:101210008C464FF0904E4FF000684FF67F3908BF74
:10122000012204F53063013A47D13B6923F480730E
:101230003B610023A3616FF0804363619DF826301A
:101240001BB9A36943F01003A361A269244B1343A4
:10125000A3619DF82A301BB1A36943F00803A36181
:10126000012E01BFA36943F0804343F00403A3614F
:10127000BDE8F04704B07047A36B23F08073A3630D
:10128000A36B23F400038FE7012199E7032197E77C
:10129000D1F800A0BAF1000F0CDA43B9C1F8008010
:1012A000C1F810C00133C1F808902031AAE7C1F895
:1012B00000E0F5E7C1F800C0F2E71D68002D0CDA88
:1012C00041B9C3F80080C3F810C00131C3F80890D9
:1012D0002033A8E7C3F800E0F5E7C3F800C0F2E761
:1012E00000383C80D0F8083813F0060004D013F022
:1012F000020F14BF02200F207047012230B50C7876
:1013000000F5006304F00F05AA404D7800EB44108F
:10131000012D19D1DD692A43DA61D0F800391A04A8
:1013200010D48A68D0F80059C2F30A030A792B4313
:1013300043EA824343EA845343F0805343F4004337
:10134000C0F80039002030BDDC6944EA0242DA61AD
:10135000D0F8003B1B04F5D48B68D0F8002BC3F306
:101360000A0313430A7943EA824343F0805343F468
:101370000043C0F8003BE5E710B50A78497800EB78
:101380004213012900F5006002F00F0222D1D3F8C8
:10139000001900290BDAD3F8001941F00061C3F8F5
:1013A0000019D3F8001941F08041C3F80019012158
:1013B000C46B01FA02F224EA0204C463C16921EA9F
:1013C0000202C261D3F80019144A0A40C3F8002986
:1013D000002010BDD3F8001B00290BDAD3F8001B46
:1013E00041F00061C3F8001BD3F8001B41F08041BD
:1013F000C3F8001B4FF48031C46B01FA02F224EAF7
:101400000204C463C16921EA0202C261D3F8001B6D
:10141000034A0A40C3F8002BDAE700BF007833EC38
:101420000078F3EF00234A7882B001930B78012A09
:101430004FEA43131ED100F51060C258C118002AAC
:1014400002DB002002B07047C25842F00062C25076
:10145000C25842F08042C25042F21072019B0133E6
:101460000193019B934201D90120EBE70B68002B0C
:10147000F4DBE6E700F53060C258C118002AE0DA74
:10148000C25842F00062C250C25842F08042C2507C
:1014900042F21072019B01330193019B9342E3D806
:1014A0000B68002BF6DBCCE710B59DF808403CB983
:1014B000033301329B0800EB02300133013B01D1C1
:1014C000002010BD51F8042B0260F7E72DE9F3412D
:1014D0004B7816460A78012B0C690F79DFF8E8E1A2
:1014E000DFF8E88100EB421540F0978005F5106CBD
:1014F000DCF8103074BB03EA0E03CCF81030DCF8D3
:10150000103043F40023CCF81030DCF8103003EA3C
:101510000803012ECCF8103057D1CB690BB1CCF8B1
:101520001430012F0CD1D0F8083813F4807FD5F88F
:1015300000390CBF43F0005343F08053C5F8003925
:10154000D5F8003943F00443C5F80039002002B053
:10155000BDE8F08103EA0803CCF81030DCF8103065
:1015600003EA0E03CCF810308B687AB99C4288BF2E
:101570000B61DCF8103043F40023CCF810300B6919
:10158000DCF81040C3F312032343C2E71C44013CC0
:10159000B4FBF3F44B4BDCF810E01FFA84F803EAD9
:1015A000C44444EA0E04012FCCF81040E7D1DCF823
:1015B000103023F0C043CCF81030DCF810404FEA74
:1015C000487303F0C0432343D7E7D5F80039012F10
:1015D00043F00443C5F800390B690BD0002BB5D09C
:1015E0000123D0F8341802F00F0293400B43C0F8E7
:1015F0003438ABE7D0F808489BB214F4807FD5F8B4
:1016000000490CBF44F0005444F08054C5F8004930
:101610000096C968FFF748FF98E7D5F8103B05F535
:10162000306C03EA0803CCF81030DCF8103003EA21
:101630000E03CCF810308B685ABB04B10B610B62FF
:10164000DCF81020C3F312031343CCF81030DCF89D
:10165000103043F40023012ECCF8103003D1CB68B6
:101660000BB1CCF81430012F0CD1D0F8083813F49A
:10167000807FD5F8003B0CBF43F0005343F080530C
:10168000C5F8003BD5F8003B43F00443C5F8003BE8
:101690005CE7002CD4D01C44013CB4FBF3F4A4B2AE
:1016A0006343084ADCF810E002EAC44242EA0E0250
:1016B0000B62CCF81020DCF81020C3F312031343A4
:1016C000C9E700BF0000F81FFFFF07E00000F8FFB8
:1016D000F0B500259408AC42034600F5805604F1AD
:1016E000010008BF012002F00302013810D101EB14
:1016F000840062B103F580531C680023D90024FAEA
:1017000001F1C154013399B28A42F7D11044F0BDBE
:10171000376841F825700135E7E74A780B78012AE8
:1017200000EB431012D1D0F80029002A06DB2BB1C0
:10173000D0F8003923F08043C0F80039D0F80039E0
:1017400043F40013C0F8003900207047D0F8002B94
:10175000002A06DB2BB1D0F8003B23F08043C0F811
:10176000003BD0F8003B43F40013C0F8003BEBE72C
:101770000B784A7800EB43100B79012AA3F102039E
:10178000DBB20FD1D0F80029012B22F40012C0F8EF
:10179000002905D8D0F8003943F08053C0F800394B
:1017A00000207047D0F8002B012B22F40012C0F863
:1017B000002B9EBFD0F8003B43F08053C0F8003BA5
:1017C000EEE7D0F80038090123F4FE63C0F80038D2
:1017D000D0F8003801F4FE611943C0F80018002069
:1017E0007047D0F8003E23F00303C0F8003ED0F865
:1017F000043823F00203C0F8043800207047D0F802
:10180000003E23F00303C0F8003ED0F8043843F054
:101810000203C0F804380020704742698069104014
:101820007047D0F8183800F50060C0691840000C07
:101830007047D0F8183800F50060C069184080B2D1
:10184000704700EB411100F50060D1F8082B4069AA
:1018500010407047D0F81028D0F8343800EB411011
:1018600001F00F01CB4000F51060DB018068DBB2B6
:10187000134318407047406900F001007047D0F8EA
:10188000003923F4FF6323F00703C0F80039D0F8D0
:10189000043843F48073C0F8043800207047000017
:1018A00030B5056C104C00F53063A54203D9D0F873
:1018B000004B002C16DB00241C611C69012944F438
:1018C00000241C611C6944F018041C611C6944F06C
:1018D000C0441C6101BF5A61D0F8003B43F0802333
:1018E000C0F8003B002030BD0A30544F012905D01C
:1018F000022901D029B94260826000E042600020E4
:10190000704701207047000038B50F4B05460B406B
:101910000C4673B901F0E063B3F1807F04D001F0AD
:101920004073B3F1007F04D1084B094A234093422E
:1019300004D940F2D5110748F0F7CCFE15B10020CC
:101940002C6038BD0120FCE7E0FFFCE81F0003002D
:101950000D000200A81E063470470000036810B591
:10196000B3F1A44F04467DD0B3F1844F7AD0B3F1E4
:10197000A04F77D0B3F1804F74D0654A934271D0B5
:1019800002F1704293426DD0624A93426AD002F1F2
:101990007042934266D0604A934263D002F1704233
:1019A00093425FD05D4A93425CD002F17042934211
:1019B00058D05B4A934255D002F17042934251D0C5
:1019C000584A93424ED002F1704293424AD0564A4E
:1019D000934247D002F17042934243D0534A93421C
:1019E00040D002F1704293423CD0514A934239D0E8
:1019F00002F17042934235D04E4A934232D002F106
:101A0000704293422ED04C4A93422BD002F1704246
:101A1000934227D0494A934224D002F17042934224
:101A200020D0474A93421DD002F17042934219D010
:101A3000444A934216D002F17042934212D0424A75
:101A400093420FD002F1704293420BD03F4A93422F
:101A500008D002F17042934204D04FF4CE713C485A
:101A6000F0F738FE94F83D30012B4ED1022384F874
:101A70003D302368B3F1A44F39D0B3F1844F36D051
:101A8000B3F1A04F33D0B3F1804F30D0204A93420E
:101A90002DD002F17042934229D01E4A934226D0A3
:101AA00002F17042934222D01B4A93421FD002F1AE
:101AB000704293421BD01B4A934218D002F17042ED
:101AC000934214D0184A934211D002F170429342CB
:101AD0000DD0184A93420AD002F17042934206D0C8
:101AE000174A934203D002F17042934207D199689A
:101AF000184A0A40062A06D0B2F5803F03D01A6879
:101B000042F001021A60002010BD0120FCE700BF76
:101B10000004005000080050000C0050001000505D
:101B20000014005000040052004C005200300050DD
:101B30000034005000180050001C005000200050DD
:101B4000004000520044005200480052003C005245
:101B5000EE1E063407000100B0F1A44F036824D044
:101B6000B0F1844F21D0B0F1A04F1ED0B0F1804F22
:101B70001BD0524A904218D002F17042904214D0C9
:101B80004F4A904211D002F1704290420DD04D4A1E
:101B900090420AD002F17042904206D04A4A9042E6
:101BA00003D002F1704290422CD14A6823F07003B6
:101BB000B0F1A44F43EA020347D0B0F1844F44D0C0
:101BC000B0F1A04F41D0B0F1804F3ED03B4A90429F
:101BD0003BD002F17042904237D0394A904234D023
:101BE00002F17042904230D0364A90422DD002F13C
:101BF0007042904229D0344A904226D002F170427D
